:020000040800F2
:100000008015002091020008990200089B02000858
:100010009D0200089F020008A102000800000000E5
:10002000000000000000000000000000A302000823
:10003000A502000800000000A7020008091300083C
:10004000AB020008AB020008AB020008AB020008DC
:10005000AB020008AB020008AB020008AB020008CC
:10006000AB020008AB020008AB020008AB020008BC
:10007000AB020008AB020008AB020008AB020008AC
:10008000AB020008AB020008AB0200080000000051
:10009000000000000000000000000000AB020008AB
:1000A000AB020008AB020008AB020008AB0200087C
:1000B000AB020008AB020008AB020008AB0200086C
:1000C000AB020008AB020008AB020008AB0200085C
:1000D000AB020008AB020008AB0200080000000001
:1000E000AB020008AB020008AB02000800000000F1
:1000F000000000000000000000000000AB0200084B
:1001000000000000AB020008AB020008AB020008D0
:1001100000000000000000000000000000000000DF
:10012000AB020008AB020008AB020008AB020008FB
:10013000AB0200080000000000000000000000000A
:10014000000000000000000000000000AB020008FA
:10015000AB020008AB020008AB020008AB020008CB
:10016000AB020008AB020008000000000000000025
:10017000000000000000000000000000000000007F
:1001800000000000AB0200080000000000000000BA
:10019000AB020008AB02000800F002F800F046F8DD
:1001A0000AA090E8000C82448344AAF10107DA45D2
:1001B00001D100F03BF8AFF2090EBAE80F0013F0DE
:1001C000010F18BFFB1A43F0010318471449000040
:1001D00034490000103A24BF78C878C1FAD85207D1
:1001E00024BF30C830C144BF04680C6070470000B1
:1001F0000023002400250026103A28BF78C1FBD830
:10020000520728BF30C148BF0B6070471FB504F0CC
:10021000FEFA9DE8030000F093F900F037F88DE84E
:100220000F0000F05FF91FBD10B510BD00F026FBF8
:100230001146FFF7EBFF03F091FB00F046FB03B420
:10024000FFF7F2FF03BC00F04FFA00000E4802680F
:10025000D2F800D0BDE8F00F0FBC5DF804CB01B0C0
:100260005DF804EB01B062B6704772B62DE9F00F8D
:1002700005480168C1F800D049680160D1F800D094
:10028000BDE8F00F62B670475005002000F065BA77
:100290000948804709480047FEE7FEE7FEE7FEE71A
:1002A000FEE7FEE7FEE7FEE7FEE7FEE70448054956
:1002B000054A064B70470000111300089901000819
:1002C000800F002080150020801100208011002068
:1002D00070B50D460646041F00F016F90268BDB160
:1002E000DEB105F10B0020F00701A9423CBF002060
:1002F00070BD23688B4238BF506813D35A1A082A3E
:1003000036D3601840F8042B216000F077F92FE015
:10031000304600F073F9002070BD2846BDE87040FB
:1003200000F03DB9002818BFA0423CBF024640681B
:10033000F8D303EB040C84451CD1D0F800C063440F
:10034000994217D8A3EB010CBCF1080F0DD3D0F8DC
:1003500004C06318C3F804C0D4F800C00068604447
:10036000401A18602160536002E0236040685060CA
:10037000201D70BD284600F012F9050008D0314656
:100380002068021F284600F075F9201D00F036F99C
:10039000284670BD0EB5054614460E4613A000F063
:1003A0005FF9284600F05CF916A000F059F93046D4
:1003B00000F056F915A000F053F900218DF80B104C
:1003C0000A210DF10A008DF80A1008E094FBF1F201
:1003D00001FB124294FBF1F4303200F8012D002CA5
:1003E000F4DC00F03DF900F030F900002A2A2A2060
:1003F000617373657274696F6E206661696C6564A0
:100400003A2000002C2066696C6520002C206C6965
:100410006E65200010B5431C02E010F8011B71B19D
:100420008107FAD14FF0013202C88C1A8C4314EACA
:10043000C211F9D0C01A0A0603D0C01E10BDC01ADE
:1004400010BD0A0401D0801E10BD0902FCD0401E60
:1004500010BD032A40F2308010F0030C00F015802C
:1004600011F8013BBCF1020F624498BF11F801CBB7
:1004700000F8013B38BF11F8013BA2F1040298BF1C
:1004800000F801CB38BF00F8013B11F0030300F086
:10049000F180083AC0F0088051F8043B083A51F85E
:1004A00004CBA0E80810F5E7121D5CBF51F8043B2F
:1004B00040F8043BAFF30080D20724BF11F8013BA2
:1004C00011F801CB48BF11F8012B24BF00F8013B04
:1004D00000F801CB48BF00F8012B70477047704708
:1004E0007047000070B5064C7C44064D7D4404E026
:1004F0002046016808448047241DAC42F8D170BDF5
:100500001446000014460000004870471800002000
:10051000704770477047704738B504460A46002058
:100520006946AFF30080002808BF38BD0246009935
:10053000204600F0EAF8012038BD012000F006B99D
:10054000F8B5AFF30080054600200C46102000BF30
:100550000646A819A0420DD9324669460020AFF3DD
:100560000080070008BF00F0F1F80098A04218BF13
:100570000546C419FFF7C8FF05600746F01D20F0C7
:1005800007004619284600F0B9F8B44208BFF8BD84
:10059000A21B31463868BDE8F84000F0B6B870B527
:1005A0000646FFF7B1FF056806F10B0020F00704CF
:1005B000B4429CBF002070BD2B466A68BAB1106877
:1005C000A04210D304F1080188423CBF5068586033
:1005D00007D35168101941601168091B0160586008
:1005E0001460101D70BD13465268002AE7D12146E1
:1005F0002846FFF791FF0028DED170BD70B5044694
:10060000051FFFF781FF0068002C14BF446870BD10
:10061000002C18BFAC423CBF20466468F8D3016888
:100620000A18AA4218BF456003D12A68054611443A
:10063000016028684119A1421CBF6C6070BD6168EF
:10064000696021680844286070BD10B5002000F082
:1006500076F8FFF7E9FDBDE81040012000F044B84E
:1006600010B5044602E0641C00F036F8207800283B
:10067000F9D110BD10B5203AC0F00B80B1E8185088
:10068000A0E81850B1E81850A0E81850203ABFF47C
:10069000F5AF5FEA027C24BFB1E81850A0E818501B
:1006A00044BF18C918C0BDE810405FEA827C24BF6F
:1006B00051F8043B40F8043B08BF7047D20728BFFD
:1006C00031F8023B48BF11F8012B28BF20F8023B4C
:1006D00048BF00F8012B704708B569468DF8000047
:1006E0000320ABBE08BD000001491820ABBEFEE7E9
:1006F0002600020000487047100000200021016021
:10070000C0E90110704710207047034640688C46CE
:10071000002818BF88423CBF03464068F8D31868D9
:100720001844884207D00CF1030020F00700001D98
:10073000411A521A0146081D0A60FFF75FBF10B543
:1007400000F0D2F8BDE8104000F0C8B810B500F0D5
:10075000E3F8BDE8104000F0C1B82DE9FE4F0027D6
:100760004FF48074BA4620468DF80070FFF717FFEB
:100770005FEA000801D1FFF7E9FF2146404600F09B
:1007800070F8060009D04FF0010B4546C14616F837
:10079000014B8FB15C2C16D01CE008F108004146DB
:1007A000C8F800000020C8F80400D8F80040207005
:1007B000012003B0BDE8F08F222C01D0272C0FD1EF
:1007C0002746BA462CE03078222807D05C2805D08E
:1007D000272803D0BC4203D1002721E0761C044621
:1007E0004CB12FB9202C06D0A4F10900042802D95D
:1007F00005F8014BCBE74D4502D1BAF1000F0FD000
:1008000052464946002005F8010B6846AFF30080C8
:100810009DF8000068B14D464FF0000A0BF1010B46
:10082000002CB4D14FEA8B00FFF7B9FE040002D0D0
:1008300004E0A946F0E70020FFF788FF00264046C5
:10084000C4F8008005E010F8011B11B9761C44F8CB
:100850002600A842F7D32146002044F8260030465F
:10086000A7E71CB50446CDE9000169461520ABBEDB
:1008700008B100201CBD20461CBD70477546FFF71F
:1008800039FFAE4605006946534620F0070085460D
:1008900018B020B5FFF70AFDBDE820404FF0000674
:1008A0004FF000074FF000084FF0000BAC46ACE8EB
:1008B000C009ACE8C009ACE8C009ACE8C00921F047
:1008C00007018D4670477047704710B50446AFF377
:1008D00000802046BDE81040FFF7B1BC002801D0E1
:1008E000FFF702BF7047000010B5002102A000F022
:1008F0003BF8012010BD0000534947414252543A91
:100900002041626E6F726D616C207465726D696EEC
:100910006174696F6E00000010B5012805D00021D8
:1009200003A000F021F8012010BD09A1F8E70000A4
:1009300053494752544D454D3A204F7574206F66C8
:100940002068656170206D656D6F72790000000030
:100950003A2048656170206D656D6F727920636F14
:10096000727275707465640070B505460C460A2095
:1009700000E06D1CFFF7B0FE35B128780028F8D1F3
:1009800002E0641CFFF7A8FE14B120780028F8D11B
:10099000BDE870400A20FFF79FBE000084B00390BE
:1009A000039840F2E731C0F20101884205D8FFE721
:1009B0000398002801D3FFE70AE044F6AA20C0F616
:1009C000000044F6D521C0F60001A522FFF7E2FCA5
:1009D0000398002140F2E732C0F2010290420291F6
:1009E00003D8FFE701200290FFE702980399B1F5D1
:1009F000803F04D3FFE74FF6FF7001900CE00398AF
:100A0000002803D2FFE70020009002E00398009046
:100A1000FFE700980190FFE7019804B070470000DD
:100A200080B582B0019000910198FFF7B7FF019067
:100A30000098FFF7B3FF00903420C4F200000021BB
:100A4000016001983822C4F2000210603C20C4F218
:100A50000000016000984021C4F20001086002B06B
:100A600080BD000080B582B0019000910198FFF731
:100A700095FF01900098FFF791FF009001983421B5
:100A8000C4F2000108603820C4F2000000210160B7
:100A900000983C22C4F2000210604020C4F2000022
:100AA000016002B080BD000080B582B0019000916D
:100AB00001A8694602F006FD0198006800990968DE
:100AC000884240F0F780FFE7019800680021C4F2F7
:100AD0000101884209D1FFE743F64400C4F2020055
:100AE000016841F0010101600FE001980068B0F178
:100AF000804F09D1FFE743F64000C4F202000168CD
:100B000041F001010160FFE7FFE701984068002123
:100B1000C4F20201884208D0FFE700984068002133
:100B2000C4F20201884209D1FFE743F63000C4F263
:100B30000200016841F0010101601BE0019840687A
:100B400040F20041C4F20201884209D0FFE7009858
:100B5000406840F20041C4F20201884209D1FFE737
:100B600043F63000C4F20200016841F00201016066
:100B7000FFE7FFE70198416880684000032202FA1E
:100B800000F00B6823EA0000086001984168806863
:100B90004000022303FA00F0D1F800C040EA0C0044
:100BA00008600198416880684FEAD00CA0EBCC0047
:100BB00080004FF0010E0EFA00F001EB8C01D1F82D
:100BC00020C040EA0C00086200984168806840003C
:100BD00002FA00F00A6822EA000008600098416802
:100BE0008068400003FA00F00A681043086000982B
:100BF00041688068C208A0EBC20080000EFA00F0D5
:100C000001EB82010A6A1043086201980068002122
:100C10004162019802680069D0620198427B0068D5
:100C200082620198006841630198006881630198BD
:100C30000068016841F08001016001980068016866
:100C400021F0100101600198007B012813D1FFE71A
:100C500001980068816921F00301816101980068B1
:100C6000816941F06001816101980068016A41F089
:100C700001010162FFE70098007B022813D1FFE722
:100C800000980068816921F44071816100980068D2
:100C9000816941F4C041816100980068016A41F0B6
:100CA00010010162FFE701980068016841F001014D
:100CB00001603CE1019800680021C4F20101884212
:100CC00009D1FFE743F64400C4F20200016841F095
:100CD000010101600FE001980068B0F1804F09D177
:100CE000FFE743F64000C4F20200016841F0010151
:100CF0000160FFE7FFE7009800680021C4F20101EE
:100D0000884209D1FFE743F64400C4F202000168BB
:100D100041F0010101600FE000980068B0F1804FE0
:100D200009D1FFE743F64000C4F20200016841F038
:100D300001010160FFE7FFE7019840680021C4F26C
:100D40000201884208D0FFE7009840680021C4F201
:100D50000201884209D1FFE743F63000C4F20200E5
:100D6000016841F0010101601BE00198406840F218
:100D70000041C4F20201884209D0FFE700984068B0
:100D800040F20041C4F20201884209D1FFE743F674
:100D90003000C4F20200016841F002010160FFE787
:100DA000FFE70198416880684000032202FA00F0E2
:100DB0000B6823EA000008600198416880684000E1
:100DC000022303FA00F0D1F800C040EA0C000860EA
:100DD0000198416880684FEAD00CA0EBCC008000FD
:100DE0004FF0010E0EFA00F001EB8C01D1F820C09B
:100DF00040EA0C000862009841688068400002FAEE
:100E000000F00A6822EA00000860009841688068E3
:100E1000400003FA00F00A68104308600098416837
:100E20008068C208A0EBC20080000EFA00F001EB5F
:100E300082010A6A10430862019800680021416239
:100E4000019802680069D0620198427B0068826262
:100E50000198006841630198006881630198006807
:100E6000016841F08001016001980068016821F08B
:100E7000100101600198007B012813D1FFE7019860
:100E80000068816921F0030181610198006881692E
:100E900041F06001816101980068016A41F001013F
:100EA0000162FFE700980068002141620198006933
:100EB000009A1268D0620198407B009A1268906292
:100EC000009800684163009800688163009800689A
:100ED000016841F08001016000980068016821F01C
:100EE000100101600098007B022813D1FFE70098F1
:100EF0000068816921F4407181610098006881690E
:100F000041F4C041816100980068016A41F010011C
:100F10000162FFE701980068016841F0010101608A
:100F200000980068016841F001010160FFE702B02C
:100F300080BD000082B0019000913420C4F2000016
:100F4000002101603820C4F2000001603C20C4F29E
:100F5000000001604020C4F20000016002B0704750
:100F600080B582B0019000910198FFF717FD0190C4
:100F70000098FFF713FD009001983421C4F200019E
:100F800008603820C4F20000002101603C20C4F257
:100F90000000016000984021C4F20001086002B026
:100FA00080BD000082B00A460190ADF8021046F202
:100FB0008800C4F20200016821F0010101600168AB
:100FC00021F0C0010160016841F4806101600168A5
:100FD00041F400710160016841F400310160016871
:100FE00041F480410160016841F480510160019940
:100FF00046F29403C4F202031960BDF8021046F2EF
:101000008C03C4F20203196046F29001C4F202019B
:1010100044F20443C4F200030B60016841F0010193
:10102000016002B07047000082B00A460190ADF83E
:10103000021046F2A000C4F20200016821F0010192
:101040000160016821F0C0010160016841F4806124
:101050000160016841F400710160016841F4807130
:101060000160016841F400310160016841F4804190
:101070000160016841F480510160019946F2AC03BE
:10108000C4F202031960BDF8021046F2A403C4F2D0
:101090000203196046F2A801C4F2020144F20443BB
:1010A000C4F200030B60016841F00101016002B06D
:1010B0007047000040F60000C4F20200016821F40D
:1010C00040510160016821F44031016040F60C009C
:1010D000C4F20200016821F440510160016821F46A
:1010E000405101607047000080B584B002F01AFDE5
:1010F00003900398B0FA80F0400940F20001C2F278
:1011000000010860086801281DD1FFE740F6E06093
:10111000C2F20000006847F6FF71884206D1FFE77F
:1011200048F20000CFF6FF70029009E040F6E06060
:10113000C2F20000016801310A4601600292FFE735
:101140000298019019E040F6E060C2F200000068E9
:1011500010F5004F04D1FFE747F6FF70009009E05B
:1011600040F6E060C2F20000016801390A46016001
:101170000092FFE700980190FFE7019840F6E061D8
:10118000C2F200010860086840F29C51C2F20001FE
:10119000888004B080BD000080B584B002F0CEFC31
:1011A00003900398B0FA80F0400940F20401C2F2C3
:1011B00000010860086801281DD1FFE740F6E460DF
:1011C000C2F20000006847F6FF71884206D1FFE7CF
:1011D00048F20000CFF6FF70029009E040F6E460AC
:1011E000C2F20000016801310A4601600292FFE785
:1011F0000298019019E040F6E060C2F20000006839
:1012000010F5004F04D1FFE747F6FF70009009E0AA
:1012100040F6E460C2F20000016801390A4601604C
:101220000092FFE700980190FFE7019840F6E46123
:10123000C2F200010860086840F63471C2F2000191
:10124000888004B080BD000043F60000C4F20200B4
:10125000016841F480310160FFE743F60000C4F209
:10126000020000688003002801D4FFE7F5E743F699
:101270000400C4F2020000210160016841F4800111
:101280000160016841F008010160016841F41051FA
:101290000160016841F48031016043F60000C4F24E
:1012A0000200016841F080710160FFE743F6000031
:1012B000C4F2020000688001002801D4FFE7F5E7CE
:1012C00043F60800C4F20200016841F00201016027
:1012D000FFE743F60800C4F20200006800F00C00CB
:1012E000082801D0FFE7F4E743F60800C4F2020043
:1012F00001680160016841F4A0510160016841F496
:10130000004101607047000080B500F01FF880BD0B
:101310004EF68850CEF20000016841F47001016081
:101320007047000005480649016006484FF000017B
:10133000016005484FF007010160704714E000E0CC
:10134000FFA14A0418E000E010E000E040F20800CD
:10135000C2F20000006840F25C51C2F200010A686B
:10136000104408607047000080B502F05DF802F09C
:1013700063F802F069F802F06FF802F075F802F015
:101380007BF802F08BF880BD80B5A2B019908DED8E
:10139000160B8DED141B40F60070C2F2000090EDAC
:1013A000000B8DED1A0B1A981B999FEDC30B53EC94
:1013B000102BDB0F63F3DF7141EC100B40F2285070
:1013C000C2F20000006813928DED100B02F0F9FEDE
:1013D00041EC100B9DED101B51EC110B53EC102B3D
:1013E00003F0C1F9002808D1FFE740F22850C2F20B
:1013F0000000006801300F903BE040F60070C2F240
:10140000000090ED000B8DED200B209821999FEDB1
:10141000AA0B53EC102BDB0F63F3DF7141EC100BC5
:1014200040F22850C2F2000000680E928DED0C0BC5
:1014300002F0C7FE41EC100B9DED0C1B51EC110BA3
:1014400053EC102B03F088F9002808D1FFE740F295
:101450002850C2F20000006801380B9006E040F20C
:101460002850C2F2000000680B90FFE70B980F9025
:10147000FFE70F9840F22851C2F20001086040F6E1
:10148000F860C2F2000090ED000B8DED1E0B1E996E
:101490001F9A9FED890B5CEC103B4FEADC7C6CF3F0
:1014A000DF7242EC101B90ED001B51EC100B5CEC5A
:1014B000112B0A93634603F056F9002808D1FFE781
:1014C00040F22450C2F2000000680130099032E07E
:1014D00040F6F860C2F2000090ED000B8DED1C0BA1
:1014E0001C991D9A9FED740B5CEC103B4FEADC7C61
:1014F0006CF3DF7242EC101B90ED001B51EC100BF3
:101500005CEC112B0893634603F026F9002808D100
:10151000FFE740F22450C2F2000000680138079053
:1015200006E040F22450C2F2000000680790FFE796
:1015300007980990FFE7099840F22451C2F2000190
:1015400008600868B0F5807F03DBFFE7FF200690A6
:1015500006E040F22450C2F2000000680690FFE767
:10156000069840F22451C2F20001086040F228506F
:10157000C2F200000068B0F5807F03DBFFE7FF20C8
:10158000059006E040F22850C2F200000068059085
:10159000FFE7059840F22851C2F20001086040F2CE
:1015A0002450C2F200000068B0F1FF3F03DCFFE707
:1015B0000020049006E040F22450C2F200000068CF
:1015C0000490FFE7049840F22451C2F20001086041
:1015D00040F22850C2F200000068B0F1FF3F03DC87
:1015E000FFE70020039006E040F22850C2F200001E
:1015F00000680390FFE7039840F22851C2F200010F
:10160000086040F22450C2F20000006800EB0020A5
:1016100040F60872C2F200021060086800EB002079
:1016200040F60C71C2F200010860199801380146B9
:101630000328029138D80299DFE801F002291C0F33
:1016400040F60870C2F20000006840F60C71C2F269
:1016500000010968FFF706FA2CE040F60870C2F2B4
:101660000000006840F60C71C2F200010968FFF743
:10167000D7F91FE040F60870C2F20000006840F69B
:101680000C71C2F200010968FFF76AFC12E040F633
:101690000870C2F20000006840F60C71C2F200014E
:1016A0000968FFF7BDF905E0002001900199FFF7F7
:1016B00041FCFFE722B080BD0000000000000000F8
:1016C00080B586B040F29C50C2F20000B0F9040030
:1016D00040F22C51C2F200010968401A4FF6FF7126
:1016E000084448F20101C8F2000151FB0001CA138D
:1016F00002EBD171C1EB0141401A0590059842F20D
:101700001171884206DBFFE705984FF6FF71401A1A
:101710000590FFE7059802F054FD41EC100B9FED9A
:101720003E1B53EC112B51EC100B02F087FB41ECEC
:10173000100B8DED020B01F0EBFE02F059FD41ECB8
:10174000100B40F23050C2F2000090ED001B53EC41
:10175000112B5CEC101B01900846614602F0D2FE92
:1017600041EC100B9DED021B51EC110B53EC102BB7
:1017700002F064FB41EC100B40F66070C2F2000016
:1017800080ED000B90ED000B9FED251B53EC112B12
:1017900051EC100B02F0B8FD41EC100B51EC100BAA
:1017A0009FED210B53EC102B02F048FB41EC100B8A
:1017B00051EC100B9FED1E0B53EC102B02F03EFB77
:1017C00041EC100B51EC100B02F052FA40F2A45114
:1017D000C2F20001086091ED002ABDEEC22A12EEAD
:1017E000100A40F27851C2F20001888040F29C5009
:1017F000C2F20000B0F9040040F22C51C2F2000124
:10180000086001F085FE02F0F3FC41EC100B01983A
:1018100080ED000B06B080BD0000000080A9C34031
:1018200000000000004CDD40000000000000084007
:10183000C3F5285C8FC2A53F80B586B040F63470F2
:10184000C2F20000B0F9040040F23851C2F20001C7
:101850000968401A4FF6FF71084448F20101C8F2C6
:10186000000151FB0001CA1302EBD171C1EB014130
:10187000401A0590059842F21171884206DBFFE795
:1018800005984FF6FF71401A0590FFE7059802F0A2
:1018900098FC41EC100B9FED3E1B53EC112B51ECCF
:1018A000100B02F0CBFA41EC100B8DED020B01F0A6
:1018B0002FFE02F09DFC41EC100B40F24050C2F2B2
:1018C000000090ED001B53EC112B5CEC101B019001
:1018D0000846614602F016FE41EC100B9DED021B1E
:1018E00051EC110B53EC102B02F0A8FA41EC100B49
:1018F00040F66870C2F2000080ED000B90ED000B26
:101900009FED251B53EC112B51EC100B02F0FCFC4E
:1019100041EC100B51EC100B9FED210B53EC102BF5
:1019200002F08CFA41EC100B51EC100B9FED1E0BEA
:1019300053EC102B02F082FA41EC100B51EC100B1F
:1019400002F096F940F63C71C2F20001086091ED98
:10195000002ABDEEC22A12EE100A40F61071C2F241
:101960000001888040F63470C2F20000B0F9040033
:1019700040F23851C2F20001086001F0C9FD02F0E6
:1019800037FC41EC100B019880ED000B06B080BDD8
:101990000000000080A9C34000000000004CDD40B2
:1019A0000000000000000840C3F5285C8FC2A53F7E
:1019B00080B582B0019040F26450C2F20000012173
:1019C00001600198B0F9040002F0FBFB41EC100B40
:1019D00040F67070C2F2000080ED000B01F098FD3F
:1019E00044F6D351C1F26201A0FB010189090090C4
:1019F000084602F0FDFB41EC100B40F27050C2F2C1
:101A0000000080ED000B02B080BD000080B582B008
:101A100001900198B0F9040002F0D3FB41EC100BE7
:101A200040F67870C2F2000080ED000B40F2685082
:101A3000C2F200000121016001F06AFD44F6D351B9
:101A4000C1F26201A0FB010189090090084602F081
:101A5000CFFB41EC100B40F27050C2F2000080ED61
:101A6000000B02B080BD000080B584B002A80190D8
:101A700001F06AFA0198FFF79BFF04B080BD0000F7
:101A800080B584B002A8019001F05EFA0198FFF7DA
:101A9000BDFF04B080BD000083B0019000910198AB
:101AA000012807DBFFE70098012803DBFFE701209F
:101AB000029048E00198012804DBFFE70098002825
:101AC00011D4FFE70198012804DBFFE70098002804
:101AD00009D0FFE70198002808D1FFE70098B0F18E
:101AE000FF3F03DCFFE7022002902CE00198B0F1F9
:101AF000FF3F04DCFFE70098002811DCFFE70198B6
:101B0000002804D1FFE70098002809DCFFE70198CE
:101B1000B0F1FF3F07DCFFE70098002803D1FFE7A3
:101B2000032002900FE00198B0F1FF3F08DCFFE7CF
:101B30000098B0F1FF3F03DCFFE70420029002E0D1
:101B400000200290FFE7029803B0704781B0009038
:101B500046F28C00C4F202000068C0F500706FF31A
:101B60005F2001B07047000080B582B001900198FD
:101B70004FF40071FFF716FA02B080BD80B582B055
:101B800001900198FFF7F0FF02B080BD80B584B0EE
:101B9000039003984FF0FF310291D0F800120190AA
:101BA0000091FFF7D3FF009981420FD0FFE7019822
:101BB000D0F800124A1CC0F80022415C0291D0F813
:101BC00000126FF35F21C0F80012FFE7029804B023
:101BD00080BD000080B582B0019001F099FC02B098
:101BE00080BD000080B584B00390039840F2485156
:101BF000C2F200010978C9070029019044D1FFE72A
:101C000040F24850C2F20000012101700198D0F862
:101C10000414D0F8082491422FD0FFE70198D0F89F
:101C20000414D0F808248A4208D2FFE70198D0F8BB
:101C30000414D0F80824891A009106E00198D0F81D
:101C40000814C1F500710091FFE70098ADF80A0093
:101C50000198D0F80814014401F50170BDF80A108C
:101C6000FFF7E2F90198D0F80814BDF80A201144F2
:101C70006FF35F21C0F80814FFE740F24850C2F24A
:101C8000000000210170FFE704B080BD80B588B07E
:101C90000790069105920798059904910499B1F56A
:101CA000007F029003DCFFE70498019003E04FF40B
:101CB00000700190FFE70198049004980299D1F810
:101CC0000424C2F50072904203D8FFE70498009004
:101CD00006E00298D0F80414C1F500710091FFE706
:101CE000009803900298D0F80414014401F50170A3
:101CF0000699039AFEF7ADFB0299D1F80424049BE0
:101D00001A446FF35F22C1F80424049A039B9A4299
:101D10000BD0FFE7029800F501700699039A114471
:101D2000049B9A1AFEF795FBFFE70298FFF75AFF0C
:101D300008B080BD81B0009000980021C0F800126A
:101D4000C0F80414C0F8081401B0704780B58EB014
:101D50000D900C910D9800210B910C990B9A895CB8
:101D60000A910C990B9A114449780A9A42EA012186
:101D70000A910C990B9A114489780A9A42EA014116
:101D80000A910C990B9A1144C9780A9A42EA0161A6
:101D90000A910B9904310B910A9942689142009083
:101DA00009D9FFE70098C0680A998900FEF790FA00
:101DB0000099C860FFE70A980099486000200990E0
:101DC000FFE7099800994A68904230D2FFE7002067
:101DD00008900C980B99405C0899084308900C985F
:101DE0000B9908444078089941EA002008900C9823
:101DF0000B9908448078089941EA004008900C98B3
:101E00000B990844C078089941EA00600890089846
:101E1000009988600B9804300B90C868099A8B6809
:101E200040F82230FFE7099801300990C9E70C9883
:101E30000B99405C07900C980B99084440780799DF
:101E400041EA002007900C980B9908448078079984
:101E500041EA004007900C980B990844C078079914
:101E600041EA006007900B9804300B9007980099A6
:101E70000A69904209D9FFE70098806907998900AB
:101E8000FEF726FA00998861FFE707980099086134
:101E900000200690FFE7069800990A69904230D228
:101EA000FFE7002005900C980B99405C05990843CA
:101EB00005900C980B9908444078059941EA002058
:101EC00005900C980B9908448078059941EA0040E8
:101ED00005900C980B990844C078059941EA006078
:101EE00005900598009948610B9804300B9088691B
:101EF000069A4B6940F82230FFE7069801300690B9
:101F0000C9E70C980B99405C04900C980B99084415
:101F10004078049941EA002004900C980B990844F9
:101F20008078049941EA004004900C980B99084489
:101F3000C078049941EA006004900B9804300B903B
:101F400004980099CA69904209D9FFE70098406A4D
:101F500004998900FEF7BCF900994862FFE70498EC
:101F60000099C86100200390FFE703980099CA69AF
:101F700090423AD2FFE70C980B99014402A800F076
:101F8000F3FE0B9804300B900B980190FFE701983B
:101F90000B99029A114488420BD2FFE70C980199E1
:101FA0004218405C02F8010CFFE7019801300190F3
:101FB000EDE70C980B99029A11440844002100F8AF
:101FC000011C0C980B99084401380099086202988A
:101FD0000B9A10440B90486A039A0B6A40F822301F
:101FE000FFE7039801300390BFE70B980EB080BD68
:101FF00081B0009044F60B20C0F6000001B070479D
:1020000081B0009044F65C00C0F6000001B070475B
:1020100080B582B001900198009000F0D9FE44F69E
:102020007800C0F600000830009908600020486081
:102030008860C860086148618861C8610862486258
:10204000084602B080BD000080B586B005900491BE
:102050000598002103910499039A895C0171039901
:10206000013103910499039A114402AA0090104689
:1020700000F07AFE03980430039003980190FFE784
:1020800001980399029A114488420BD2FFE7049801
:1020900001994218405C02F8010CFFE701980130F9
:1020A0000190EDE704980399029A11440844002135
:1020B00000F8011C049803990844013800998860CD
:1020C0000298039A10440390039806B080BD000064
:1020D00081B0009044F6BA10C0F6000001B070471D
:1020E00081B0009044F65B20C0F6000001B070475C
:1020F00080B582B001900198009000F069FE44F62E
:102100009000C0F6000008300099086000200871B7
:1021100044F6A920C0F600008860084602B080BDE1
:1021200080B58CB00B900A910B98002109910A9907
:10213000099A895C81800A99099A114449788288B0
:1021400042EA012181800999023109910A99099A8B
:10215000114408AA0190104600F006FE09980430C8
:10216000099009980790FFE707980999089A114480
:1021700088420BD2FFE70A9807994218405C02F8A0
:10218000010CFFE7079801300790EDE70A980999DD
:10219000089A11440844002100F8011C0A98099982
:1021A00008440138019988600898099A10440990F8
:1021B0000A98099A811806A800F0D6FD09980430FB
:1021C000099009980590FFE705980999069A114426
:1021D00088420BD2FFE70A9805994218405C02F842
:1021E000010CFFE7059801300590EDE70A98099981
:1021F000069A11440844002100F8011C0A98099924
:10220000084401380199C8600698099A1044099059
:102210000A98099A811804A800F0A6FD09980430CC
:10222000099009980390FFE703980999049A1144CB
:1022300088420BD2FFE70A9803994218405C02F8E3
:10224000010CFFE7039801300390EDE70A98099924
:10225000049A11440844002100F8011C0A98099AC4
:1022600010440138019A10610498099B18440990A0
:1022700002910A980999405C0299084302900A98D1
:10228000099908444078029941EA002002900A988E
:10229000099908448078029941EA004002900A981E
:1022A00009990844C078029941EA006002900298B6
:1022B000506109980430099009980CB080BD000065
:1022C00081B0009044F69910C0F6000001B070474C
:1022D00081B0009044F66E20C0F6000001B0704757
:1022E00080B582B001900198009000F071FD44F635
:1022F000A800C0F60000083000990860002088801F
:1023000044F6A922C0F600028A60CA600A614861E8
:10231000084602B080BD000080B582B001900198EF
:102320000C3000F009FE02B080BD000081B00090CA
:102330000098806901B0704780B586B0059004911F
:10234000059800F10C01049A039008460291114689
:1023500000F0C6FD03994A69029B01901846904718
:1023600006B080BD80B582B0019001980C3000F0BD
:10237000DBFD02B080BD000080B586B00590049101
:10238000039202930598019000F0BAFC44F6C00055
:10239000C0F6000008300199086001F10C0000F05F
:1023A000D3FD039801994861029888610498886078
:1023B000084606B080BD000080B590B00F900F9821
:1023C00009A907900846FFF78BFF00200890FFE758
:1023D0000898182844DCFFE70898079901EB80006B
:1023E000D0F82008002836D0FFE7079800F50261F2
:1023F000089A51F822209268ADF82820089A51F8DE
:10240000222012680B92089A51F822205268136811
:102410009B681046069198470C900898069951F8C9
:10242000200040680268D26890470D904FF4007019
:102430000E900898069951F8200000F0DDFC0799ED
:102440000A68126809AB05900846059904921A4675
:10245000049B9847FFE7FFE7089801300890B7E72B
:1024600000200890FFE70898182843DCFFE7089849
:10247000079901EB8000D0F88408002835D0FFE7E9
:10248000079800F68401089A51F822205268ADF8A6
:102490002820089A51F8222092680B92089A51F845
:1024A000222013689B681046039198470C90089867
:1024B000039951F820000268D26890470D904FF4BC
:1024C00000700E900898039951F820000268526835
:1024D000904707990A68126809AB0290084602996A
:1024E00001921A46019B9847FFE7FFE708980130E1
:1024F0000890B8E70120079981F8FC0810B080BD6A
:1025000080B588B00790079804A903900846029107
:1025100000F0D0FC0398016809680A220191114675
:10252000029A019B984703990A1D00901046FFF7F5
:1025300051FB0399C1F8100408B080BD80B58AB082
:102540000B4609908DF823100792099804A903906F
:10255000084602930191FFF7CBFD9DF823008DF80B
:1025600014000798069003980168096807220091F3
:102570001146019A009B98470AB080BDB0B586B05D
:10258000059004910598011D02900846FFF722FB73
:10259000039004980068039944F6D352C1F2620292
:1025A000A1FB02136FEA93131844029B03F2144C2D
:1025B000C3F8140404984068DDF80CE0AEFB022474
:1025C000A4094FF47A7504FB15EE43F609540EFB8B
:1025D00004FEA0EB8E104CF6002EC3F69A3E70441B
:1025E00003F5836EC3F818046046019171460092AA
:1025F00000F09EFB06B0B0BD80B588B00690059196
:10260000049206980599642900900ADBFFE7009878
:1026100090F8FC18C907002903D1FFE700200790B4
:1026200063E00498009901F22761026812689047FC
:102630000390FF20009981F82006FE2081F82106F2
:10264000039881F822060398000A81F8230691F87E
:10265000220691F823261044C04381F824060598E9
:1026600081F825060598000A81F8260600200290C8
:1026700005200190FFE701980399073188420DDAA0
:10268000FFE701980099084490F82006029A104448
:102690000290FFE7019801300190ECE703980730C2
:1026A00003900298C0430399009A53180131039193
:1026B00083F820060398B0F5007F0BDCFFE7009855
:1026C0000430009901F5C461039AFFF7DFFA03981B
:1026D00007900AE044F66011C0F60001009800F08F
:1026E0001DF84FF0FF300790FFE7079808B080BD56
:1026F00080B582B001900198011D00900846FFF757
:102700003DFA00200099C1F8E808C1F8EC08C1F8CA
:10271000F408C1F8F00802B080BD000080B582B0B6
:10272000019000910198009A0321FFF707FF02B082
:1027300080BD000080B586B004900498011D019012
:102740000846FFF747FA039003980199D1F8042946
:10275000801A42F6F922904205D3FFE70020019942
:1027600081F8FC08FFE70198D0F8E81800290DD09F
:10277000FFE703980199D1F80829904205D9FFE7AE
:1027800000200199C1F8E808FFE7FFE7FFE701989B
:10279000D0F81C14002911D0FFE701980430FFF78E
:1027A00019FA0399401A0199D1F81C24904204D9CE
:1027B000FFE76FF0010005908EE1FFE7019804301C
:1027C000FFF7E4F902900298B0F1FF3F01DCFFE768
:1027D00066E102980199D1F8F8281044C1F8F80888
:1027E000D1F8E80807281AD1FFE702980199D1F833
:1027F000F4288B180132C1F8F42883F82004D1F8AA
:10280000EC080138C1F8EC08D1F8EC08002805D133
:10281000FFE708200199C1F8E808FFE73FE10198C8
:10282000D0F8E818002924D1FFE70298FF280BD13F
:10283000FFE70198D0F8E8180131C0F8E8180399CB
:102840001431C0F8081913E001980430FFF7C2F9F9
:102850000399401A41F28931884208D3FFE70020EA
:10286000019981F8FC086FF00100059034E1FFE761
:1028700014E10198D0F8E81801291BD1FFE702986C
:10288000FE2807D1FFE70198D0F8E8180131C0F819
:10289000E8180EE000200199C1F8E80891F8FC085A
:1028A000C007002804D1FFE70198FFF729FEFFE7E2
:1028B000FFE7F2E00198D0F8E818022910D1FFE70D
:1028C00002980199C1F8EC080020C1F8F408D1F889
:1028D000E8080130C1F8E8080298C1F8F808DBE020
:1028E0000198D0F8E81803290ED1FFE70298019962
:1028F000D1F8EC2802EB0020C1F8EC08D1F8E80888
:102900000130C1F8E808C6E00198D0F8E8180429B9
:1029100019D1FFE70198D0F8F818CA1701EB126235
:1029200022F0FF02891AFF2907D1FFE70198D0F8AA
:10293000E8180131C0F8E81804E000200199C1F856
:10294000E808FFE7A6E00198D0F8E81805290DD1BE
:10295000FFE702980199C1F8F008D1F8E8080130C2
:10296000C1F8E8080298C1F8F80892E00198D0F898
:10297000E818062916D1FFE702980199D1F8F02846
:1029800002EB0020C1F8F0080720C1F8E808D1F8F0
:10299000EC08002805D1FFE708200199C1F8E808F4
:1029A000FFE775E00198D0F8E81808296FD1FFE734
:1029B00000200199C1F8E808D1F8F808C21700EB27
:1029C000126222F0FF02801AFF285FD1FFE7019810
:1029D000D0F8F018002911D1FFE70198FFF790FD1A
:1029E0000198FFF7E9FC03980199C1F800090398E1
:1029F000C1F804094FF0FF3005906DE00198D0F860
:102A0000F0180A2906D1FFE7019800F5846100F06B
:102A100067F839E00198D0F8F01806290DD1FFE7E2
:102A2000019800F51160019901F58461FFF78EF9B5
:102A30000121019A82F80C1925E00198D0F8F018CC
:102A40000B2905D1FFE70020019981F8FC0819E066
:102A50000198D0F8F01800EB8101D1F8F4160029A4
:102A60000FD0FFE70198D0F8F01800EB8101D1F802
:102A7000F41600F584620B681B68084611469847F7
:102A8000FFE7FFE7FFE7FFE7FFE7FFE7FFE7FFE716
:102A9000FFE7FFE7FFE7FFE7FFE7FFE7FFE776E690
:102AA000019890F8FC18C907002912D0FFE7039895
:102AB0000199D1F80029801A40F6C512904208D336
:102AC000FFE70198FFF71CFD03980199C1F8000981
:102AD000FFE700200590FFE7059806B080BD0000E5
:102AE000B0B58CB00B900A910B9807A905900846D9
:102AF000049100F0DFF90598011D08460391FFF7E6
:102B000069F80599D1F81024801A06900A9904985A
:102B100000F078F9069944F6D352C1F26202A1FBA3
:102B20000213DDF810C00CF1040E089C04EB9313A3
:102B30000893069BA3FB0224A4094FF47A7504FBB7
:102B4000153343F609546343099C04EB831309933B
:102B5000059B02901846019171460092FFF70EFD09
:102B60000398FFF737F80599C1F804090CB0B0BD18
:102B700081B00090009890F8FC0800F0010001B0CE
:102B80007047000085B003900291039800210191E5
:102B90000090FFE7019818281DDCFFE701980099D5
:102BA00001EB8000D0F8840800280FD1FFE70298DD
:102BB0000199009A02EB8101C1F884080198643000
:102BC0000299486001208DF8130008E0FFE70198A2
:102BD00001300190DEE700208DF81300FFE79DF83B
:102BE000130005B07047000080B58CB00A900A98B9
:102BF0000B90099000F090F844F6D800C0F6000061
:102C0000083009990860081DFFF794F80020099919
:102C1000C1F81004C1F81404C1F81804C1F81C0468
:102C200081F8200401F2214001F5C4620892079066
:102C3000FFE70798002100F8011B0146089A90421F
:102C40000791F6D1FFE70020099981F8200601F2EB
:102C5000216001F5026206920590FFE705980021C8
:102C600000F8011B0146069A90420591F6D1FFE754
:102C700000200999C1F8200801F6240001F6840219
:102C800004920390FFE70398002140F8041B0146DB
:102C9000049A90420391F6D1FFE700200999C1F808
:102CA000840801F6880001F6E80202920190FFE72D
:102CB0000198002140F8041B0146029A90420191BC
:102CC000F6D1FFE700200999C1F8E808C1F8EC083F
:102CD000C1F8F008C1F8F408C1F8F80881F8FC0858
:102CE000C1F80009C1F80409C1F8080981F80C0904
:102CF00001F51160FFF78CF90B980CB080BD000056
:102D000081B00090009844F6EC01C0F60001083153
:102D1000016001B07047000081B00090009844F657
:102D20000411C0F600010831016001B070470000D5
:102D300082B001900091FFE7009800684CF60021F6
:102D4000C3F69A3188420DD3FFE70098016843F239
:102D50000062CCF2654211440160019801680131C2
:102D60000160E9E702B0704783B0029001910298D8
:102D7000002101600091FFE7009803280ED8FFE7CB
:102D800001980099405CC900884002990A68104384
:102D90000860FFE7009801300090EDE703B070474E
:102DA00083B00290019100200090FFE70098032873
:102DB0000BD8FFE701980099CA00D040029A5054FE
:102DC000FFE7009801300090F0E703B07047000083
:102DD00081B00090009844F61811C0F60001083147
:102DE000016001B07047000081B0009000980021A0
:102DF0000160416001B0704781B0009000980069A7
:102E000001B0704783B002900191029800210091B7
:102E10000199009A895C41600199009A11444978AE
:102E2000426842EA012141600199009A114489787F
:102E3000426842EA014141600199009A1144C9780F
:102E4000426842EA016141600099043100910199B0
:102E5000009A895C81600199009A114449788268DE
:102E600042EA012181600199009A114489788268BF
:102E700042EA014181600199009A1144C97882684F
:102E800042EA01618160009804300090009803B02C
:102E90007047000081B0009044F62C20C0F600007E
:102EA00001B0704781B0009044F64D20C0F600009C
:102EB00001B0704780B582B0019001980090FFF793
:102EC00087FF44F63010C0F600000830009941F842
:102ED000040B0846FFF788FF009802B080BD000091
:102EE00084B003900291039800210191ADF8001085
:102EF0000299019A895CBDF800201143ADF80010D9
:102F00000299019A11444978BDF8002042EA012152
:102F1000ADF80010BDF800108180019802300190DA
:102F2000019804B07047000081B0009044F6EA10A8
:102F3000C0F6000001B0704781B0009044F6DB108D
:102F4000C0F6000001B0704780B582B001900198D2
:102F50000090FFF73DFF44F64810C0F6000008302F
:102F60000099086000208880084602B080BD0000FB
:102F700080B58AB0099008910998002107914268AC
:102F8000089BDDF81CC003F80C204268120A089B5D
:102F9000DDF81CC063445A70C288089BDDF81CC071
:102FA00063449A70C279089BDDF81CC06344DA70F0
:102FB000079A0432079206910090FFE7069800995D
:102FC0004A68904224D2FFE70098C168069A51F8F7
:102FD000221005910599089A079BD1540599090A71
:102FE000089A079B1A445170BDF81610089A079B5F
:102FF0001A4491709DF81710089A079B1A44D170D3
:10300000079904310791FFE7069801300690D5E74C
:1030100000980169089A079BD1540169090A089A26
:10302000079B1A445170418A089A079B1A44917071
:10303000C17C089A079B1A44D17007990431079103
:1030400000210491FFE7049800990A69904224D274
:10305000FFE700988169049A51F8221003910399BF
:10306000089A079BD1540399090A089A079B1A44A6
:103070005170BDF80E10089A079B1A4491709DF884
:103080000F10089A079B1A44D170079904310791D1
:10309000FFE7049801300490D5E70098C169089AC9
:1030A000079BD154C169090A089A079B1A445170B9
:1030B000C18B089A079B1A449170C17F089A079B9D
:1030C0001A44D17007990431079100210291FFE75A
:1030D00002980099CA69904225D2FFE70098416A98
:1030E000029A51F82200FDF795F901900898079986
:1030F00008440199FFF754FE079804300790089898
:103100000799084400994A6A029B52F82310019AD1
:10311000FDF79FF90199079A11440791FFE702987B
:1031200001300290D4E707980AB080BD80B586B020
:10313000059004910598002103910179049A039B5D
:10314000D154039901310391816801900846FDF73C
:1031500061F902900498039908440299FFF720FE50
:1031600003980430039004980399084401998968EE
:10317000029AFDF76EF90299039A1144039103999B
:103180000090084606B080BD80B58CB00B900A91C7
:103190000B980021099181880A9A099BD1544179A1
:1031A0000A9A099B1A445170099902310991816860
:1031B00004900846FDF72EF908900A9809990844EA
:1031C0000899FFF7EDFD0998043009900A980999CC
:1031D000084404998968089AFDF73BF90899099A07
:1031E000114409910499CA6803901046FDF712F939
:1031F00007900A98099908440799FFF7D1FD0998A3
:10320000043009900A98099908440499C968079AF2
:10321000FDF71FF90799099A1144099104990A6960
:1032200002901046FDF7F6F806900A9809990844AE
:103230000699FFF7B5FD0998043009900A98099995
:10324000084404990969069AFDF703F90699099A51
:103250001144099104994A690592059A0A9BDDF87F
:1032600024C003F80C20059A120A0A9BDDF824C03A
:1032700063445A70BDF816200A9BDDF824C06344ED
:103280009A709DF817200A9BDDF824C06344DA7019
:10329000099A04320992099A019010460CB080BD37
:1032A00083B0029001910298002100914168019A37
:1032B000009BD1544168090A019A009B1A4451703D
:1032C000C188019A009B1A449170C179019A009BB0
:1032D0001A44D1700099043100918168019A009BD1
:1032E000D1548168090A019A009B1A44517041899E
:1032F000019A009B1A449170C07A0199009A114476
:10330000C870009804300090009803B07047000027
:1033100084B0039002910398002101918088ADF858
:103320000000BDF800000299019A88549DF8010040
:103330000299019A11444870019802300190019855
:1033400004B0704781B001468DF803009DF9030079
:1033500000280FD4FFE79DF9030000F01F010122B0
:1033600002FA01F140094EF20012CEF2000242F8D8
:103370002010FFE701B0704782B002468DF80700C9
:1033800000919DF9070000280AD4FFE7009800018A
:103390009DF907104EF20042CEF2000288540BE075
:1033A000009800019DF8071001F00F014EF614522D
:1033B000CEF200028854FFE702B0704782B00246A6
:1033C0008DF8070000919DF9070000280AD4FFE757
:1033D000009800019DF907104EF20042CEF2000263
:1033E00088540BE0009800019DF8071001F00F01D0
:1033F0004EF61452CEF200028854FFE702B0704736
:1034000001A000F05CF800BF50757265207669720B
:103410007475616C2066756E6374696F6E2063618C
:103420006C6C65642100000080B540F2A850C2F2C7
:103430000000FFF7D9FB80BD80B540F63470C2F2C2
:103440000000FFF781FD80BD80B540F29C50C2F2C4
:103450000000FFF779FD80BD80B540F27850C2F2E0
:103460000000FFF771FD80BD80B540F61070C2F21C
:103470000000FFF769FD80BD80B540F28050C2F2C8
:10348000000044F68721C0F6000141F6B112C0F6F3
:1034900000020123FEF770FF80BD000080B540F6FA
:1034A0001870C2F2000044F69821C0F6000141F6FF
:1034B0000D22C0F600020123FEF75EFF80BDFDF77E
:1034C000C4F8000082B0019000910198002801D05A
:1034D000FFE70AE044F6C720C0F6000044F6D52115
:1034E000C0F600012222FCF755FF0098002801D009
:1034F000FFE70AE044F6CE20C0F6000044F6D521EE
:10350000C0F600012322FCF745FF02B0704700001F
:1035100072B640F25C50C2F20000006840F26051A6
:10352000C2F20001086062B608687047000000003F
:1035300080B59AB0FFE740F2A850C2F20000FFF752
:10354000F9F80590FFF7E4FF40F24C51C2F2000198
:103550000860086840F6F061C2F200010968401A8C
:103560001F280FDBFFE740F24C50C2F2000000685A
:1035700040F6F061C2F200010860FEF75DF9FEF767
:103580009FF8FFE740F26450C2F200000068012893
:1035900040F0D581FFE740F26850C2F200000068B9
:1035A000012840F0CC81FFE7FFF7B2FF119011989E
:1035B00040F6EC61C2F200010968401A00EE100A00
:1035C000B8EEC00A9FEDE41A80EE010A8DED100AF4
:1035D00040F67070C2F2000090ED002B8DED122BC2
:1035E0009DED122B9FEDD63B51EC130BC90F53EC05
:1035F000122B61F3DF7343EC122B52EC121B04907D
:103600000846114600F034FB0F900020C4F2A000E1
:103610000E9000200D909DED0F0A40F2A450C2F2D2
:103620000000006814909DED141AB0EEC11A30EE3F
:10363000410A8DED0C0A40F25450C2F2000090EDA8
:10364000000A9DED0C1A9DED104A21EE041A30EE91
:10365000010A80ED000A9DED0E0A9DED0C1A20EE88
:10366000010A9DED0D1A90ED004A21EE041A30EE8C
:10367000010A8DED0B0A0B981590159820F000406B
:1036800001F02AF841EC120B40F6F860C2F200009B
:1036900080ED002B90ED002B9FEDAB3B53EC132BFB
:1036A00051EC120B01F05FF800280CD1FFE740F657
:1036B000F860C2F200004EF20001C4F26F014160F6
:1036C00000210160FFE740F67870C2F2000090ED43
:1036D000000B8DED180B9DED180B9FED991B51EC18
:1036E000110BC90F53EC102B61F3DF7343EC102B5C
:1036F00052EC101B03900846114600F0B9FA0A90EC
:103700000020C4F2A0000990002008909DED0A2A34
:1037100040F63C70C2F20000006817909DED173A29
:10372000B0EEC33A32EE432A8DED072A40F25850EC
:10373000C2F2000090ED002A9DED073A9DED104A7F
:1037400023EE043A32EE032A80ED002A9DED092A89
:103750009DED073A22EE032A9DED083A90ED004ACE
:1037600023EE043A32EE032A8DED062A06981690CF
:10377000169820F0004000F0AFFF41EC100B40F62F
:103780000070C2F2000080ED000B90ED000B9FED89
:103790006E1B53EC112B51EC100B00F0E4FF0028D2
:1037A0000CD1FFE740F60070C2F200004EF20001BB
:1037B000C4F26F01416000210160FFE740F67070C4
:1037C000C2F2000090ED000B51EC100B00F0CAFCAF
:1037D00040F67871C2F2000191ED000B52EC101B23
:1037E00002900846114600F0BDFC0299019008467F
:1037F0000199FEF751F940F64071C2F200010860EC
:10380000086800281AD1FFE700200B9040F6F86105
:10381000C2F200014860086040F25451C2F2000157
:103820000860069040F60071C2F20001486008602E
:1038300040F25851C2F200010860FFE740F6E8602C
:10384000C2F20000006840F64071C2F2000109684F
:10385000884224D0FFE740F64070C2F200000068C2
:1038600040F6E861C2F20001086000200B9040F6CB
:10387000F861C2F200014860086040F25451C2F29F
:1038800000010860069040F60071C2F20001486035
:10389000086040F25851C2F200010860FFE7FFF7EC
:1038A00037FE44F6D351C1F26201A0FB0101890940
:1038B0000090084600F09CFC41EC100B40F2705068
:1038C000C2F2000090ED001B51EC100B53EC112BD9
:1038D00000F018FE41EC100B51EC100B9FED1C0B8F
:1038E00053EC102B00F03FFF00280ED1FFE740F60D
:1038F000F860C2F2000000214160016040F60070F3
:10390000C2F2000041600160FFE740F64070C2F281
:103910000000006840F6F861C2F2000191ED000B72
:1039200040F60071C2F2000191ED001BFDF72CFD85
:10393000119840F6EC61C2F200010860FFE7FAE579
:1039400000000000000000000000000000E06F40E8
:10395000000000000000F03F00007A4480B582B013
:1039600000200190FDF770FC00F0F4F8FFE7FFF78E
:10397000DFFDFCE780B586B005900491039272B636
:1039800040F64470C2F2000000F10801416000F10D
:103990001001C160406100210290084600F05CF80F
:1039A000059840F27401C2F20001C1F888010120BB
:1039B0000190009100F050F804980099C1F81803A4
:1039C000022000F049F803980099C1F8A80440F2D9
:1039D0005050C2F20000029A026062B6019806B02E
:1039E00080BD000040F27000C2F2000041F64011BC
:1039F000C0F201010160704780B582B001904EF2C3
:103A00001000CEF20000002101604EF21802CEF24A
:103A100000021160019940F27002C2F200021268C5
:103A2000514301394EF21402CEF2000211604FF000
:103A3000FF310F22009008461146FFF7BFFC0098A7
:103A4000016841F005010160016841F00201016077
:103A5000FCF7FCFB02B080BD81B00090009840F202
:103A60007401C2F200014FF4C87200FB021303F5A7
:103A7000A87340F6447CC2F2000C4CF83030009839
:103A800000FB0210D0F88C3143F08073C0F88C3109
:103A9000009800FB02104FF0AA33C0F88431009860
:103AA00000FB0210C0F88031009800FB0210C0F843
:103AB0007C31009800FB0210C0F87831009800FBC0
:103AC0000210C0F87431009800FB0210C0F8703189
:103AD000009800FB0210C0F86C31009800FB021047
:103AE000C0F86831009800FB0210C0F864310098FB
:103AF00000FB0210C0F86031009800FB0210C0F813
:103B00005C31009800FB0210C0F85831009800FBAF
:103B10000210C0F85431009800FB0210C0F8503178
:103B200001B0704781B040F61000C4F20200006896
:103B3000C0F300200090009801B0704781B040F6BB
:103B40001000C4F202000068C0F3801000900098DA
:103B500001B0704710B58EB0FDF7E4FB44F63400B9
:103B6000C0F60000016842688368D0F80CC0D0F845
:103B700010E044690994CDF820E0CDF81CC006930C
:103B8000059204918169C269036A406A0D900C93A1
:103B90000B920A9104A800F11401FCF785FFFFF7CE
:103BA00021FF43F23150C0F6000041F66921C0F612
:103BB000000141F68122C0F60002FFF7DBFE0A2178
:103BC00003900846FFF718FF40F2A850C2F2000029
:103BD0000290FEF78DFD002001900199FDF7AAF9F2
:103BE000FDF768FA00F012F840F28051C2F20001CD
:103BF0000298FEF7C7FF40F61871C2F20001029A60
:103C000000901046FEF7BEFF0EB010BD80B586B026
:103C10004EF60850CEF20000059005984FF0005186
:103C20000160059800F5B0700490049841F2E90134
:103C3000C0F600010160059800F5B8700390039884
:103C400041F29911C0F60001016017200121029094
:103C5000FFF792FB282002210190FFF78DFB0198CE
:103C6000FFF770FB0298FFF76DFB06B080BD000008
:103C700021F0004201F00043A2F16052B2F5801F32
:103C800028BFD2F17F6C0BD95FEA001C43EAC20265
:103C900042EB507018BF704728BF20F001007047FA
:103CA000B2F5801FBCBF184670474FEA410C1CF5A7
:103CB000001F02D2084600F0B7BD70B500F0CEFB81
:103CC00000000089FFF7F6BF4FF00040A0F580002C
:103CD0007047000010B591EA030F48BF83F000431E
:103CE00000F11884841A71EB030C05D2121943EB0E
:103CF0000C03001B61EB0C014FEA1154A4EB135CA5
:103D0000DFF81CE11EEA430F18BF9EEA445F73D040
:103D100021EA045123EA0E0343F48013DCF1200E60
:103D200032D322FA0CFE10EB0E0023FA0CFE41EB0C
:103D30000E01CCF1200E03FA0EFE10EB0E00CCF1BA
:103D4000200E51F10001B1F5801F32D201EB045178
:103D500012FA0EF2BDE8104058BF7047401C38BF41
:103D60005FEA420218BF7047002814BF20F001002C
:103D700041F100014FEA410313F5001F38BF7047BE
:103D8000A1F1C04100F0B8BB012A43EB0302ACF142
:103D9000200CDCF11F0E32BF4FF0000E23FA0CF3A3
:103DA00010EB030041EB0451B4EB115FD0D0A1EB59
:103DB000045101F58011490801EB04515FEA30001C
:103DC0000ED350F1000038BF12FA0EFE08D1BDE844
:103DD0001040C9E7401C38BF5FEA4202CAD1C3E7BE
:103DE000BDE810404FEA410313F5001F38BF70478C
:103DF000A1F1C04100F080BB9EEA445F08D011EA07
:103E00005E0FBDE8104004BF01F000410020704784
:103E1000BDE8104070B500F021FB00BF64FBBE3E62
:103E20000000E0FF491058BFC1F140415B1058BF8E
:103E3000C3F140438B42EFF3008070472DE9C0414E
:103E400030B4DFF8A0C23CEA111418BF3CEA1314E6
:103E500000F0EC801CEA111481EA030544EAD574F1
:103E600018BF1CEA131500F0C780A4EB050404F189
:103E70007F7404F500344FF0004545EAC12145EA5E
:103E8000C32341EA505143EA52534FEAC0204FEA5C
:103E9000C222994208BF904200F09C804FEA13650D
:103EA0000FF24016765D4FEA134506FB05F7C7F1A2
:103EB000807706FB07F74FEAD737A7FB0368764200
:103EC000A7FB06CEC8F5803838BFA8F1010807FB6C
:103ED00008E6A6FB028C4FF0000EE6FB03CEDCF1F9
:103EE000000CCEF1004E38BFAEF1010EA6FB0C580F
:103EF0004FF00007E6FB0E87A1FB08C6A0FB07CE2C
:103F000016EB0E064FF0000545F10005E1FB0765D5
:103F100015F1E04E7EBFA4F580345FEA46066D41A0
:103F200016F1800745F100054FEA172747EA0567B4
:103F30004FEA15254FEA0666A6F1DE46B6F1805F28
:103F40001FD9384605EBC47124F0010C01EB0C11AC
:103F5000BCF1FE6F02D8F0BCBDE8008124425CBF1A
:103F600001F5801E9EEAC47F02D4F0BCBDE800814A
:103F7000244238D4A1F1C041F0BCBDE8004100F0BA
:103F8000BBBA4FEAD02040EA41504FEAD1214FEA74
:103F9000D22242EA43524FEAD323A7FB028607FB11
:103FA000036605FB02661EEA0E0F58BFA6EB00561D
:103FB000B6EB00564FEA520E4EEAC37E18EB0E0ED9
:103FC00056EB530EBDD518EB02085E417F1C55F130
:103FD0000005B6E74FF480154FF000074FF00006DC
:103FE0004FF00008ADE701F1C04101F000414FF092
:103FF0000000F0BCBDE800810CEA131511EA0C1FAB
:1040000000D00CE013EA0C1F00F025804FF00000F8
:1040100081EA030101F00041F0BCBDE80081F0BC81
:10402000BDE8004181EA030100F066BAF0BCBDE8DA
:10403000004170B500F012FA097EFC3E00F007B8AE
:104040004FF0000081EA030101F00041704781EA6E
:10405000030100F051BAF0BCBDE8004122494FF025
:1040600000007047FFFDFBF9F7F5F4F2F0EEEDEB21
:10407000E9E8E6E4E3E1E0DEDDDBDAD8D7D5D4D366
:10408000D1D0CFCDCCCBCAC8C7C6C5C4C2C1C0BFB2
:10409000BEBDBCBBBAB9B8B7B6B5B4B3B2B1B0AFB8
:1040A000AEADACABAAA9A8A8A7A6A5A4A3A3A2A19C
:1040B000A09F9F9E9D9C9C9B9A9999989797969557
:1040C00095949393929191908F8F8E8E8D8C8C8BF3
:1040D0008B8A89898888878786858584848383827B
:1040E000828181800000FF070000F87F51EA030C05
:1040F00017D41CF5801F58BFBCF5801F00F1068047
:10410000994218BF704708BF9042704707D711F512
:10411000801F58BF13F5801F19D4994270478942F8
:1041200070471CF5801F08D5BCF5801FF7D58B4262
:1041300018BF704708BF824270474FF4001C1CEB49
:10414000410F38BF1CEB430F01D28B42704770B553
:1041500000F084F9922449004FF000514FF0805351
:10416000FFF760BE4FEA41034FEA5353A3F5806364
:10417000D3F11E03C8BFD3F1210C0CDD4FF0004278
:1041800042EAC12242EA505232FA03FC8CEAE17C54
:10419000ACEBE1707047102BC4BF0020704703F5F3
:1041A000787CBCF1FF3F04D06FF0004282EA21002E
:1041B000704770B500F052F9499224800020704792
:1041C000F2E710F0004248BF4042B0FA80F310FA24
:1041D00003F10AD0C3F11D0303F5806302EB035220
:1041E0004FEA415002EBD12170474FF00000704779
:1041F000B0FA80F310FA03F10AD0C3F11D0303F5FE
:1042000080634FEA03524FEA415002EBD1217047DD
:104210004FF000007047000051EA030C17D41CF562
:10422000801F58BFBCF5801F00F10680994218BF5F
:10423000704708BF9042704707D711F5801F58BFDD
:1042400013F5801F19D499427047894270471CF5B5
:10425000801F08D5BCF5801FF7D58B4218BF70476B
:1042600008BF824270474FF4001C1CEB410F38BF5F
:104270001CEB430F01D28B42704770B500F0EEF893
:10428000922449004FF080514FF00053FFF7CABD10
:1042900051EA030C17D41CF5801F58BFBCF5801FD2
:1042A00000F10680994218BF704708BF90427047DE
:1042B00007D711F5801F58BF13F5801F19D49942F5
:1042C0007047894270471CF5801F08D5BCF5801FD8
:1042D000F7D58B4218BF704708BF824270474FF432
:1042E000001C1CEB410F38BF1CEB430F01D28B426B
:1042F000704770B500F0B2F8922449004FF00051B9
:104300004FF08053FFF78EBD70B5DFF848C11CEA4F
:10431000111E1EBF1CEA13159EEA0C0F95EA0C0F26
:1043200000F06F8081EA03044EEAD47EAE4421EAB5
:104330004C1123EA4C1341F4801143F48013AEF185
:104340007F7EA1FB024CA0FB0365361955EB0C05E3
:10435000A1FB034C4CF10003A0FB021C16EB0C0666
:10436000654153F10003094218BF46F0010613F4FA
:10437000007F0BD14FEA03314FEA053041EA155176
:1043800040EA165034036FF003020AE04FEAC321FB
:104390004FEAC52041EA555140EA5650F4026FF009
:1043A000020202EB2E4201EB025585EACE710AD0E1
:1043B0005FEA440C18BF24F0004450F1000041F1C2
:1043C000000120EAD47040F2FE7C624500D270BD4C
:1043D000A84214BF4FF080444FF04044002E08BF65
:1043E0000024BEF1806FA8BFA1F1C041BDE87040BC
:1043F00080F2828001F1C04101F000414FF00000E5
:1044000070470CEA13159EEA0C0F18BF95EA0C0FC3
:1044100006D081EA030E4FF000000EF0004170BD9F
:1044200000F01CF88900013E00F007B800F009B860
:104430004FEA430C5FEA5C5C08D081EA030100F0BC
:104440005BB84FEA410C5FEA5C5CF6D102494FF081
:10445000000070470000FF070000F87F0EF1020E19
:104460002EF0030E5EF8046B364205D4012A43EBAE
:10447000030515F5001F12D8012841EB010C1CF5AE
:10448000001F0CD80ED14FEAD17C0CEB4C0C0CF178
:10449000020C15F5001F08BF4CEBD37C04E04FF075
:1044A000080C01E04FEAD37C0CEB4C0526FA05F62C
:1044B00006F00706B6F1040C06D20EEB860CBDE83A
:1044C00070404CF0010C6047DFE80CF0090B020271
:1044D0004FF00041A1F500214FF0000070BD1946DA
:1044E0001046012851EB010418BFD4F5001484BF15
:1044F000002001F0004170BD0808A0F500114FEA4E
:104500003101704710B591EA030F48BF83F00043B3
:104510003FF5E8AB841A71EB030C07D28CF0004C2A
:10452000121943EB0C03001B61EB0C014FEA115411
:10453000A4EB135CDFF89CE11EEA430F18BF9EEA70
:10454000445F00F0B08021EA045123EA6E03524236
:10455000C3EB6E0338BF5B1EDCF1200E25D322FABD
:104560000CFE10EB0E0043FA0CFE41EB0E01CCF1F9
:10457000200E03FA0EFE10EB0E00CCF1200E51F1CE
:10458000000129D401EB045112FA0EF2BDE81040EB
:1045900058BF7047401C1CBFB2F1004F7047002845
:1045A0000CBF491C20F00100704712EB020E43EBD8
:1045B000030218BF4FF0010E4EEA4202ACF1200C8C
:1045C000DCF11E0E54D943FA0CFE10EB0E00CCF1B8
:1045D0001E0E51F1FF31D5D50EF1010E12FA0EFE6D
:1045E000404141EB010101EB445C5FEA5C5C10D9A6
:1045F00001EB045110EBDE7038BFBEF1004FBDE897
:10460000104018BF704700280CBF491C20F0010063
:10461000704730D24FEAD42C24F4006411F5001115
:104620001BD0B1FA81F20B3AA41AA41ED2F12003D6
:10463000914030FA03F31943904001EBCC7101EB48
:104640000451002CBDE81040A8BF704701F1C041E3
:1046500001F000414FF000007047B0FA80F310FA0B
:1046600003F100D110BDE41A173C4805C90AE4E77C
:1046700001EB045110BD49104FEA300001EB045129
:10468000BDE8104002E04FF0000170474A0008BF4B
:104690000042F8D0B2F5001F28BF704701F000417A
:1046A0004FF0000070479EEA445F07D011EA5E0FAA
:1046B000BDE8104004BF002100207047BDE8104055
:1046C00070B5FFF7CBFE00BF40DFF63E104683F02B
:1046D000004170470000E0FF43004FEAD30C4FEA6F
:1046E0003C0C43401FBF40070CF1605113F0FE4FDC
:1046F00070471CF0006F03D10CF0004100207047A0
:104700000CF0004343EA507040EACC0010B500F0D2
:1047100038F800BF000000924FEA0001FFF7ECBE3E
:104720004FF00041A1F500214FF00000704710B597
:10473000FFF7DCFC0CBF0120002010BD10B5FFF717
:10474000D5FC14BF0120002010BD10B5FFF764FD9B
:104750008CBF0120002010BD10B5FFF75DFD2CBF00
:104760000120002010BD10B5FFF792FD94BF01207D
:10477000002010BD10B5FFF78BFD34BF01200020D5
:1047800010BD0EF1020E2EF0030E5EF8044B244213
:1047900004D44FEA4102B2F17F4F11D84FEA4003EF
:1047A000B3F17F4F0CD80ED14FEAD07C0CEB4C0C00
:1047B0000CF1020CB2F17F4F08BF4CEBD17C04E04E
:1047C0004FF0080C01E04FEAD17C0CEB4C0324FACB
:1047D00003F404F00704B4F1040C06D20EEB840CCD
:1047E000BDE810404CF0010C6047DFE80CF0070812
:1047F00002024FF00040A0F5800010BD08464200C4
:1048000018BFD2F1807288BF00F0004010BDF1EEF9
:10481000100A4FF6FF71C0F2C03120EA010040F0EB
:104820004070E1EE100A7047FF2141EAD050C00508
:10483000704700000000004000000240020000003D
:1048400003000000FFFF00000000004000000240E5
:104850000300000004000000FFFF0000726F73738C
:10486000657269616C5F6D7367732F5265717565F1
:104870007374506172616D00000000000000000060
:10488000712F00084D1D000801200008F11F0008CD
:1048900000000000000000002D3100084920000841
:1048A000E1200008D1200008000000000000000006
:1048B0008931000821210008D1220008C122000806
:1048C0000000000000000000392300082D2300082C
:1048D0001923000865230008000000000000000004
:1048E000F925000835270008712B0008000000009A
:1048F0000000000001340008013400080134000801
:10490000013400080000000000000000013400082D
:10491000013400080134000800000000000000001D
:104920000134000801340008013400080134000893
:104930000000000000000000A1320008052E000861
:10494000A52E0008952E00080000000000000000C1
:1049500011330008E12E0008392F0008292F000824
:104960004D6573736167652066726F6D206465764F
:104970006963652064726F707065643A206D657359
:1049800073616765206C6172676572207468616E1F
:10499000206275666665722E003061643531663856
:1049A00038666334343839326638633130363834F7
:1049B0003037373634363030350031316162643764
:1049C000333163323539333332363163643631381B
:1049D00033626431326436323935007374645F6D2A
:1049E0007367732F496E7431360038353234353879
:1049F00036653334666264376362316330386335F9
:104A00006635663163613065353700396630653942
:104A10003862646136353938313938366464663520
:104A2000336166613761343065343900636437312E
:104A3000363663373463353532633331316662631A
:104A40006332666535613762633238390073746486
:104A50005F6D7367732F54696D6500726F73736553
:104A60007269616C5F6D7367732F4C6F6700726F53
:104A70007373657269616C5F6D7367732F546F70C8
:104A80006963496E666F006C6566745F776865651B
:104A90006C5F71756572790072696768745F7768B9
:104AA00065656C5F7175657279002870776D203C63
:104AB0003D20363635333529202626202870776D5F
:104AC000203E3D203029006120213D203000622021
:104AD000213D203000425453373936302E630000D8
:104AE000044B0008000000200C000000D401000866
:104AF000104B00081000002070150000F0010008A5
:104B000069C8FFFF01000000010000000100000073
:04000005080002915C
:00000001FF
