:020000040800F2
:100000009015002091020008990200089B02000848
:100010009D0200089F020008A102000800000000E5
:10002000000000000000000000000000A302000823
:10003000A502000800000000A70200082D0D00081E
:10004000AB020008AB020008AB020008AB020008DC
:10005000AB020008AB020008AB020008AB020008CC
:10006000AB020008AB020008AB020008AB020008BC
:10007000AB020008AB020008AB020008AB020008AC
:10008000AB020008AB020008AB0200080000000051
:10009000000000000000000000000000AB020008AB
:1000A000AB020008AB020008AB020008AB0200087C
:1000B000AB020008AB020008AB020008AB0200086C
:1000C000AB020008AB020008AB020008AB0200085C
:1000D000AB020008AB020008AB0200080000000001
:1000E000AB020008AB020008AB02000800000000F1
:1000F000000000000000000000000000AB0200084B
:1001000000000000AB020008AB020008AB020008D0
:1001100000000000000000000000000000000000DF
:10012000AB020008AB020008AB020008AB020008FB
:10013000AB0200080000000000000000000000000A
:10014000000000000000000000000000AB020008FA
:10015000AB020008AB020008AB020008AB020008CB
:10016000AB020008AB020008000000000000000025
:10017000000000000000000000000000000000007F
:1001800000000000AB0200080000000000000000BA
:10019000AB020008AB02000800F002F800F046F8DD
:1001A0000AA090E8000C82448344AAF10107DA45D2
:1001B00001D100F03BF8AFF2090EBAE80F0013F0DE
:1001C000010F18BFFB1A43F00103184770460000E7
:1001D00090460000103A24BF78C878C1FAD8520778
:1001E00024BF30C830C144BF04680C6070470000B1
:1001F0000023002400250026103A28BF78C1FBD830
:10020000520728BF30C148BF0B6070471FB504F0CC
:10021000B0F99DE8030000F093F900F037F88DE89D
:100220000F0000F05FF91FBD10B510BD00F026FBF8
:100230001146FFF7EBFF03F0C5F800F046FB03B4EF
:10024000FFF7F2FF03BC00F04FFA00000E4802680F
:10025000D2F800D0BDE8F00F0FBC5DF804CB01B0C0
:100260005DF804EB01B062B6704772B62DE9F00F8D
:1002700005480168C1F800D049680160D1F800D094
:10028000BDE8F00F62B670476005002000F065BA67
:100290000948804709480047FEE7FEE7FEE7FEE71A
:1002A000FEE7FEE7FEE7FEE7FEE7FEE70448054956
:1002B000054A064B70470000350D000899010008FB
:1002C000900F002090150020901100209011002028
:1002D00070B50D460646041F00F016F90268BDB160
:1002E000DEB105F10B0020F00701A9423CBF002060
:1002F00070BD23688B4238BF506813D35A1A082A3E
:1003000036D3601840F8042B216000F077F92FE015
:10031000304600F073F9002070BD2846BDE87040FB
:1003200000F03DB9002818BFA0423CBF024640681B
:10033000F8D303EB040C84451CD1D0F800C063440F
:10034000994217D8A3EB010CBCF1080F0DD3D0F8DC
:1003500004C06318C3F804C0D4F800C00068604447
:10036000401A18602160536002E0236040685060CA
:10037000201D70BD284600F012F9050008D0314656
:100380002068021F284600F075F9201D00F036F99C
:10039000284670BD0EB5054614460E4613A000F063
:1003A0005FF9284600F05CF916A000F059F93046D4
:1003B00000F056F915A000F053F900218DF80B104C
:1003C0000A210DF10A008DF80A1008E094FBF1F201
:1003D00001FB124294FBF1F4303200F8012D002CA5
:1003E000F4DC00F03DF900F030F900002A2A2A2060
:1003F000617373657274696F6E206661696C6564A0
:100400003A2000002C2066696C6520002C206C6965
:100410006E65200010B5431C02E010F8011B71B19D
:100420008107FAD14FF0013202C88C1A8C4314EACA
:10043000C211F9D0C01A0A0603D0C01E10BDC01ADE
:1004400010BD0A0401D0801E10BD0902FCD0401E60
:1004500010BD032A40F2308010F0030C00F015802C
:1004600011F8013BBCF1020F624498BF11F801CBB7
:1004700000F8013B38BF11F8013BA2F1040298BF1C
:1004800000F801CB38BF00F8013B11F0030300F086
:10049000F180083AC0F0088051F8043B083A51F85E
:1004A00004CBA0E80810F5E7121D5CBF51F8043B2F
:1004B00040F8043BAFF30080D20724BF11F8013BA2
:1004C00011F801CB48BF11F8012B24BF00F8013B04
:1004D00000F801CB48BF00F8012B70477047704708
:1004E0007047000070B5064C7C44064D7D4404E026
:1004F0002046016808448047241DAC42F8D170BDF5
:10050000704300007043000000487047280000203E
:10051000704770477047704738B504460A46002058
:100520006946AFF30080002808BF38BD0246009935
:10053000204600F0EAF8012038BD012000F006B99D
:10054000F8B5AFF30080054600200C46102000BF30
:100550000646A819A0420DD9324669460020AFF3DD
:100560000080070008BF00F0F1F80098A04218BF13
:100570000546C419FFF7C8FF05600746F01D20F0C7
:1005800007004619284600F0B9F8B44208BFF8BD84
:10059000A21B31463868BDE8F84000F0B6B870B527
:1005A0000646FFF7B1FF056806F10B0020F00704CF
:1005B000B4429CBF002070BD2B466A68BAB1106877
:1005C000A04210D304F1080188423CBF5068586033
:1005D00007D35168101941601168091B0160586008
:1005E0001460101D70BD13465268002AE7D12146E1
:1005F0002846FFF791FF0028DED170BD70B5044694
:10060000051FFFF781FF0068002C14BF446870BD10
:10061000002C18BFAC423CBF20466468F8D3016888
:100620000A18AA4218BF456003D12A68054611443A
:10063000016028684119A1421CBF6C6070BD6168EF
:10064000696021680844286070BD10B5002000F082
:1006500076F8FFF7E9FDBDE81040012000F044B84E
:1006600010B5044602E0641C00F036F8207800283B
:10067000F9D110BD10B5203AC0F00B80B1E8185088
:10068000A0E81850B1E81850A0E81850203ABFF47C
:10069000F5AF5FEA027C24BFB1E81850A0E818501B
:1006A00044BF18C918C0BDE810405FEA827C24BF6F
:1006B00051F8043B40F8043B08BF7047D20728BFFD
:1006C00031F8023B48BF11F8012B28BF20F8023B4C
:1006D00048BF00F8012B704708B569468DF8000047
:1006E0000320ABBE08BD000001491820ABBEFEE7E9
:1006F0002600020000487047200000200021016011
:10070000C0E90110704710207047034640688C46CE
:10071000002818BF88423CBF03464068F8D31868D9
:100720001844884207D00CF1030020F00700001D98
:10073000411A521A0146081D0A60FFF75FBF10B543
:1007400000F0D2F8BDE8104000F0C8B810B500F0D5
:10075000E3F8BDE8104000F0C1B82DE9FE4F0027D6
:100760004FF48074BA4620468DF80070FFF717FFEB
:100770005FEA000801D1FFF7E9FF2146404600F09B
:1007800070F8060009D04FF0010B4546C14616F837
:10079000014B8FB15C2C16D01CE008F108004146DB
:1007A000C8F800000020C8F80400D8F80040207005
:1007B000012003B0BDE8F08F222C01D0272C0FD1EF
:1007C0002746BA462CE03078222807D05C2805D08E
:1007D000272803D0BC4203D1002721E0761C044621
:1007E0004CB12FB9202C06D0A4F10900042802D95D
:1007F00005F8014BCBE74D4502D1BAF1000F0FD000
:1008000052464946002005F8010B6846AFF30080C8
:100810009DF8000068B14D464FF0000A0BF1010B46
:10082000002CB4D14FEA8B00FFF7B9FE040002D0D0
:1008300004E0A946F0E70020FFF788FF00264046C5
:10084000C4F8008005E010F8011B11B9761C44F8CB
:100850002600A842F7D32146002044F8260030465F
:10086000A7E71CB50446CDE9000169461520ABBEDB
:1008700008B100201CBD20461CBD70477546FFF71F
:1008800039FFAE4605006946534620F0070085460D
:1008900018B020B5FFF70AFDBDE820404FF0000674
:1008A0004FF000074FF000084FF0000BAC46ACE8EB
:1008B000C009ACE8C009ACE8C009ACE8C00921F047
:1008C00007018D4670477047704710B50446AFF377
:1008D00000802046BDE81040FFF7B1BC002801D0E1
:1008E000FFF702BF7047000010B5002102A000F022
:1008F0003BF8012010BD0000534947414252543A91
:100900002041626E6F726D616C207465726D696EEC
:100910006174696F6E00000010B5012805D00021D8
:1009200003A000F021F8012010BD09A1F8E70000A4
:1009300053494752544D454D3A204F7574206F66C8
:100940002068656170206D656D6F72790000000030
:100950003A2048656170206D656D6F727920636F14
:10096000727275707465640070B505460C460A2095
:1009700000E06D1CFFF7B0FE35B128780028F8D1F3
:1009800002E0641CFFF7A8FE14B120780028F8D11B
:10099000BDE870400A20FFF79FBE000082B00A4603
:1009A0000190ADF8021046F28800C4F2020001681E
:1009B00021F001010160016821F0C00101600168BE
:1009C00041F480610160016841F4007101600168D7
:1009D00041F400310160016841F480410160016827
:1009E00041F480510160019946F29403C4F202037C
:1009F0001960BDF8021046F28C03C4F202031960BC
:100A000046F29001C4F2020144F20443C4F200032E
:100A10000B60016841F00101016002B07047000005
:100A200082B00A460190ADF8021046F2A000C4F26E
:100A30000200016821F001010160016821F0C0019C
:100A40000160016841F480610160016841F4007156
:100A50000160016841F480710160016841F4003176
:100A60000160016841F480410160016841F48051F6
:100A70000160019946F2AC03C4F202031960BDF8AB
:100A8000021046F2A403C4F20203196046F2A80160
:100A9000C4F2020144F20443C4F200030B60016893
:100AA00041F00101016002B07047000040F6000013
:100AB000C4F20200016821F440510160016821F490
:100AC0004031016040F60C00C4F20200016821F4DC
:100AD00040510160016821F44051016070470000FD
:100AE00080B582B0FFE702F051FD01900198B0FAA5
:100AF00080F0400940F20001C2F20001086008687D
:100B000001281DD1FFE740F6F060C2F20000006846
:100B100047F6FF7188420AD1FFE740F6F060C2F263
:100B2000000048F20001CFF6FF71016007E040F6D7
:100B3000F060C2F20000016801310160FFE719E0D6
:100B400040F6F060C2F20000006810F5004F08D1D6
:100B5000FFE740F6F060C2F2000047F6FF71016067
:100B600007E040F6F060C2F2000001680139016060
:100B7000FFE7FFE740F6F060C2F20000006840F2D5
:100B8000AC51C2F200018880ADE7000080B582B0B0
:100B9000FFE702F007FD01900198B0FA80F04009EC
:100BA00040F20401C2F200010860086801281DD16A
:100BB000FFE740F6F460C2F20000006847F6FF71FC
:100BC00088420AD1FFE740F6F460C2F2000048F222
:100BD0000001CFF6FF71016007E040F6F460C2F259
:100BE0000000016801310160FFE719E040F6F460A0
:100BF000C2F20000006810F5004F08D1FFE740F690
:100C0000F460C2F2000047F6FF71016007E040F6B1
:100C1000F460C2F20000016801390160FFE7FFE7FC
:100C200040F6F460C2F20000006840F64471C2F27F
:100C300000018880ADE7000080B586B003468DF8DE
:100C40001700049103929DF8170040F20801C2F2C8
:100C5000000151F820000499039A029008461146B9
:100C6000029A0193904706B080BD000043F6000051
:100C7000C4F20200016841F480310160FFE743F6ED
:100C80000000C4F2020000688003002801D4FFE7DE
:100C9000F5E743F60400C4F2020000210160016898
:100CA00041F480010160016841F0080101600168C0
:100CB00041F410510160016841F48031016043F654
:100CC0000000C4F20200016841F080710160FFE79A
:100CD00043F60000C4F2020000688001002801D43D
:100CE000FFE7F5E743F60800C4F20200016841F0AF
:100CF00002010160FFE743F60800C4F20200006849
:100D000000F00C00082801D0FFE7F4E743F60800E4
:100D1000C4F2020001680160016841F4A051016061
:100D2000016841F4004101607047000080B500F0A7
:100D30001FF880BD4EF68850CEF20000016841F4E5
:100D400070010160704700000548064901600648CF
:100D50004FF00001016005484FF007010160704746
:100D600014E000E0FFA14A0418E000E010E000E019
:100D700040F21C00C2F20000006840F26C51C2F266
:100D800000010A68104408607047000043F6400004
:100D9000C4F20200016841F0010101600020C4F2C8
:100DA0000200016821F00F010160016841F00A01B1
:100DB0000160016821F030010160016841F020010B
:100DC0000160016821F0C0010160016841F080010B
:100DD00001602020C4F20200016841F001010160BD
:100DE000016841F010010160016841F48071016007
:100DF000016841F4805101602420C4F20000002108
:100E000001602C20C4F200004FF6FF72026028201F
:100E1000C4F2000001603420C4F2000001603820F8
:100E2000C4F2000001603C20C4F2000001604020D8
:100E3000C4F2000001604FF08040016841F0800181
:100E40000160016821F0100101601821C4F2000165
:100E50000A6822F003020A600A6842F060020A602F
:100E60000A6822F440720A600A6842F4C0420A60CA
:100E70001C21C4F200010A6822F003020A600A6819
:100E800042F060020A600A6822F440720A600A684E
:100E900042F4C0420A602021C4F200010A6842F014
:100EA00001020A600A6842F010020A600A6842F40D
:100EB00080720A600A6842F480520A60016841F058
:100EC000010101607047000080B502F009F802F0EE
:100ED0000FF802F015F802F01BF802F021F802F00A
:100EE00027F802F037F880BD80B5A4B01B908DEDD7
:100EF000180B8DED161B40F60870C2F2000090ED45
:100F0000000B8DED1C0B1C981D999FEDC30B53EC32
:100F1000102BDB0F63F3DF7141EC100B40F2345008
:100F2000C2F20000006815928DED120B02F0FBFF7B
:100F300041EC100B9DED121B51EC110B53EC102BDF
:100F400003F0C3FA002808D1FFE740F23450C2F2A0
:100F5000000001680131016033E040F60870C2F220
:100F6000000090ED000B8DED220B229823999FED50
:100F7000AA0B53EC102BDB0F63F3DF7141EC100B6A
:100F800040F23450C2F20000006811928DED0E0B59
:100F900002F0C9FF41EC100B9DED0E1B51EC110B43
:100FA00053EC102B03F08AFA002808D1FFE740F237
:100FB0003450C2F2000001680139016000E0FFE72F
:100FC000FFE740F61070C2F2000090ED000B8DEDCF
:100FD000200B209821999FED900B53EC102BDB0FE9
:100FE00063F3DF7141EC100B40F23850C2F20000A5
:100FF00000680D928DED0A0B02F095FF41EC100B8D
:101000009DED0A1B51EC110B53EC102B03F05DFA14
:10101000002808D1FFE740F23850C2F20000016812
:101020000131016033E040F61070C2F2000090ED33
:10103000000B8DED1E0B1E981F999FED770B53EC47
:10104000102BDB0F63F3DF7141EC100B40F23850D3
:10105000C2F20000006809928DED060B02F063FFFA
:1010600041EC100B9DED061B51EC110B53EC102BBA
:1010700003F024FA002808D1FFE740F23850C2F20A
:10108000000001680139016000E0FFE7FFE740F27E
:101090003450C2F200000068B0F5807F03DBFFE748
:1010A000FF20059006E040F23450C2F200000068D4
:1010B0000590FFE7059840F23451C2F20001086044
:1010C00040F23850C2F200000068B0F5807F03DBC8
:1010D000FFE7FF20049006E040F23850C2F2000023
:1010E00000680490FFE7049840F23851C2F2000112
:1010F000086040F23450C2F200000068B0F1FF3FD7
:1011000003DCFFE70020039006E040F23450C2F217
:10111000000000680390FFE7039840F23451C2F2E8
:101120000001086040F23850C2F200000068B0F1DF
:10113000FF3F03DCFFE70020029006E040F238505A
:10114000C2F2000000680290FFE7029840F23851B6
:10115000C2F20001086040F23450C2F200000068A0
:1011600000EB002040F61872C2F20002106008681E
:1011700000EB002040F61C71C2F2000108601B98D1
:1011800001380146032801913CD80199DFE801F0BC
:1011900002101E2C40F61870C2F20000016840F6E2
:1011A0001C70C2F2000002680120FFF745FD30E02C
:1011B00040F61870C2F20000016840F61C70C2F2DE
:1011C000000002680220FFF737FD22E040F61870A9
:1011D000C2F20000016840F61C70C2F20000026812
:1011E0000320FFF729FD14E040F61870C2F200005A
:1011F000016840F61C70C2F2000002680420FFF78C
:101200001BFD06E0002000900099009AFFF714FDF6
:10121000FFE724B080BD00BF000000000000000018
:1012200080B586B040F2AC50C2F20000B0F90400C4
:1012300040F23C51C2F200010968401A4FF6FF71BA
:10124000084448F20101C8F2000151FB0001CA1331
:1012500002EBD171C1EB0141401A0590059842F2B1
:101260001171884206DBFFE705984FF6FF71401ABF
:101270000590FFE7059802F056FE41EC100B9FED3C
:101280003E1B53EC112B51EC100B02F089FC41EC8E
:10129000100B8DED020B01F071FE02F05BFE41ECD4
:1012A000100B40F24050C2F2000090ED001B53ECD6
:1012B000112B5CEC101B01900846614602F0D4FF34
:1012C00041EC100B9DED021B51EC110B53EC102B5C
:1012D00002F066FC41EC100B40F67070C2F20000A8
:1012E00080ED000B90ED000B9FED251B53EC112BB7
:1012F00051EC100B02F0BAFE41EC100B51EC100B4C
:101300009FED210B53EC102B02F04AFC41EC100B2B
:1013100051EC100B9FED1E0B53EC102B02F040FC18
:1013200041EC100B51EC100B02F054FB40F2B451A5
:10133000C2F20001086091ED002ABDEEC22A12EE51
:10134000100A40F28851C2F20001888040F2AC508D
:10135000C2F20000B0F9040040F23C51C2F20001B8
:10136000086001F00BFE02F0F5FD41EC100B019856
:1013700080ED000B06B080BD0000000080A9C340D6
:1013800000000000004CDD400000000000000840AC
:10139000C3F5285C8FC2A53F80B586B040F6447087
:1013A000C2F20000B0F9040040F24851C2F200015C
:1013B0000968401A4FF6FF71084448F20101C8F26B
:1013C000000151FB0001CA1302EBD171C1EB0141D5
:1013D000401A0590059842F21171884206DBFFE73A
:1013E00005984FF6FF71401A0590FFE7059802F047
:1013F0009AFD41EC100B9FED3E1B53EC112B51EC71
:10140000100B02F0CDFB41EC100B8DED020B01F047
:10141000B5FD02F09FFD41EC100B40F25050C2F2BE
:10142000000090ED001B53EC112B5CEC101B0190A5
:101430000846614602F018FF41EC100B9DED021BBF
:1014400051EC110B53EC102B02F0AAFB41EC100BEA
:1014500040F67870C2F2000080ED000B90ED000BBA
:101460009FED251B53EC112B51EC100B02F0FEFDF0
:1014700041EC100B51EC100B9FED210B53EC102B9A
:1014800002F08EFB41EC100B51EC100B9FED1E0B8C
:1014900053EC102B02F084FB41EC100B51EC100BC1
:1014A00002F098FA40F64C71C2F20001086091ED2A
:1014B000002ABDEEC22A12EE100A40F62071C2F2D6
:1014C0000001888040F64470C2F20000B0F90400C8
:1014D00040F24851C2F20001086001F04FFD02F0F5
:1014E00039FD41EC100B019880ED000B06B080BD7A
:1014F0000000000080A9C34000000000004CDD4057
:101500000000000000000840C3F5285C8FC2A53F22
:1015100080B582B0019040F27450C2F20000012107
:1015200001600198B0F9040002F0FDFC41EC100BE1
:1015300040F68070C2F2000080ED000B01F01EFD4D
:1015400044F6D351C1F26201A0FB01018909009068
:10155000084602F0FFFC41EC100B40F28050C2F252
:10156000000080ED000B02B080BD000080B582B0AD
:1015700001900198B0F9040002F0D5FC41EC100B89
:1015800040F68870C2F2000080ED000B40F2785007
:10159000C2F200000121016001F0F0FC44F6D351D9
:1015A000C1F26201A0FB010189090090084602F026
:1015B000D1FC41EC100B40F28050C2F2000080EDF3
:1015C000000B02B080BD000083B001900091019833
:1015D000012807DBFFE70098012803DBFFE7012074
:1015E000029048E00198012804DBFFE700980028FA
:1015F00011D4FFE70198012804DBFFE700980028D9
:1016000009D0FFE70198002808D1FFE70098B0F162
:10161000FF3F03DCFFE7022002902CE00198B0F1CD
:10162000FF3F04DCFFE70098002811DCFFE701988A
:10163000002804D1FFE70098002809DCFFE70198A3
:10164000B0F1FF3F07DCFFE70098002803D1FFE778
:10165000032002900FE00198B0F1FF3F08DCFFE7A4
:101660000098B0F1FF3F03DCFFE70420029002E0A6
:1016700000200290FFE7029803B0704781B000900D
:1016800046F28C00C4F202000068C0F500706FF3EF
:101690005F2001B07047000080B582B001900198D2
:1016A0004FF40071FFF77AF902B080BD80B582B0C7
:1016B00001900198FFF7F0FF02B080BD80B584B0C3
:1016C000039003984FF0FF310291D0F8001201907F
:1016D0000091FFF7D3FF009981420FD0FFE70198F7
:1016E000D0F800124A1CC0F80022415C0291D0F8E8
:1016F00000126FF35F21C0F80012FFE7029804B0F8
:1017000080BD000080B582B0019001F037FC02B0CE
:1017100080BD000080B584B00390039840F258511A
:10172000C2F200010978C9070029019044D1FFE7FE
:1017300040F25850C2F20000012101700198D0F827
:101740000414D0F8082491422FD0FFE70198D0F874
:101750000414D0F808248A4208D2FFE70198D0F890
:101760000414D0F80824891A009106E00198D0F8F2
:101770000814C1F500710091FFE70098ADF80A0068
:101780000198D0F80814014401F50170BDF80A1061
:10179000FFF746F90198D0F80814BDF80A20114463
:1017A0006FF35F21C0F80814FFE740F25850C2F20F
:1017B000000000210170FFE704B080BD80B588B053
:1017C0000790069105920798059904910499B1F53F
:1017D000007F029003DCFFE70498019003E04FF4E0
:1017E00000700190FFE70198049004980299D1F8E5
:1017F0000424C2F50072904203D8FFE704980090D9
:1018000006E00298D0F80414C1F500710091FFE7DA
:10181000009803900298D0F80414014401F5017077
:101820000699039AFEF715FE0299D1F80424049B49
:101830001A446FF35F22C1F80424049A039B9A426E
:101840000BD0FFE7029800F501700699039A114446
:10185000049B9A1AFEF7FDFDFFE70298FFF75AFF77
:1018600008B080BD81B0009000980021C0F800123F
:10187000C0F80414C0F8081401B0704780B58EB0E9
:101880000D900C910D9800210B910C990B9A895C8D
:101890000A910C990B9A114449780A9A42EA01215B
:1018A0000A910C990B9A114489780A9A42EA0141EB
:1018B0000A910C990B9A1144C9780A9A42EA01617B
:1018C0000A910B9904310B910A9942689142009058
:1018D00009D9FFE70098C0680A998900FEF7F8FC6B
:1018E0000099C860FFE70A980099486000200990B5
:1018F000FFE7099800994A68904230D2FFE700203C
:1019000008900C980B99405C0899084308900C9833
:101910000B9908444078089941EA002008900C98F7
:101920000B9908448078089941EA004008900C9887
:101930000B990844C078089941EA0060089008981B
:10194000009988600B9804300B90C868099A8B68DE
:1019500040F82230FFE7099801300990C9E70C9858
:101960000B99405C07900C980B99084440780799B4
:1019700041EA002007900C980B9908448078079959
:1019800041EA004007900C980B990844C0780799E9
:1019900041EA006007900B9804300B90079800997B
:1019A0000A69904209D9FFE7009880690799890080
:1019B000FEF78EFC00998861FFE70798009908619F
:1019C00000200690FFE7069800990A69904230D2FD
:1019D000FFE7002005900C980B99405C059908439F
:1019E00005900C980B9908444078059941EA00202D
:1019F00005900C980B9908448078059941EA0040BD
:101A000005900C980B990844C078059941EA00604C
:101A100005900598009948610B9804300B908869EF
:101A2000069A4B6940F82230FFE70698013006908D
:101A3000C9E70C980B99405C04900C980B990844EA
:101A40004078049941EA002004900C980B990844CE
:101A50008078049941EA004004900C980B9908445E
:101A6000C078049941EA006004900B9804300B9010
:101A700004980099CA69904209D9FFE70098406A22
:101A800004998900FEF724FC00994862FFE7049856
:101A90000099C86100200390FFE703980099CA6984
:101AA00090423AD2FFE70C980B99014402A800F04B
:101AB000F3FE0B9804300B900B980190FFE7019810
:101AC0000B99029A114488420BD2FFE70C980199B6
:101AD0004218405C02F8010CFFE7019801300190C8
:101AE000EDE70C980B99029A11440844002100F884
:101AF000011C0C980B99084401380099086202985F
:101B00000B9A10440B90486A039A0B6A40F82230F3
:101B1000FFE7039801300390BFE70B980EB080BD3C
:101B200081B0009044F24770C0F6000001B07047E9
:101B300081B0009044F29650C0F6000001B07047AA
:101B400080B582B001900198009000F0D9FE44F277
:101B5000B450C0F6000008300099086000204860CA
:101B60008860C860086148618861C861086248622D
:101B7000084602B080BD000080B586B00590049193
:101B80000598002103910499039A895C01710399D6
:101B9000013103910499039A114402AA009010465E
:101BA00000F07AFE03980430039003980190FFE759
:101BB00001980399029A114488420BD2FFE70498D6
:101BC00001994218405C02F8010CFFE701980130CE
:101BD0000190EDE704980399029A1144084400210A
:101BE00000F8011C049803990844013800998860A2
:101BF0000298039A10440390039806B080BD000039
:101C000081B0009044F2F660C0F6000001B0704769
:101C100081B0009044F29770C0F6000001B07047A8
:101C200080B582B001900198009000F069FE44F206
:101C3000CC50C0F600000830009908600020087100
:101C400044F2E570C0F600008860084602B080BD2E
:101C500080B58CB00B900A910B98002109910A99DC
:101C6000099A895C81800A99099A11444978828885
:101C700042EA012181800999023109910A99099A60
:101C8000114408AA0190104600F006FE099804309D
:101C9000099009980790FFE707980999089A114455
:101CA00088420BD2FFE70A9807994218405C02F875
:101CB000010CFFE7079801300790EDE70A980999B2
:101CC000089A11440844002100F8011C0A98099957
:101CD00008440138019988600898099A10440990CD
:101CE0000A98099A811806A800F0D6FD09980430D0
:101CF000099009980590FFE705980999069A1144FB
:101D000088420BD2FFE70A9805994218405C02F816
:101D1000010CFFE7059801300590EDE70A98099955
:101D2000069A11440844002100F8011C0A980999F8
:101D3000084401380199C8600698099A104409902E
:101D40000A98099A811804A800F0A6FD09980430A1
:101D5000099009980390FFE703980999049A1144A0
:101D600088420BD2FFE70A9803994218405C02F8B8
:101D7000010CFFE7039801300390EDE70A980999F9
:101D8000049A11440844002100F8011C0A98099A99
:101D900010440138019A10610498099B1844099075
:101DA00002910A980999405C0299084302900A98A6
:101DB000099908444078029941EA002002900A9863
:101DC000099908448078029941EA004002900A98F3
:101DD00009990844C078029941EA0060029002988B
:101DE000506109980430099009980CB080BD00003A
:101DF00081B0009044F2D560C0F6000001B0704799
:101E000081B0009044F2AA70C0F6000001B07047A3
:101E100080B582B001900198009000F071FD44F20D
:101E2000E450C0F600000830009908600020888067
:101E300044F2E572C0F600028A60CA600A61486135
:101E4000084602B080BD000080B582B001900198C4
:101E50000C3000F009FE02B080BD000081B000909F
:101E60000098806901B0704780B586B005900491F4
:101E7000059800F10C01049A03900846029111465E
:101E800000F0C6FD03994A69029B019018469047ED
:101E900006B080BD80B582B0019001980C3000F092
:101EA000DBFD02B080BD000080B586B005900491D6
:101EB000039202930598019000F0BAFC44F2FC50A2
:101EC000C0F6000008300199086001F10C0000F034
:101ED000D3FD03980199486102988861049888604D
:101EE000084606B080BD000080B590B00F900F98F6
:101EF00009A907900846FFF78BFF00200890FFE72D
:101F00000898182844DCFFE70898079901EB80003F
:101F1000D0F82008002836D0FFE7079800F50261C6
:101F2000089A51F822209268ADF82820089A51F8B2
:101F3000222012680B92089A51F8222052681368E6
:101F40009B681046069198470C900898069951F89E
:101F5000200040680268D26890470D904FF40070EE
:101F60000E900898069951F8200000F0DDFC0799C2
:101F70000A68126809AB05900846059904921A464A
:101F8000049B9847FFE7FFE7089801300890B7E700
:101F900000200890FFE70898182843DCFFE708981E
:101FA000079901EB8000D0F88408002835D0FFE7BE
:101FB000079800F68401089A51F822205268ADF87B
:101FC0002820089A51F8222092680B92089A51F81A
:101FD000222013689B681046039198470C9008983C
:101FE000039951F820000268D26890470D904FF491
:101FF00000700E900898039951F82000026852680A
:10200000904707990A68126809AB0290084602993E
:1020100001921A46019B9847FFE7FFE708980130B5
:102020000890B8E70120079981F8FC0810B080BD3E
:1020300080B588B00790079804A9039008460291DC
:1020400000F0D0FC0398016809680A22019111464A
:10205000029A019B984703990A1D00901046FFF7CA
:1020600051FB0399C1F8100408B080BD80B58AB057
:102070000B4609908DF823100792099804A9039044
:10208000084602930191FFF7CBFD9DF823008DF8E0
:1020900014000798069003980168096807220091C8
:1020A0001146019A009B98470AB080BDB0B586B032
:1020B000059004910598011D02900846FFF722FB48
:1020C000039004980068039944F6D352C1F2620267
:1020D000A1FB02136FEA93131844029B03F2144C02
:1020E000C3F8140404984068DDF80CE0AEFB022449
:1020F000A4094FF47A7504FB15EE43F609540EFB60
:1021000004FEA0EB8E104CF6002EC3F69A3E7044EF
:1021100003F5836EC3F8180460460191714600927E
:1021200000F09EFB06B0B0BD80B588B0069005916A
:10213000049206980599642900900ADBFFE700984D
:1021400090F8FC18C907002903D1FFE70020079089
:1021500063E00498009901F22761026812689047D1
:102160000390FF20009981F82006FE2081F82106C7
:10217000039881F822060398000A81F8230691F853
:10218000220691F823261044C04381F824060598BE
:1021900081F825060598000A81F82606002002909D
:1021A00005200190FFE701980399073188420DDA75
:1021B000FFE701980099084490F82006029A10441D
:1021C0000290FFE7019801300190ECE70398073097
:1021D00003900298C0430399009A53180131039168
:1021E00083F820060398B0F5007F0BDCFFE700982A
:1021F0000430009901F5C461039AFFF7DFFA0398F0
:1022000007900AE044F29C61C0F60001009800F0DB
:102210001DF84FF0FF300790FFE7079808B080BD2A
:1022200080B582B001900198011D00900846FFF72B
:102230003DFA00200099C1F8E808C1F8EC08C1F89F
:10224000F408C1F8F00802B080BD000080B582B08B
:10225000019000910198009A0321FFF707FF02B057
:1022600080BD000080B586B004900498011D0190E7
:102270000846FFF747FA039003980199D1F804291B
:10228000801A42F6F922904205D3FFE70020019917
:1022900081F8FC08FFE70198D0F8E81800290DD074
:1022A000FFE703980199D1F80829904205D9FFE783
:1022B00000200199C1F8E808FFE7FFE7FFE7019870
:1022C000D0F81C14002911D0FFE701980430FFF763
:1022D00019FA0399401A0199D1F81C24904204D9A3
:1022E000FFE76FF0010005908EE1FFE701980430F1
:1022F000FFF7E4F902900298B0F1FF3F01DCFFE73D
:1023000066E102980199D1F8F8281044C1F8F8085C
:10231000D1F8E80807281AD1FFE702980199D1F807
:10232000F4288B180132C1F8F42883F82004D1F87E
:10233000EC080138C1F8EC08D1F8EC08002805D108
:10234000FFE708200199C1F8E808FFE73FE101989D
:10235000D0F8E818002924D1FFE70298FF280BD114
:10236000FFE70198D0F8E8180131C0F8E8180399A0
:102370001431C0F8081913E001980430FFF7C2F9CE
:102380000399401A41F28931884208D3FFE70020BF
:10239000019981F8FC086FF00100059034E1FFE736
:1023A00014E10198D0F8E81801291BD1FFE7029841
:1023B000FE2807D1FFE70198D0F8E8180131C0F8EE
:1023C000E8180EE000200199C1F8E80891F8FC082F
:1023D000C007002804D1FFE70198FFF729FEFFE7B7
:1023E000FFE7F2E00198D0F8E818022910D1FFE7E2
:1023F00002980199C1F8EC080020C1F8F408D1F85E
:10240000E8080130C1F8E8080298C1F8F808DBE0F4
:102410000198D0F8E81803290ED1FFE70298019936
:10242000D1F8EC2802EB0020C1F8EC08D1F8E8085C
:102430000130C1F8E808C6E00198D0F8E81804298E
:1024400019D1FFE70198D0F8F818CA1701EB12620A
:1024500022F0FF02891AFF2907D1FFE70198D0F87F
:10246000E8180131C0F8E81804E000200199C1F82B
:10247000E808FFE7A6E00198D0F8E81805290DD193
:10248000FFE702980199C1F8F008D1F8E808013097
:10249000C1F8E8080298C1F8F80892E00198D0F86D
:1024A000E818062916D1FFE702980199D1F8F0281B
:1024B00002EB0020C1F8F0080720C1F8E808D1F8C5
:1024C000EC08002805D1FFE708200199C1F8E808C9
:1024D000FFE775E00198D0F8E81808296FD1FFE709
:1024E00000200199C1F8E808D1F8F808C21700EBFC
:1024F000126222F0FF02801AFF285FD1FFE70198E5
:10250000D0F8F018002911D1FFE70198FFF790FDEE
:102510000198FFF7E9FC03980199C1F800090398B5
:10252000C1F804094FF0FF3005906DE00198D0F834
:10253000F0180A2906D1FFE7019800F5846100F040
:1025400067F839E00198D0F8F01806290DD1FFE7B7
:10255000019800F51160019901F58461FFF78EF98A
:102560000121019A82F80C1925E00198D0F8F018A1
:102570000B2905D1FFE70020019981F8FC0819E03B
:102580000198D0F8F01800EB8101D1F8F416002979
:102590000FD0FFE70198D0F8F01800EB8101D1F8D7
:1025A000F41600F584620B681B68084611469847CC
:1025B000FFE7FFE7FFE7FFE7FFE7FFE7FFE7FFE7EB
:1025C000FFE7FFE7FFE7FFE7FFE7FFE7FFE776E665
:1025D000019890F8FC18C907002912D0FFE703986A
:1025E0000199D1F80029801A40F6C512904208D30B
:1025F000FFE70198FFF71CFD03980199C1F8000956
:10260000FFE700200590FFE7059806B080BD0000B9
:10261000B0B58CB00B900A910B9807A905900846AD
:10262000049100F0DFF90598011D08460391FFF7BA
:1026300069F80599D1F81024801A06900A9904982F
:1026400000F078F9069944F6D352C1F26202A1FB78
:102650000213DDF810C00CF1040E089C04EB931378
:102660000893069BA3FB0224A4094FF47A7504FB8C
:10267000153343F609546343099C04EB8313099310
:10268000059B02901846019171460092FFF70EFDDE
:102690000398FFF737F80599C1F804090CB0B0BDED
:1026A00081B00090009890F8FC0800F0010001B0A3
:1026B0007047000085B003900291039800210191BA
:1026C0000090FFE7019818281DDCFFE701980099AA
:1026D00001EB8000D0F8840800280FD1FFE70298B2
:1026E0000199009A02EB8101C1F8840801986430D5
:1026F0000299486001208DF8130008E0FFE7019877
:1027000001300190DEE700208DF81300FFE79DF80F
:10271000130005B07047000080B58CB00A900A988D
:102720000B90099000F090F844F21460C0F600009D
:10273000083009990860081DFFF794F800200999EE
:10274000C1F81004C1F81404C1F81804C1F81C043D
:1027500081F8200401F2214001F5C462089207903B
:10276000FFE70798002100F8011B0146089A9042F4
:102770000791F6D1FFE70020099981F8200601F2C0
:10278000216001F5026206920590FFE7059800219D
:1027900000F8011B0146069A90420591F6D1FFE729
:1027A00000200999C1F8200801F6240001F68402EE
:1027B00004920390FFE70398002140F8041B0146B0
:1027C000049A90420391F6D1FFE700200999C1F8DD
:1027D000840801F6880001F6E80202920190FFE702
:1027E0000198002140F8041B0146029A9042019191
:1027F000F6D1FFE700200999C1F8E808C1F8EC0814
:10280000C1F8F008C1F8F408C1F8F80881F8FC082C
:10281000C1F80009C1F80409C1F8080981F80C09D8
:1028200001F51160FFF78CF90B980CB080BD00002A
:1028300081B00090009844F22861C0F60001083190
:10284000016001B07047000081B00090009844F230
:102850004061C0F600010831016001B0704700001E
:1028600082B001900091FFE7009800684CF60021CB
:10287000C3F69A3188420DD3FFE70098016843F20E
:102880000062CCF265421144016001980168013197
:102890000160E9E702B0704783B0029001910298AD
:1028A000002101600091FFE7009803280ED8FFE7A0
:1028B00001980099405CC900884002990A68104359
:1028C0000860FFE7009801300090EDE703B0704723
:1028D00083B00290019100200090FFE70098032848
:1028E0000BD8FFE701980099CA00D040029A5054D3
:1028F000FFE7009801300090F0E703B07047000058
:1029000081B00090009844F25461C0F60001083193
:10291000016001B07047000081B000900098002174
:102920000160416001B0704781B00090009800697B
:1029300001B0704783B0029001910298002100918C
:102940000199009A895C41600199009A1144497883
:10295000426842EA012141600199009A1144897854
:10296000426842EA014141600199009A1144C978E4
:10297000426842EA01614160009904310091019985
:10298000009A895C81600199009A114449788268B3
:1029900042EA012181600199009A11448978826894
:1029A00042EA014181600199009A1144C978826824
:1029B00042EA01618160009804300090009803B001
:1029C0007047000081B0009044F26870C0F60000CB
:1029D00001B0704781B0009044F28970C0F60000E9
:1029E00001B0704780B582B0019001980090FFF768
:1029F00087FF44F26C60C0F600000830009941F88F
:102A0000040B0846FFF788FF009802B080BD000065
:102A100084B003900291039800210191ADF8001059
:102A20000299019A895CBDF800201143ADF80010AD
:102A30000299019A11444978BDF8002042EA012127
:102A4000ADF80010BDF800108180019802300190AF
:102A5000019804B07047000081B0009044F22670E5
:102A6000C0F6000001B0704781B0009044F21770CA
:102A7000C0F6000001B0704780B582B001900198A7
:102A80000090FFF73DFF44F28460C0F6000008307C
:102A90000099086000208880084602B080BD0000D0
:102AA00080B58AB009900891099800210791426881
:102AB000089BDDF81CC003F80C204268120A089B32
:102AC000DDF81CC063445A70C288089BDDF81CC046
:102AD00063449A70C279089BDDF81CC06344DA70C5
:102AE000079A0432079206910090FFE70698009932
:102AF0004A68904224D2FFE70098C168069A51F8CC
:102B0000221005910599089A079BD1540599090A45
:102B1000089A079B1A445170BDF81610089A079B33
:102B20001A4491709DF81710089A079B1A44D170A7
:102B3000079904310791FFE7069801300690D5E721
:102B400000980169089A079BD1540169090A089AFB
:102B5000079B1A445170418A089A079B1A44917046
:102B6000C17C089A079B1A44D170079904310791D8
:102B700000210491FFE7049800990A69904224D249
:102B8000FFE700988169049A51F822100391039994
:102B9000089A079BD1540399090A089A079B1A447B
:102BA0005170BDF80E10089A079B1A4491709DF859
:102BB0000F10089A079B1A44D170079904310791A6
:102BC000FFE7049801300490D5E70098C169089A9E
:102BD000079BD154C169090A089A079B1A4451708E
:102BE000C18B089A079B1A449170C17F089A079B72
:102BF0001A44D17007990431079100210291FFE72F
:102C000002980099CA69904225D2FFE70098416A6C
:102C1000029A51F82200FDF7FDFB019008980799F0
:102C200008440199FFF754FE07980430079008986C
:102C30000799084400994A6A029B52F82310019AA6
:102C4000FDF707FC0199079A11440791FFE70298E5
:102C500001300290D4E707980AB080BD80B586B0F5
:102C6000059004910598002103910179049A039B32
:102C7000D154039901310391816801900846FDF711
:102C8000C9FB02900498039908440299FFF720FEBB
:102C900003980430039004980399084401998968C3
:102CA000029AFDF7D6FB0299039A11440391039906
:102CB0000090084606B080BD80B58CB00B900A919C
:102CC0000B980021099181880A9A099BD154417976
:102CD0000A9A099B1A445170099902310991816835
:102CE00004900846FDF796FB08900A980999084455
:102CF0000899FFF7EDFD0998043009900A980999A1
:102D0000084404998968089AFDF7A3FB0899099A71
:102D1000114409910499CA6803901046FDF77AFBA3
:102D200007900A98099908440799FFF7D1FD099877
:102D3000043009900A98099908440499C968079AC7
:102D4000FDF787FB0799099A1144099104990A69CB
:102D500002901046FDF75EFB06900A980999084418
:102D60000699FFF7B5FD0998043009900A9809996A
:102D7000084404990969069AFDF76BFB0699099ABC
:102D80001144099104994A690592059A0A9BDDF854
:102D900024C003F80C20059A120A0A9BDDF824C00F
:102DA00063445A70BDF816200A9BDDF824C06344C2
:102DB0009A709DF817200A9BDDF824C06344DA70EE
:102DC000099A04320992099A019010460CB080BD0C
:102DD00083B0029001910298002100914168019A0C
:102DE000009BD1544168090A019A009B1A44517012
:102DF000C188019A009B1A449170C179019A009B85
:102E00001A44D1700099043100918168019A009BA5
:102E1000D1548168090A019A009B1A445170418972
:102E2000019A009B1A449170C07A0199009A11444A
:102E3000C870009804300090009803B070470000FC
:102E400084B0039002910398002101918088ADF82D
:102E50000000BDF800000299019A88549DF8010015
:102E60000299019A1144487001980230019001982A
:102E700004B0704782B002468DF8070000919DF9BA
:102E8000070000280AD4FFE7009800019DF9071009
:102E90004EF20042CEF2000288540BE0009800018E
:102EA0009DF8071001F00F014EF61452CEF2000209
:102EB0008854FFE702B0704701A000F05CF800BF43
:102EC00050757265207669727475616C2066756ED6
:102ED0006374696F6E2063616C6C6564210000002F
:102EE00080B540F2B850C2F20000FFF715FC80BD7B
:102EF00080B540F64470C2F20000FFF7BDFD80BD12
:102F000080B540F2AC50C2F20000FFF7B5FD80BDC5
:102F100080B540F28850C2F20000FFF7ADFD80BDE1
:102F200080B540F62070C2F20000FFF7A5FD80BD1D
:102F300080B540F29050C2F2000044F2C371C0F676
:102F4000000141F21152C0F600020123FEF7ACFF6E
:102F500080BD000080B540F62870C2F2000044F247
:102F6000D471C0F6000141F26D52C0F60002012397
:102F7000FEF79AFF80BDFDF768FB000072B640F2D5
:102F80006C50C2F20000006840F27051C2F20001C1
:102F9000086062B60868704780B59AB0FFE740F2F3
:102FA000B850C2F20000FFF75DF90590FFF7E6FFA9
:102FB00040F25C51C2F200010860086840F60071FE
:102FC000C2F200010968401A1F280FDBFFE740F238
:102FD0005C50C2F20000006840F60071C2F20001CD
:102FE0000860FEF7D9F9FEF71BF9FFE740F27450CD
:102FF000C2F200000068012840F0D581FFE740F2EE
:103000007850C2F200000068012840F0CC81FFE750
:10301000FFF7B4FF1190119840F6FC61C2F2000175
:103020000968401A00EE100AB8EEC00A9FEDE41AD3
:1030300080EE010A8DED100A40F68070C2F20000A9
:1030400090ED002B8DED122B9DED122B9FEDD63BBD
:1030500051EC130BC90F53EC122B61F3DF7343ECEC
:10306000122B52EC121B04900846114600F0B2FCE1
:103070000F900020C4F2A0000E9000200D909DED56
:103080000F0A40F2B450C2F20000006814909DEDA7
:10309000141AB0EEC11A30EE410A8DED0C0A40F25E
:1030A0006450C2F2000090ED000A9DED0C1A9DEDF7
:1030B000104A21EE041A30EE010A80ED000A9DED5F
:1030C0000E0A9DED0C1A20EE010A9DED0D1A90EDF1
:1030D000004A21EE041A30EE010A8DED0B0A0B981E
:1030E0001590159820F0004001F0A8F941EC120B62
:1030F00040F60870C2F2000080ED002B90ED002B2E
:103100009FEDAB3B53EC132B51EC120B01F0DDF9AF
:1031100000280CD1FFE740F60870C2F200004EF222
:103120000001C4F26F01416000210160FFE740F639
:103130008870C2F2000090ED000B8DED180B9DED34
:10314000180B9FED991B51EC110BC90F53EC102B71
:1031500061F3DF7343EC102B52EC101B0390084615
:10316000114600F037FC0A900020C4F2A00009903C
:10317000002008909DED0A2A40F64C70C2F2000033
:10318000006817909DED173AB0EEC33A32EE432A2D
:103190008DED072A40F26850C2F2000090ED002A3F
:1031A0009DED073A9DED104A23EE043A32EE032AD4
:1031B00080ED002A9DED092A9DED073A22EE032AB3
:1031C0009DED083A90ED004A23EE043A32EE032AD0
:1031D0008DED062A06981690169820F0004001F012
:1031E0002DF941EC100B40F61070C2F2000080ED9A
:1031F000000B90ED000B9FED6E1B53EC112B51EC6F
:10320000100B01F062F900280CD1FFE740F61070B6
:10321000C2F200004EF20001C4F26F0141600021D1
:103220000160FFE740F68070C2F2000090ED000BF5
:1032300051EC100B00F048FE40F68871C2F200011C
:1032400091ED000B52EC101B02900846114600F065
:103250003BFE0299019008460199FEF7B5F940F648
:103260005071C2F200010860086800281AD1FFE717
:1032700000200B9040F60871C2F20001486008601F
:1032800040F26451C2F200010860069040F61071ED
:10329000C2F200014860086040F26851C2F20001C9
:1032A0000860FFE740F6F860C2F20000006840F6F0
:1032B0005071C2F200010968884224D0FFE740F64D
:1032C0005070C2F20000006840F6F861C2F20001DE
:1032D000086000200B9040F60871C2F200014860BF
:1032E000086040F26451C2F200010860069040F6A6
:1032F0001071C2F200014860086040F26851C2F2E9
:1033000000010860FFE7FFF739FE44F6D351C1F230
:103310006201A0FB010189090090084600F01AFE35
:1033200041EC100B40F28050C2F2000090ED001B07
:1033300051EC100B53EC112B00F096FF41EC100BED
:1033400051EC100B9FED1C0B53EC102B01F0BDF852
:1033500000280ED1FFE740F60870C2F200000021FD
:103360004160016040F61070C2F2000041600160EF
:10337000FFE740F65070C2F20000006840F60871A6
:10338000C2F2000191ED000B40F61071C2F2000193
:1033900091ED001BFDF7A8FD119840F6FC61C2F20B
:1033A00000010860FFE7FAE50000000000000000EF
:1033B0000000000000E06F40000000000000F03F4F
:1033C00000007A4480B582B000200190FDF74EFCE9
:1033D00000F0A2FAFFE7FFF7DFFDFCE780B586B05B
:1033E00005900491039272B640F65470C2F2000048
:1033F00000F10801416000F11001C160406100214D
:103400000290084600F05CF8059840F28401C2F290
:103410000001C1F8880101200190009100F050F8EE
:1034200004980099C1F81803022000F049F80398A5
:103430000099C1F8A80440F26050C2F20000029A5C
:10344000026062B6019806B080BD000040F28000C4
:10345000C2F2000041F64011C0F201010160704764
:1034600080B582B001904EF21000CEF20000002133
:1034700001604EF21802CEF200021160019940F292
:103480008002C2F200021268514301394EF2140266
:10349000CEF2000211604FF0FF310F22009008467B
:1034A0001146FFF7E7FC0098016841F00501016053
:1034B000016841F002010160FCF7C8FE02B080BD66
:1034C00081B00090009840F28401C2F200014FF4F4
:1034D000C87200FB021303F5A87340F6547CC2F2D5
:1034E000000C4CF83030009800FB0210D0F88C3102
:1034F00043F08073C0F88C31009800FB02104FF04D
:10350000AA33C0F88431009800FB0210C0F8803163
:10351000009800FB0210C0F87C31009800FB0210FC
:10352000C0F87831009800FB0210C0F874310098A0
:1035300000FB0210C0F87031009800FB0210C0F8C8
:103540006C31009800FB0210C0F86831009800FB55
:103550000210C0F86431009800FB0210C0F860311E
:10356000009800FB0210C0F85C31009800FB0210CC
:10357000C0F85831009800FB0210C0F85431009890
:1035800000FB0210C0F8503101B0704781B040F626
:103590001000C4F202000068C0F300200090009800
:1035A00001B0704781B040F61000C4F2020000681C
:1035B000C0F380100090009801B0704784B0039071
:1035C0000291039840F2E831C0F20101884206D32B
:1035D000FFE740F2E730C0F201000390FFE70298F6
:1035E00040F2E831C0F20101884206D3FFE740F221
:1035F000E730C0F201000290FFE7039840F2E731A4
:10360000C0F20101884209D8FFE7029840F2E73191
:10361000C0F20101884201D8FFE70AE044F60D003C
:10362000C0F6000044F63001C0F600016922FCF744
:10363000B1FE0398002140F2E732C0F2010290424D
:1036400001910BD8FFE7029840F2E831C0F2010186
:103650000022884238BF01220192FFE701983421FD
:10366000C4F2000100220A6003993823C4F2000367
:1036700019603C21C4F200010A6002994022C4F2A0
:103680000002116004B0704784B003900291039867
:1036900040F2E831C0F20101884206D3FFE740F270
:1036A000E730C0F201000390FFE7029840F2E831F2
:1036B000C0F20101884206D3FFE740F2E730C0F2D2
:1036C00001000290FFE7039840F2E731C0F20101E8
:1036D000884209D8FFE7029840F2E731C0F20101C1
:1036E000884201D8FFE70AE044F2E670C0F6000025
:1036F00044F63001C0F600015A22FCF74BFE039855
:10370000002140F2E732C0F20102904201910BD851
:10371000FFE7029840F2E831C0F20101002288423E
:1037200038BF01220192FFE7019803993422C4F2C5
:10373000000211603821C4F2000100220A600299DF
:103740003C23C4F2000319604021C4F200010A6066
:1037500004B0704782B0019000913420C4F20000A0
:10376000002101603820C4F2000001603C20C4F256
:10377000000001604020C4F20000016002B0704708
:1037800084B003900291039840F2E831C0F2010145
:10379000884206D3FFE740F2E730C0F20100039011
:1037A000FFE7029840F2E831C0F20101884206D3F7
:1037B000FFE740F2E730C0F201000290FFE7039814
:1037C00040F2E731C0F20101884209D8FFE70298D0
:1037D00040F2E731C0F20101884201D8FFE70AE078
:1037E00044F2E670C0F6000044F63001C0F6000175
:1037F0007822FCF7CFFD0398002140F2E732C0F2B7
:103800000102904201910BD8FFE7029840F2E831A3
:10381000C0F201010022884238BF01220192FFE775
:10382000019803993422C4F2000211603821C4F2D5
:10383000000100220A603C21C4F200010A600299E2
:103840004022C4F20002116004B0704784B00390BB
:103850000291039840F2E831C0F20101884206D398
:10386000FFE740F2E730C0F201000390FFE7029863
:1038700040F2E831C0F20101884206D3FFE740F28E
:10388000E730C0F201000290FFE7039840F2E73111
:10389000C0F20101884209D8FFE7029840F2E731FF
:1038A000C0F20101884201D8FFE70AE044F2E67065
:1038B000C0F6000044F63001C0F600018722FCF794
:1038C00069FD0398002140F2E732C0F20102904204
:1038D00001910BD8FFE7029840F2E831C0F20101F4
:1038E0000022884238BF01220192FFE7019834216B
:1038F000C4F2000100220A6003993823C4F20003D5
:10390000196002993C23C4F2000319604021C4F2FB
:1039100000010A6004B0704780B584B0FDF714FA66
:10392000FDF734FAFFF792FD42F69970C0F60000F9
:1039300040F68D31C0F6000140F6E122C0F60002EB
:10394000FFF74CFD0A2103900846FFF789FD40F27E
:10395000B850C2F200000290FEF762FC0020019015
:103960000199019AFDF768F9FDF7A0F800F012F847
:1039700040F29051C2F200010298FEF79BFE40F621
:103980002871C2F20001029A00901046FEF792FEE2
:1039900004B080BD83B04EF60850CEF20000029015
:1039A00002984FF0005101605820C2F200000190CF
:1039B000019840F6E121C0F6000101605C20C2F2EE
:1039C00000000090009840F68D31C0F600010160C3
:1039D00003B0704721F0004201F00043A2F16052B1
:1039E000B2F5801F28BFD2F17F6C0BD95FEA001CB3
:1039F00043EAC20242EB507018BF704728BF20F064
:103A000001007047B2F5801FBCBF184670474FEAEF
:103A1000410C1CF5001F02D2084600F0B7BD70B57E
:103A200000F0CEFB00000089FFF7F6BF4FF000402A
:103A3000A0F580007047000010B591EA030F48BF61
:103A400083F0004300F11884841A71EB030C05D253
:103A5000121943EB0C03001B61EB0C014FEA1154EC
:103A6000A4EB135CDFF81CE11EEA430F18BF9EEACB
:103A7000445F73D021EA045123EA0E0343F4801318
:103A8000DCF1200E32D322FA0CFE10EB0E0023FAEA
:103A90000CFE41EB0E01CCF1200E03FA0EFE10EBF2
:103AA0000E00CCF1200E51F10001B1F5801F32D291
:103AB00001EB045112FA0EF2BDE8104058BF7047F6
:103AC000401C38BF5FEA420218BF7047002814BF8D
:103AD00020F0010041F100014FEA410313F5001FFE
:103AE00038BF7047A1F1C04100F0B8BB012A43EBD9
:103AF0000302ACF1200CDCF11F0E32BF4FF0000EC0
:103B000023FA0CF310EB030041EB0451B4EB115F0B
:103B1000D0D0A1EB045101F58011490801EB04510B
:103B20005FEA30000ED350F1000038BF12FA0EFEEB
:103B300008D1BDE81040C9E7401C38BF5FEA420227
:103B4000CAD1C3E7BDE810404FEA410313F5001F97
:103B500038BF7047A1F1C04100F080BB9EEA445FCE
:103B600008D011EA5E0FBDE8104004BF01F000412B
:103B700000207047BDE8104070B500F021FB00BF89
:103B800064FBBE3E0000E0FF491058BFC1F1404158
:103B90005B1058BFC3F140438B42EFF30080704786
:103BA0002DE9C04130B4DFF8A0C23CEA111418BFBF
:103BB0003CEA131400F0EC801CEA111481EA0305BE
:103BC00044EAD57418BF1CEA131500F0C780A4EBB3
:103BD000050404F17F7404F500344FF0004545EA14
:103BE000C12145EAC32341EA505143EA52534FEA07
:103BF000C0204FEAC222994208BF904200F09C8048
:103C00004FEA13650FF24016765D4FEA134506FB47
:103C100005F7C7F1807706FB07F74FEAD737A7FB11
:103C200003687642A7FB06CEC8F5803838BFA8F1F6
:103C3000010807FB08E6A6FB028C4FF0000EE6FB2E
:103C400003CEDCF1000CCEF1004E38BFAEF1010E18
:103C5000A6FB0C584FF00007E6FB0E87A1FB08C639
:103C6000A0FB07CE16EB0E064FF0000545F1000550
:103C7000E1FB076515F1E04E7EBFA4F580345FEAF5
:103C800046066D4116F1800745F100054FEA1727FA
:103C900047EA05674FEA15254FEA0666A6F1DE46B4
:103CA000B6F1805F1FD9384605EBC47124F0010CD2
:103CB00001EB0C11BCF1FE6F02D8F0BCBDE8008135
:103CC00024425CBF01F5801E9EEAC47F02D4F0BC92
:103CD000BDE80081244238D4A1F1C041F0BCBDE868
:103CE000004100F0BBBA4FEAD02040EA41504FEA11
:103CF000D1214FEAD22242EA43524FEAD323A7FB13
:103D0000028607FB036605FB02661EEA0E0F58BF1C
:103D1000A6EB0056B6EB00564FEA520E4EEAC37EB3
:103D200018EB0E0E56EB530EBDD518EB02085E4194
:103D30007F1C55F10005B6E74FF480154FF00007E2
:103D40004FF000064FF00008ADE701F1C04101F06F
:103D500000414FF00000F0BCBDE800810CEA1315F3
:103D600011EA0C1F00D00CE013EA0C1F00F02580B4
:103D70004FF0000081EA030101F00041F0BCBDE812
:103D80000081F0BCBDE8004181EA030100F066BAA1
:103D9000F0BCBDE8004170B500F012FA097EFC3EAF
:103DA00000F007B84FF0000081EA030101F0004184
:103DB000704781EA030100F051BAF0BCBDE8004150
:103DC00022494FF000007047FFFDFBF9F7F5F4F2D0
:103DD000F0EEEDEBE9E8E6E4E3E1E0DEDDDBDAD8A6
:103DE000D7D5D4D3D1D0CFCDCCCBCAC8C7C6C5C404
:103DF000C2C1C0BFBEBDBCBBBAB9B8B7B6B5B4B31B
:103E0000B2B1B0AFAEADACABAAA9A8A8A7A6A5A405
:103E1000A3A3A2A1A09F9F9E9D9C9C9B9A999998C9
:103E20009797969595949393929191908F8F8E8E6C
:103E30008D8C8C8B8B8A89898888878786858584F9
:103E400084838382828181800000FF070000F87FE5
:103E500051EA030C17D41CF5801F58BFBCF5801F16
:103E600000F10680994218BF704708BF9042704722
:103E700007D711F5801F58BF13F5801F19D4994239
:103E80007047894270471CF5801F08D5BCF5801F1C
:103E9000F7D58B4218BF704708BF824270474FF476
:103EA000001C1CEB410F38BF1CEB430F01D28B42AF
:103EB000704770B500F084F9922449004FF000512A
:103EC0004FF08053FFF760BE4FEA41034FEA535370
:103ED000A3F58063D3F11E03C8BFD3F1210C0CDD21
:103EE0004FF0004242EAC12242EA505232FA03FC49
:103EF0008CEAE17CACEBE1707047102BC4BF002072
:103F0000704703F5787CBCF1FF3F04D06FF00042AE
:103F100082EA2100704770B500F052F9499224807E
:103F200000207047F2E710F0004248BF4042B0FA6C
:103F300080F310FA03F10AD0C3F11D0303F5806387
:103F400002EB03524FEA415002EBD12170474FF090
:103F500000007047B0FA80F310FA03F10AD0C3F101
:103F60001D0303F580634FEA03524FEA415002EB11
:103F7000D12170474FF000007047000051EA030C58
:103F800017D41CF5801F58BFBCF5801F00F10680B8
:103F9000994218BF704708BF9042704707D711F584
:103FA000801F58BF13F5801F19D49942704789426A
:103FB00070471CF5801F08D5BCF5801FF7D58B42D4
:103FC00018BF704708BF824270474FF4001C1CEBBB
:103FD000410F38BF1CEB430F01D28B42704770B5C5
:103FE00000F0EEF8922449004FF080514FF000535A
:103FF000FFF7CABD51EA030C17D41CF5801F58BF48
:10400000BCF5801F00F10680994218BF704708BFB9
:104010009042704707D711F5801F58BF13F5801FD6
:1040200019D499427047894270471CF5801F08D502
:10403000BCF5801FF7D58B4218BF704708BF82427E
:1040400070474FF4001C1CEB410F38BF1CEB430FB3
:1040500001D28B42704770B500F0B2F8922449004B
:104060004FF000514FF08053FFF78EBD70B5DFF871
:1040700048C11CEA111E1EBF1CEA13159EEA0C0F54
:1040800095EA0C0F00F06F8081EA03044EEAD47EBB
:10409000AE4421EA4C1123EA4C1341F4801143F45D
:1040A0008013AEF17F7EA1FB024CA0FB03653619A5
:1040B00055EB0C05A1FB034C4CF10003A0FB021CCB
:1040C00016EB0C06654153F10003094218BF46F098
:1040D000010613F4007F0BD14FEA03314FEA05309C
:1040E00041EA155140EA165034036FF003020AE02A
:1040F0004FEAC3214FEAC52041EA555140EA5650E4
:10410000F4026FF0020202EB2E4201EB025585EA47
:10411000CE710AD05FEA440C18BF24F0004450F17D
:10412000000041F1000120EAD47040F2FE7C6245BB
:1041300000D270BDA84214BF4FF080444FF04044FD
:10414000002E08BF0024BEF1806FA8BFA1F1C041BE
:10415000BDE8704080F2828001F1C04101F0004171
:104160004FF0000070470CEA13159EEA0C0F18BFC1
:1041700095EA0C0F06D081EA030E4FF000000EF016
:10418000004170BD00F01CF88900013E00F007B846
:1041900000F009B84FEA430C5FEA5C5C08D081EAA2
:1041A000030100F05BB84FEA410C5FEA5C5CF6D1BA
:1041B00002494FF0000070470000FF070000F87F41
:1041C0000EF1020E2EF0030E5EF8046B364205D49B
:1041D000012A43EB030515F5001F12D8012841EB16
:1041E000010C1CF5001F0CD80ED14FEAD17C0CEB52
:1041F0004C0C0CF1020C15F5001F08BF4CEBD37CE6
:1042000004E04FF0080C01E04FEAD37C0CEB4C05C6
:1042100026FA05F606F00706B6F1040C06D20EEBF8
:10422000860CBDE870404CF0010C6047DFE80CF0F4
:10423000090B02024FF00041A1F500214FF00000F0
:1042400070BD19461046012851EB010418BFD4F582
:10425000001484BF002001F0004170BD0808A0F5E3
:1042600000114FEA3101704710B591EA030F48BFC2
:1042700083F000433FF5E8AB841A71EB030C07D2DF
:104280008CF0004C121943EB0C03001B61EB0C018A
:104290004FEA1154A4EB135CDFF89CE11EEA430FD4
:1042A00018BF9EEA445F00F0B08021EA045123EA7F
:1042B0006E035242C3EB6E0338BF5B1EDCF1200E6F
:1042C00025D322FA0CFE10EB0E0043FA0CFE41EB54
:1042D0000E01CCF1200E03FA0EFE10EB0E00CCF115
:1042E000200E51F1000129D401EB045112FA0EF213
:1042F000BDE8104058BF7047401C1CBFB2F1004FD2
:10430000704700280CBF491C20F00100704712EBD9
:10431000020E43EB030218BF4FF0010E4EEA4202B9
:10432000ACF1200CDCF11E0E54D943FA0CFE10EB5C
:104330000E00CCF11E0E51F1FF31D5D50EF1010E5C
:1043400012FA0EFE404141EB010101EB445C5FEAD1
:104350005C5C10D901EB045110EBDE7038BFBEF18C
:10436000004FBDE8104018BF704700280CBF491C23
:1043700020F00100704730D24FEAD42C24F40064BE
:1043800011F500111BD0B1FA81F20B3AA41AA41E48
:10439000D2F12003914030FA03F31943904001EB2E
:1043A000CC7101EB0451002CBDE81040A8BF704750
:1043B00001F1C04101F000414FF000007047B0FA38
:1043C00080F310FA03F100D110BDE41A173C480540
:1043D000C90AE4E701EB045110BD49104FEA30006F
:1043E00001EB0451BDE8104002E04FF000017047BE
:1043F0004A0008BF0042F8D0B2F5001F28BF70473E
:1044000001F000414FF0000070479EEA445F07D082
:1044100011EA5E0FBDE8104004BF00210020704784
:10442000BDE8104070B5FFF7CBFE00BF40DFF63EA1
:10443000104683F0004170470000E0FF43004FEA60
:10444000D30C4FEA3C0C43401FBF40070CF16051B6
:1044500013F0FE4F70471CF0006F03D10CF00041C9
:10446000002070470CF0004343EA507040EACC0053
:1044700010B500F038F800BF000000924FEA0001CC
:10448000FFF7ECBE4FF00041A1F500214FF0000016
:10449000704710B5FFF7DCFC0CBF0120002010BDF9
:1044A00010B5FFF7D5FC14BF0120002010BD10B5DA
:1044B000FFF764FD8CBF0120002010BD10B5FFF791
:1044C0005DFD2CBF0120002010BD10B5FFF792FD4F
:1044D00094BF0120002010BD10B5FFF78BFD34BF45
:1044E0000120002010BD0EF1020E2EF0030E5EF82A
:1044F000044B244204D44FEA4102B2F17F4F11D859
:104500004FEA4003B3F17F4F0CD80ED14FEAD07C75
:104510000CEB4C0C0CF1020CB2F17F4F08BF4CEBD2
:10452000D17C04E04FF0080C01E04FEAD17C0CEBA9
:104530004C0324FA03F404F00704B4F1040C06D28B
:104540000EEB840CBDE810404CF0010C6047DFE836
:104550000CF0070802024FF00040A0F5800010BDEB
:104560000846420018BFD2F1807288BF00F00040B8
:1045700010BDF1EE100A4FF6FF71C0F2C03120EA13
:10458000010040F04070E1EE100A7047FF2141EA5F
:10459000D050C0057047726F7373657269616C5F4C
:1045A0006D7367732F5265717565737450617261B5
:1045B0006D0000000000000000000000A12A0008BB
:1045C0007D180008311B0008211B000800000000B6
:1045D000000000005D2C0008791B0008111C000879
:1045E000011C00080000000000000000B92C0008B9
:1045F000511C0008011E0008F11D00080000000009
:1046000000000000691E00085D1E0008491E000829
:10461000951E00080000000000000000292100088D
:1046200065220008A126000800000000000000002C
:10463000B92E0008B92E0008B92E0008B92E0008BE
:104640000000000000000000B92E0008B92E00088C
:10465000B92E00080000000000000000B92E00087C
:10466000B92E0008B92E0008B92E0008000000007D
:1046700000000000D12D000835290008D5290008C8
:10468000C52900080000000000000000412E0008BD
:10469000112A0008692A0008592A00084D65737319
:1046A0006167652066726F6D206465766963652059
:1046B00064726F707065643A206D657373616765CD
:1046C000206C6172676572207468616E2062756625
:1046D0006665722E00306164353166383866633441
:1046E000343839326638633130363834303737361B
:1046F0003436303035003131616264373331633202
:1047000035393333323631636436313833626431AC
:10471000326436323935007374645F6D7367732F9A
:10472000496E7431360038353234353836653334B5
:10473000666264376362316330386335663566318B
:1047400063613065353700396630653938626461D8
:1047500036353938313938366464663533616661E7
:104760003761343065343900636437313636633746
:104770003463353532633331316662636332666583
:104780003561376263323839007374645F6D736703
:10479000732F54696D6500726F7373657269616C14
:1047A0005F6D7367732F4C6F6700726F7373657201
:1047B00069616C5F6D7367732F546F706963496EC5
:1047C000666F006C6566745F776865656C5F7175B0
:1047D0006572790072696768745F776865656C5F98
:1047E000717565727900282070776D31203C3D200D
:1047F0003636353335202920262620282070776D3F
:1048000032203C3D2036363533352029002870775C
:104810006D31203C3D203636353335292026262083
:104820002870776D32203C3D2036363533352900EF
:10483000425453373936302E630000006048000878
:104840000000002020000000D4010008804800087B
:104850002000002070150000F00100086DC6FFFF69
:1048600001000000010000005537000889360008EB
:10487000BD3500084D3800088137000801000000F0
:04000005080002915C
:00000001FF
