:020000040800F2
:1000000090150020850200088D0200088F0200086C
:100010009102000893020008950200080000000009
:10002000000000000000000000000000970200082F
:1000300099020008000000009B020008690B0008FC
:100040009F0200089F0200089F0200089F0200080C
:100050009F0200089F0200089F0200089F020008FC
:100060009F0200089F0200089F0200089F020008EC
:100070009F0200089F0200089F0200089F020008DC
:100080009F0200089F0200089F0200080000000075
:100090000000000000000000000000009F020008B7
:1000A0009F0200089F0200089F0200089F020008AC
:1000B0009F0200089F0200089F0200089F0200089C
:1000C0009F0200089F0200089F0200089F0200088C
:1000D0009F0200089F0200089F0200080000000025
:1000E0009F0200089F0200089F0200080000000015
:1000F0000000000000000000000000009F02000857
:10010000000000009F0200089F0200089F020008F4
:1001100000000000000000000000000000000000DF
:100120009F0200089F0200089F0200089F0200082B
:100130009F02000800000000000000000000000016
:100140000000000000000000000000009F02000806
:100150009F0200089F0200089F0200089F020008FB
:100160009F0200089F02000800000000000000003D
:10017000000000000000000000000000000000007F
:10018000000000009F0200080000000000000000C6
:100190009F0200089F02000800F002F800F042F8F9
:1001A0000AA090E8000C82448344AAF10107DA45D2
:1001B00001D100F037F8AFF2090EBAE80F0013F0E2
:1001C000010F18BFFB1A43F00103184764440000F5
:1001D00084440000103A24BF78C878C1FAD8520786
:1001E00024BF30C830C144BF04680C6070470000B1
:1001F0000023002400250026103A28BF78C1FBD830
:10020000520728BF30C148BF0B6070471FB504F0CC
:10021000AAF89DE8030000F08DF900F05DF91FBD1C
:1002200010B510BD00F094FA1146FFF7EFFF02F091
:1002300065FF00F0B2FA03B4FFF7F2FF03BC00F071
:100240004DFA00000E480268D2F800D0BDE8F00F69
:100250000FBC5DF804CB01B05DF804EB01B062B6F1
:10026000704772B62DE9F00F05480168C1F800D05B
:1002700049680160D1F800D0BDE8F00F62B6704760
:10028000600500200948804709480047FEE7FEE76F
:10029000FEE7FEE7FEE7FEE7FEE7FEE7FEE7FEE736
:1002A00004480549054A064B70470000710B0008D9
:1002B00099010008900F0020901500209011002057
:1002C0009011002070B50D460646041F00F016F987
:1002D0000268BDB1DEB105F10B0020F00701A942B3
:1002E0003CBF002070BD23688B4238BF506813D3D9
:1002F0005A1A082A36D3601840F8042B216000F0FF
:1003000077F92FE0304600F073F9002070BD2846E1
:10031000BDE8704000F03DB9002818BFA0423CBFC6
:1003200002464068F8D303EB040C84451CD1D0F896
:1003300000C06344994217D8A3EB010CBCF1080F2D
:100340000DD3D0F804C06318C3F804C0D4F800C0BB
:1003500000686044401A18602160536002E0236026
:1003600040685060201D70BD284600F012F905005D
:1003700008D031462068021F284600F075F9201D7C
:1003800000F036F9284670BD0EB5054614460E46F7
:1003900013A000F05FF9284600F05CF916A000F009
:1003A00059F9304600F056F915A000F053F9002134
:1003B0008DF80B100A210DF10A008DF80A1008E0E3
:1003C00094FBF1F201FB124294FBF1F4303200F89D
:1003D000012D002CF4DC00F03DF900F030F90000B4
:1003E0002A2A2A20617373657274696F6E206661B0
:1003F000696C65643A2000002C2066696C652000F9
:100400002C206C696E65200010B5431C02E010F8CA
:10041000011B71B18107FAD14FF0013202C88C1A69
:100420008C4314EAC211F9D0C01A0A0603D0C01EC8
:1004300010BDC01A10BD0A0401D0801E10BD0902F3
:10044000FCD0401E10BD032A40F2308010F0030C97
:1004500000F0158011F8013BBCF1020F624498BF17
:1004600011F801CB00F8013B38BF11F8013BA2F1B4
:10047000040298BF00F801CB38BF00F8013B11F02F
:10048000030300F0F180083AC0F0088051F8043B03
:10049000083A51F804CBA0E80810F5E7121D5CBF3C
:1004A00051F8043B40F8043BAFF30080D20724BF6F
:1004B00011F8013B11F801CB48BF11F8012B24BF03
:1004C00000F8013B00F801CB48BF00F8012B704752
:1004D000704770477047000070B5064C7C44064D6D
:1004E0007D4404E02046016808448047241DAC4256
:1004F000F8D170BD704100007041000000487047A5
:1005000028000020704770477047704738B5044690
:100510000A4600206946AFF30080002808BF38BDB6
:1005200002460099204600F0EAF8012038BD01207B
:1005300000F006B9F8B5AFF30080054600200C4680
:10054000102000BF0646A819A0420DD932466946C0
:100550000020AFF30080070008BF00F0F1F800981A
:10056000A04218BF0546C419FFF7C8FF056007463B
:10057000F01D20F007004619284600F0B9F8B442F3
:1005800008BFF8BDA21B31463868BDE8F84000F04E
:10059000B6B870B50646FFF7B1FF056806F10B0067
:1005A00020F00704B4429CBF002070BD2B466A684F
:1005B000BAB11068A04210D304F1080188423CBFD0
:1005C0005068586007D35168101941601168091BC1
:1005D000016058601460101D70BD13465268002AF7
:1005E000E7D121462846FFF791FF0028DED170BDF4
:1005F00070B50446051FFFF781FF0068002C14BF8B
:10060000446870BD002C18BFAC423CBF20466468F3
:10061000F8D301680A18AA4218BF456003D12A68B6
:1006200005461144016028684119A1421CBF6C6055
:1006300070BD6168696021680844286070BD10B5AC
:10064000002000F076F8FFF7EBFDBDE81040012038
:1006500000F044B810B5044602E0641C00F036F81F
:1006600020780028F9D110BD10B5203AC0F00B80D9
:10067000B1E81850A0E81850B1E81850A0E8185098
:10068000203ABFF4F5AF5FEA027C24BFB1E818500E
:10069000A0E8185044BF18C918C0BDE810405FEA70
:1006A000827C24BF51F8043B40F8043B08BF7047EC
:1006B000D20728BF31F8023B48BF11F8012B28BFF1
:1006C00020F8023B48BF00F8012B704708B5694687
:1006D0008DF800000320ABBE08BD000001491820C2
:1006E000ABBEFEE726000200004870472000002055
:1006F00000210160C0E901107047102070470346D7
:1007000040688C46002818BF88423CBF03464068BA
:10071000F8D318681844884207D00CF1030020F081
:100720000700001D411A521A0146081D0A60FFF712
:100730005FBF10B500F040F8BDE8104000F036B8DB
:1007400010B500F051F8BDE8104000F02FB8704728
:100750007546FFF7C9FFAE4605006946534620F0CF
:100760000700854618B020B5FFF79AFDBDE8204088
:100770004FF000064FF000074FF000084FF0000B5D
:10078000AC46ACE8C009ACE8C009ACE8C009ACE8CC
:10079000C00921F007018D46704710B50446AFF33C
:1007A00000802046BDE81040FFF745BD002801D07D
:1007B000FFF794BF7047000010B5002102A000F0C1
:1007C0003BF8012010BD0000534947414252543AC2
:1007D0002041626E6F726D616C207465726D696E1E
:1007E0006174696F6E00000010B5012805D000210A
:1007F00003A000F021F8012010BD09A1F8E70000D6
:1008000053494752544D454D3A204F7574206F66F9
:100810002068656170206D656D6F72790000000061
:100820003A2048656170206D656D6F727920636F45
:10083000727275707465640070B505460C460A20C6
:1008400000E06D1CFFF742FF35B128780028F8D191
:1008500002E0641CFFF73AFF14B120780028F8D1B9
:10086000BDE870400A20FFF731BF000082B0019060
:10087000ADF8021046F28801C4F20201086820F0C7
:1008800001000860086820F0C0000860086840F4B3
:1008900080600860086840F400700860086840F4F0
:1008A00000300860086840F480400860086840F440
:1008B00080500860019846F29402C4F2020210606F
:1008C000BDF8020046F28C02C4F20202106046F249
:1008D0009002C4F2020244F20440C4F2000010602C
:1008E000086840F00100086002B0704782B00190D3
:1008F000ADF8021046F2A001C4F20201086820F02F
:1009000001000860086820F0C0000860086840F432
:1009100080600860086840F400700860086840F46F
:1009200080700860086840F400300860086840F48F
:1009300080400860086840F480500860019846F2E2
:10094000AC02C4F202021060BDF8020046F2A4023A
:10095000C4F20202106046F2A802C4F2020244F29B
:100960000440C4F200001060086840F00100086014
:1009700002B0704740F60001C4F20201086820F49A
:1009800040500860086820F44030086040F60C01D0
:10099000C4F20201086820F440500860086820F49E
:1009A000405008607047000080B582B0FFE702F059
:1009B000E5FC0190019838B9FFE740F20001C2F26E
:1009C0000001012008600BE00198012807DBFFE728
:1009D00040F20001C2F2000100200860FFE7FFE7DB
:1009E00040F20000C2F20000006801281DD1FFE7BC
:1009F00040F6F060C2F20000006847F6FF718842DE
:100A00000AD1FFE740F6F061C2F2000148F20000AF
:100A1000CFF6FF70086007E040F6F061C2F2000117
:100A2000086801300860FFE719E040F6F060C2F2A4
:100A30000000006810F5004F08D1FFE740F6F061B4
:100A4000C2F2000147F6FF70086007E040F6F0616F
:100A5000C2F20001086801380860FFE7FFE740F6CE
:100A6000F060C2F20000006840F2AC51C2F2000136
:100A700088809CE780B582B0FFE702F08BFC019094
:100A8000019838B9FFE740F20401C2F200010020EA
:100A900008600BE00198012807DBFFE740F2040142
:100AA000C2F2000101200860FFE7FFE740F2040006
:100AB000C2F20000006801281DD1FFE740F6F46093
:100AC000C2F20000006847F6FF7188420AD1FFE7D2
:100AD00040F6F461C2F2000148F20000CFF6FF7068
:100AE000086007E040F6F461C2F2000108680130D6
:100AF0000860FFE719E040F6F460C2F20000006809
:100B000010F5004F08D1FFE740F6F461C2F2000192
:100B100047F6FF70086007E040F6F461C2F200019A
:100B2000086801380860FFE7FFE740F6F460C2F2AA
:100B30000000006840F64471C2F2000188809CE722
:100B400080B584B08DF80F00029101929DF80F10CE
:100B500040F20800C2F2000050F8212002980199EA
:100B6000904704B080BD000080B500F01FF880BD44
:100B70004EF68851CEF20001086840F4700008601B
:100B80007047000005480649016006484FF0000123
:100B9000016005484FF007010160704714E000E074
:100BA000FFA14A0418E000E010E000E040F21C0061
:100BB000C2F20000026840F26C51C2F20001086803
:100BC000104408607047000043F64001C4F202017F
:100BD000086840F0010008600021C4F202010868C2
:100BE00020F00F000860086840F00A0008600868FC
:100BF00020F030000860086840F0200008600868B5
:100C000020F0C0000860086840F0800008602021E3
:100C1000C4F20201086840F001000860086840F072
:100C200010000860086840F480700860086840F4AC
:100C3000805008602421C4F20001002008602C22AA
:100C4000C4F200024FF6FF7111602821C4F20001C6
:100C500008603421C4F2000108603821C4F20001A8
:100C600008603C21C4F2000108604021C4F2000188
:100C700008604FF08041086840F080000860086814
:100C800020F0100008601822C4F20002106820F062
:100C900003001060106840F060001060106820F4DD
:100CA00040701060106840F4C04010601C22C4F214
:100CB0000002106820F003001060106840F060002F
:100CC0001060106820F440701060106840F4C0405C
:100CD00010602022C4F20002106840F00100106091
:100CE000106840F010001060106840F480701060D0
:100CF000106840F480501060086840F001000860FF
:100D00007047000080B501F0A5FF01F0ABFF01F0D6
:100D1000B1FF01F0B7FF01F0BDFF01F0C3FF01F02B
:100D2000D3FF80BD80B594B013908DED100B8DED89
:100D30000E1B40F60870C2F2000090ED000B00F0B0
:100D40002BFB8DED0C0B40F23450C2F2000000681A
:100D500002F0DFFF9DED0C1B41EC100B51EC110B71
:100D600053EC102B03F0ABFA40B9FFE740F23451DB
:100D7000C2F2000108680130086026E040F6087001
:100D8000C2F2000090ED000B00F006FB8DED0A0BA7
:100D900040F23450C2F20000006802F0BAFF9DED4C
:100DA0000A1B41EC100B51EC110B53EC102B03F010
:100DB0007FFA40B9FFE740F23451C2F200010868FF
:100DC0000138086000E0FFE7FFE740F61070C2F26C
:100DD000000090ED000B00F0DFFA8DED080B40F203
:100DE0003850C2F20000006802F093FF9DED081B2E
:100DF00041EC100B51EC110B53EC102B03F05FFA8C
:100E000040B9FFE740F23851C2F2000108680130F2
:100E1000086026E040F61070C2F2000090ED000B72
:100E200000F0BAFA8DED060B40F23850C2F2000025
:100E3000006802F06EFF9DED061B41EC100B51ECBB
:100E4000110B53EC102B03F033FA40B9FFE740F2DB
:100E50003851C2F2000108680138086000E0FFE77D
:100E6000FFE740F23450C2F200000068B0F5807F26
:100E700003DBFFE7FF20059006E040F23450C2F2AA
:100E8000000000680590FFE7059840F23451C2F277
:100E90000001086040F23850C2F200000068B0F56E
:100EA000807F03DBFFE7FF20049006E040F238502C
:100EB000C2F2000000680490FFE7049840F2385145
:100EC000C2F20001086040F23450C2F20000006833
:100ED000B0F1FF3F03DCFFE70020039006E040F2A3
:100EE0003450C2F2000000680390FFE7039840F21C
:100EF0003451C2F20001086040F23850C2F20000E2
:100F00000068B0F1FF3F03DCFFE70020029006E03D
:100F100040F23850C2F2000000680290FFE70299E8
:100F200040F23850C2F20000016040F23451C2F287
:100F30000001096801EB012140F61872C2F20002BB
:100F40001160006800EB002040F61C71C2F2000145
:100F50000860139801380146019103283CD8019993
:100F6000DFE801F002101E2C40F61870C2F20000FB
:100F7000016840F61C70C2F2000002680120FFF711
:100F8000DFFD2FE040F61870C2F20000016840F665
:100F90001C70C2F2000002680220FFF7D1FD21E0C0
:100FA00040F61870C2F20000016840F61C70C2F2F0
:100FB000000002680320FFF7C3FD13E040F618703D
:100FC000C2F20000016840F61C70C2F20000026824
:100FD0000420FFF7B5FD05E0002210461146FFF79B
:100FE000AFFDFFE714B080BD80B586B040F2AC50D5
:100FF000C2F20000B0F9040040F23C51C2F200011C
:101000000968401A4FF6FF71084448F20101C8F21E
:10101000000151FB0002D11301EBD271C1EB014180
:10102000401A0590059842F21171884206DBFFE7ED
:1010300005984FF6FF71401A0590FFE7059802F0FA
:1010400068FE41EC100B9FED401B53EC112B51EC53
:10105000100B02F099FC41EC100B8DED000B01F030
:1010600047FE02F06DFE41EC100B40F24050C2F220
:101070000000039090ED001B53EC112B51EC100B72
:1010800002F0E8FF9DED001B41EC100B51EC110B41
:1010900053EC102B02F078FC41EC100B40F6707012
:1010A000C2F2000080ED000B90ED000B9FED281BBD
:1010B00053EC112B51EC100B02F0CEFE41EC100B57
:1010C00051EC100B9FED240B53EC102B02F05CFC49
:1010D00041EC100B51EC100B9FED210B53EC102B3E
:1010E00002F052FC41EC100B51EC100B02F066FBCD
:1010F000014640F2B450C2F20000016090ED000AD7
:10110000BDEEC00A10EE100A40F28851C2F2000192
:10111000888040F2AC50C2F20000B0F9040040F206
:101120003C51C2F20001086001F0E2FD02F008FE4D
:101130000246039804920A46049942EC101B80ED83
:10114000000B06B080BD00BF0000000080A9C340B6
:1011500000000000004CDD400000000000000840DE
:10116000C3F5285C8FC2A53F80B586B040F64470B9
:10117000C2F20000B0F9040040F24851C2F200018E
:101180000968401A4FF6FF71084448F20101C8F29D
:10119000000151FB0002D11301EBD271C1EB0141FF
:1011A000401A0590059842F21171884206DBFFE76C
:1011B00005984FF6FF71401A0590FFE7059802F079
:1011C000A8FD41EC100B9FED401B53EC112B51EC93
:1011D000100B02F0D9FB41EC100B8DED000B01F070
:1011E00087FD02F0ADFD41EC100B40F25050C2F211
:1011F0000000039090ED001B53EC112B51EC100BF1
:1012000002F028FF9DED001B41EC100B51EC110B7F
:1012100053EC102B02F0B8FB41EC100B40F6787049
:10122000C2F2000080ED000B90ED000B9FED281B3B
:1012300053EC112B51EC100B02F00EFE41EC100B95
:1012400051EC100B9FED240B53EC102B02F09CFB88
:1012500041EC100B51EC100B9FED210B53EC102BBC
:1012600002F092FB41EC100B51EC100B02F0A6FACD
:10127000014640F64C70C2F20000016090ED000A99
:10128000BDEEC00A10EE100A40F62071C2F2000155
:10129000888040F64470C2F20000B0F9040040F2C9
:1012A0004851C2F20001086001F022FD02F048FD41
:1012B0000246039804920A46049942EC101B80ED02
:1012C000000B06B080BD00BF0000000080A9C34035
:1012D00000000000004CDD4000000000000008405D
:1012E000C3F5285C8FC2A53F80B582B0019040F263
:1012F0007451C2F20001012008600198B0F90400A5
:1013000002F007FD41EC100B40F68070C2F20000C5
:1013100080ED000B01F0ECFC44F6D351C1F2620108
:10132000A0FB0110800902F00BFD41EC100B40F214
:101330008050C2F2000080ED000B02B080BD0000C2
:1013400080B582B001900198B0F9040002F0E1FC90
:1013500041EC100B40F68870C2F2000080ED000BEB
:1013600040F27851C2F200010120086001F0C0FC97
:1013700044F6D351C1F26201A0FB0110800902F0D2
:10138000DFFC41EC100B40F28050C2F2000080ED17
:10139000000B02B080BD000082B08DED000B009804
:1013A00001999FED050B52EC103BD20F62F3DF71F8
:1013B00041EC100B02B0704700000000000000007C
:1013C00081B08DED000A9DED000AB0EEC00A01B0BB
:1013D0007047000081B08DED000A9DED000AB0EE6F
:1013E000C00A01B07047000083B0019000910198DD
:1013F000012807DBFFE70098012803DBFFE7012056
:10140000029044E00198012804DBFFE700980028DF
:101410000FD4FFE70198012803DBFFE7009840B1F4
:10142000FFE7019840B9FFE70098B0F1FF3F03DC08
:10143000FFE7022002902AE00198B0F1FF3F04DCB0
:10144000FFE7009800280FDCFFE7019820B9FFE7CD
:101450000098002808DCFFE70198B0F1FF3F06DCA8
:10146000FFE7009818B9FFE7032002900FE001980A
:10147000B0F1FF3F08DCFFE70098B0F1FF3F03DC6D
:10148000FFE70420029002E000200290FFE70298AC
:1014900003B0704781B0009046F28C00C4F20200A5
:1014A0000068C0F500706FF35F2001B07047000066
:1014B00080B582B0019001984FF40071FFF7D6F922
:1014C00002B080BD80B582B001900198FFF7F0FFB7
:1014D00002B080BD80B584B00390039800904FF0B7
:1014E000FF310291D0F800120191FFF7D3FF0146BE
:1014F000019888420FD0FFE70099D1F80002421C02
:10150000C1F80022085C0290D1F800026FF35F205E
:10151000C1F80002FFE7029804B080BD80B582B038
:10152000019001F0E5FB02B080BD000080B584B001
:1015300003900398019040F25850C2F200000078E6
:10154000C007002844D1FFE7019940F25852C2F287
:10155000000201201070D1F80404D1F80814884268
:101560002FD0FFE70198D0F80414D0F8080488427F
:1015700008D2FFE70199D1F80404D1F80814401A01
:10158000009006E00198D0F80804C0F500700090C3
:10159000FFE701980099ADF80A10D0F80814084444
:1015A00000F50170BDF80A10FFF7A0F90199D1F814
:1015B0000804BDF80A2010446FF35F20C1F8080446
:1015C000FFE740F25851C2F2000100200870FFE727
:1015D00004B080BD80B588B0079006910592079849
:1015E0000290059804900498B0F5007F03DCFFE7B3
:1015F0000498019003E04FF400700190FFE7029916
:10160000019804900498D1F80414C1F5007188423F
:1016100003D8FFE70498009006E00298D0F804048D
:10162000C0F500700090FFE7029800990391D0F890
:101630000414084400F501700699039AFEF703FFAD
:101640000299D1F80404049A10446FF35F20C1F8A2
:1016500004040498039988420BD0FFE7029800F530
:1016600001700699039B1944049AD21AFEF7EBFE07
:10167000FFE70298FFF75AFF08B080BD81B00090E5
:1016800000980021C0F80012C0F80414C0F8081433
:1016900001B0704780B58EB00D900C910D990091FE
:1016A00000200B900C980B9A805C0A900C980B9A77
:1016B000104442780A9840EA02200A900C980B9A4B
:1016C000104482780A9840EA02400A900C980B9ADB
:1016D0001044C2780A9840EA02600A900B980430DD
:1016E0000B900A984968884209D9FFE70098C068BA
:1016F0000A998900FEF7E6FD0099C860FFE70099A6
:101700000A98486000200990FFE700990998496805
:10171000884230D2FFE70098002108910C990B9A7B
:101720008A5C0899114308910C990B9A11444A78E4
:10173000089941EA022108910C990B9A11448A7880
:10174000089941EA024108910C990B9A1144CA7810
:10175000089941EA02610891089981600B99043166
:101760000B91C168099A806841F82200FFE7099847
:1017700001300990C9E700990C980B9A805C07909A
:101780000C980B9A10444278079840EA0220079080
:101790000C980B9A10448278079840EA0240079010
:1017A0000C980B9A1044C278079840EA02600790A0
:1017B0000B9804300B9007980969884209D9FFE714
:1017C0000098806907998900FEF77CFD009988617F
:1017D000FFE700990798086100200690FFE700994D
:1017E00006980969884230D2FFE7009800210591E8
:1017F0000C990B9A8A5C0599114305910C990B9AE7
:1018000011444A78059941EA022105910C990B9AF5
:1018100011448A78059941EA024105910C990B9A85
:101820001144CA78059941EA02610591059941611F
:101830000B9904310B918169069A406941F82200A5
:10184000FFE7069801300690C9E700990C980B9ABB
:10185000805C04900C980B9A10444278049840EAFB
:10186000022004900C980B9A10448278049840EA65
:10187000024004900C980B9A1044C278049840EAF5
:10188000026004900B9804300B900498C969884258
:1018900009D9FFE70098406A04998900FEF712FD14
:1018A00000994862FFE700990498C86100200390FE
:1018B000FFE700990398C96988423AD2FFE70C987C
:1018C0000B99014402A800F0B1FE0B9804300B9074
:1018D0000B980190FFE701980B99029A11448842F6
:1018E0000BD2FFE70C98019A8118805C01F8010C7B
:1018F000FFE7019801300190EDE700980C9A0B99F1
:10190000029B19440A44002102F8011C0C990B9A0D
:10191000114401390162029A0B9911440B91416AF9
:10192000039A006A41F82200FFE703980130039010
:10193000BFE70B980EB080BD81B0009044F23B50E1
:10194000C0F6000001B0704781B0009044F28A30C8
:10195000C0F6000001B0704780B582B001900198D8
:10196000009000F099FE009844F2A831C0F6000102
:1019700008310160002141608160C1600161416105
:101980008161C1610162416202B080BD80B586B0F3
:101990000590049105990091002003900498039A02
:1019A000805C087103980130039004980399014406
:1019B00002A800F03BFE03980430039003980190C6
:1019C000FFE701980399029A114488420BD2FFE77E
:1019D0000498019A8118805C01F8010CFFE70198D6
:1019E00001300190EDE70099049A0398029B184496
:1019F0000244002002F8010C0498039A10440138B4
:101A000088600299039808440390039806B080BD4B
:101A100081B0009044F2EA40C0F6000001B0704787
:101A200081B0009044F28B50C0F6000001B07047C6
:101A300080B582B001900198009000F02DFE0098D2
:101A400044F2C031C0F6000108310160002101718B
:101A500044F2D951C0F60001816002B080BD00009F
:101A600080B58CB00B900A910B99019100200990E0
:101A70000A98099A805C88800A98099A10444278EA
:101A8000888840EA022088800998023009900A98E4
:101A90000999014408A800F0C9FD0998043009908B
:101AA00009980790FFE707980999089A1144884216
:101AB0000BD2FFE70A98079A8118805C01F8010CA5
:101AC000FFE7079801300790EDE701990A9A099816
:101AD000089B18440244002002F8010C0A98099A55
:101AE00010440138886008990998084409900A98B8
:101AF0000999014406A800F099FD0998043009905D
:101B000009980590FFE705980999069A11448842BB
:101B10000BD2FFE70A98059A8118805C01F8010C46
:101B2000FFE7059801300590EDE701990A9A0998B9
:101B3000069B18440244002002F8010C0A98099AF6
:101B400010440138C86006990998084409900A9819
:101B50000999014404A800F069FD0998043009902E
:101B600009980390FFE703980999049A1144884261
:101B70000BD2FFE70A98039A8118805C01F8010CE8
:101B8000FFE7039801300390EDE701990A9A09985D
:101B9000049B18440244002002F8010C0A9A099B95
:101BA0001A44013A0A61049B099A1A440992029064
:101BB0000A98099A825C0298104302900A98099A3E
:101BC00010444278029840EA022002900A98099A4A
:101BD00010448278029840EA024002900A98099ADA
:101BE0001044C278029840EA02600290029848616C
:101BF00009980430099009980CB080BD81B000901C
:101C000044F2C940C0F6000001B0704781B00090B6
:101C100044F29E50C0F6000001B0704780B582B01B
:101C200001900198009000F037FD009844F2D831FF
:101C3000C0F60001083101600021818044F2D952D0
:101C4000C0F600028260C2600261416102B080BDE4
:101C500080B582B0019001980C3000F0CFFD02B049
:101C600080BD000081B000900098806901B070478D
:101C700080B584B003900291039800900C300190DD
:101C8000029900F08FFD009901984969884704B0D6
:101C900080BD000080B582B0019001980C3000F04A
:101CA000A5FD02B080BD000080B586B0059004910E
:101CB000039202930598019000F084FC019844F28D
:101CC000F031C0F60001083101600C3000F09EFDDB
:101CD000019803994161029981610499816006B07C
:101CE00080BD000080B58CB00B900B98039005A8C8
:101CF000FFF794FF00200490FFE7049818283FDCCA
:101D0000FFE70398049900EB8100D0F8200890B316
:101D1000FFE7039800F502600290049950F8211043
:101D20008968ADF81810049950F8211009680791D6
:101D3000049950F821004068016889688847014685
:101D400002980891049950F8210040680168C96818
:101D500088470146029809914FF400710A9104994D
:101D600050F8210000F0ACFC0146039802681368AB
:101D700005AA9847FFE7FFE7049801300490BCE705
:101D800000200490FFE7049818283EDCFFE7039842
:101D9000049900EB8100D0F8840888B3FFE703982A
:101DA00000F684000190049950F821104968ADF8BC
:101DB0001810049950F8211089680791049950F877
:101DC00021000168896888470146019808910499B3
:101DD00050F821000168C9688847014601980991B7
:101DE0004FF400710A91049950F821000168496884
:101DF0008847014603980268136805AA9847FFE7D9
:101E0000FFE7049801300490BDE70399012081F8B1
:101E1000FC080CB080BD000080B586B00590059828
:101E2000019002A8009000F0A9FC0198009A0168B6
:101E30000B680A21984701980430FFF76FFB01995E
:101E4000C1F8100406B080BD80B588B007908DF849
:101E50001B1005920798009002A80190FFF7E8FD7B
:101E60000098019A9DF81B108DF80C1005990491AB
:101E700001680B680721984708B080BD80B584B021
:101E800003900291039800900430FFF747FB009BFA
:101E9000019002980168019844F6D352C1F262029F
:101EA000A0FB02C06FEA9010014403F21440C3F893
:101EB000141402994968DDF804E0AEFB02C29209ED
:101EC0004FF47A7C02FB1CE243F6095C02FB0CF245
:101ED000A1EB82114CF60022C3F69A320A4403F5B4
:101EE0008361C3F8182400F085FB04B080BD0000B6
:101EF00080B588B0069005910492069800900598E8
:101F0000642809DBFFE7009890F8FC08C00718B9BF
:101F1000FFE70020079062E00099049801F2276132
:101F200002681268904700990390FF2081F820060C
:101F3000FE2081F82106039881F822060398000A02
:101F400081F8230691F8220691F823261044C04315
:101F500081F82406059881F825060598000A81F87D
:101F600026060020029005200190FFE701980399C2
:101F7000073188420DDAFFE700980199084490F88C
:101F80002016029808440290FFE701980130019062
:101F9000ECE700990398073003900298C043039A36
:101FA00011440132039281F820060398B0F5007FB6
:101FB0000ADCFFE70099081D01F5C461039AFFF7E9
:101FC00009FB039807900AE0009844F29041C0F69C
:101FD000000100F01BF84FF0FF300790FFE7079873
:101FE00008B080BD80B582B00190019800900430A7
:101FF000FFF768FA00990020C1F8E808C1F8EC087A
:10200000C1F8F408C1F8F00802B080BD80B582B014
:10201000019000910198009A0321FFF715FF02B08B
:1020200080BD000080B586B0049004980190043013
:10203000FFF774FA019903900398D1F80419401A34
:1020400042F6F921884205D3FFE70199002081F883
:10205000FC08FFE70198D0F8E80868B1FFE70199AC
:102060000398D1F80819884205D9FFE701990020A3
:10207000C1F8E808FFE7FFE7FFE70198D0F81C0484
:1020800088B1FFE701980430FFF748FA0199039AF5
:10209000801AD1F81C14884204D9FFE76FF00100C0
:1020A000059084E1FFE701980430FFF713FA0290EE
:1020B0000298B0F1FF3F01DCFFE75DE10198029A71
:1020C000D0F8F8181144C0F8F818D0F8E808072834
:1020D00019D1FFE701980299D0F8F438C2180133FA
:1020E000C0F8F43882F82014D0F8EC180139C0F8A0
:1020F000EC18D0F8EC0828B9FFE701990820C1F8DE
:10210000E808FFE737E10198D0F8E80820BBFFE7CF
:102110000298FF280BD1FFE70199D1F8E8080130B8
:10212000C1F8E80803981430C1F8080913E00198D1
:102130000430FFF7F3F90399401A41F289318842DC
:1021400008D3FFE70199002081F8FC086FF0010037
:1021500005902CE1FFE70DE10198D0F8E80801288F
:102160001AD1FFE70298FE2807D1FFE70199D1F8BD
:10217000E8080130C1F8E8080DE001980021C0F836
:10218000E81890F8FC08C00720B9FFE70198FFF7AE
:1021900043FEFFE7FFE7ECE00198D0F8E8080228EB
:1021A00010D1FFE701990298C1F8EC080020C1F8AE
:1021B000F408D1F8E8080130C1F8E8080298C1F83D
:1021C000F808D5E00198D0F8E80803280ED1FFE719
:1021D0000199029AD1F8EC0800EB0220C1F8EC0852
:1021E000D1F8E8080130C1F8E808C0E00198D0F85B
:1021F000E808042819D1FFE70198D0F8F808C117BA
:1022000000EB116121F0FF01401AFF2807D1FFE721
:102210000199D1F8E8080130C1F8E80804E0019913
:102220000020C1F8E808FFE7A0E00198D0F8E8082E
:1022300005280DD1FFE701990298C1F8F008D1F8FF
:10224000E8080130C1F8E8080298C1F8F8088CE005
:102250000198D0F8E808062815D1FFE70198029AFE
:10226000D0F8F01801EB0221C0F8F0180721C0F8EF
:10227000E818D0F8EC0828B9FFE701990820C1F860
:10228000E808FFE770E00198D0F8E80808286AD16C
:10229000FFE701980021C0F8E818D0F8F808C11746
:1022A00000EB116121F0FF01401AFF285AD1FFE72E
:1022B0000198D0F8F00888B9FFE70198FFF7ACFD66
:1022C0000198FFF70FFD01990398C1F800090398E1
:1022D000C1F804094FF0FF30059068E00198D0F88C
:1022E000F0080A2806D1FFE7019800F5846100F0A4
:1022F00061F835E00198D0F8F00806280CD1FFE726
:10230000019901F5116001F58461FFF7C3F90199A5
:10231000012081F80C0922E00198D0F8F0080B2880
:1023200005D1FFE70199002081F8FC0816E001982B
:10233000D0F8F01800EB8100D0F8F40668B1FFE7A0
:102340000199D1F8F00801EB8000D0F8F40601F50E
:102350008461026812689047FFE7FFE7FFE7FFE745
:10236000FFE7FFE7FFE7FFE7FFE7FFE7FFE7FFE73D
:10237000FFE7FFE7FFE780E6019890F8FC08C00759
:1023800090B1FFE701990398D1F80019401A40F67F
:10239000C511884208D3FFE70198FFF73DFD019979
:1023A0000398C1F80009FFE700200590FFE70598B2
:1023B00006B080BD80B58AB0099008910998039055
:1023C00005A8019000F0DAF9039804300290FFF7B5
:1023D000A5F8039A01460198D2F81024891A0491AD
:1023E000089900F073F901990398049B44F6D352BD
:1023F000C1F26202A3FB023C0431069B03EB9C1377
:102400000693DDF810C0ACFB023292094FF47A73E8
:1024100002FB13C243F609535343079A02EB83129C
:102420000792FFF72BFD0298FFF778F80399C1F8A0
:1024300004090AB080BD000081B00090009890F8B7
:10244000FC0800F0010001B07047000085B0039067
:1024500002910398009000200190FFE7019818284E
:102460001CDCFFE70098019900EB8100D0F884089C
:1024700078B9FFE700990298019A01EB8201C1F84F
:102480008408019864300299486001208DF8130097
:1024900008E0FFE7019801300190DFE700208DF8A8
:1024A0001300FFE79DF8130005B0704780B58CB0AE
:1024B0000A900A9807900B9000F090F8079844F261
:1024C0000841C0F60001083101600430FFF7D6F87A
:1024D00007990020C1F81004C1F81404C1F81804C9
:1024E000C1F81C0481F8200401F2214001F5C46107
:1024F00008910990FFE70999089A002001F8010B5B
:10250000084691420990F6D1FFE70799002081F82B
:10251000200601F2216001F5026105910690FFE7B6
:102520000699059A002001F8010B08469142069091
:10253000F6D1FFE707990020C1F8200801F6240032
:1025400001F6840103910490FFE70499039A0020A7
:1025500041F8040B084691420490F6D1FFE7079931
:102560000020C1F8840801F6880001F6E801019115
:102570000290FFE70299019A002041F8040B0846F7
:1025800091420290F6D1FFE707980021C0F8E818C1
:10259000C0F8EC18C0F8F018C0F8F418C0F8F81833
:1025A00080F8FC18C0F80019C0F80419C0F8081920
:1025B00080F80C1900F51160FFF7CEF90B980CB0FC
:1025C00080BD000081B00090009844F21C41C0F62C
:1025D00000010831016001B07047000081B0009037
:1025E000009844F23441C0F600010831016001B0A6
:1025F0007047000082B001900091FFE700980068EA
:102600004CF60021C3F69A3188420DD3FFE70099BA
:10261000086843F20062CCF26542104408600199F8
:10262000086801300860E9E702B0704783B00290A3
:1026300001910299002008600090FFE700980328AC
:102640000FD8FFE701980099405CC90000FA01F239
:102650000299086810430860FFE700980130009075
:10266000ECE703B07047000083B0029001910020B6
:102670000090FFE7009803280BD8FFE70198009A25
:10268000D100C84002998854FFE7009801300090BB
:10269000F0E703B07047000081B00090009844F26A
:1026A0004841C0F600010831016001B070470000E8
:1026B00081B00090009800210160416001B0704736
:1026C00081B000900098006901B0704783B002901B
:1026D00001910299002000900198009A805C486066
:1026E0000198009A10444278486840EA0220486005
:1026F0000198009A10448278486840EA0240486095
:102700000198009A1044C278486840EA0260486024
:102710000098043000900198009A805C88600198CD
:10272000009A10444278886840EA02208860019844
:10273000009A10448278886840EA024088600198D4
:10274000009A1044C278886840EA02608860009865
:1027500004300090009803B07047000081B00090F2
:1027600044F25C50C0F6000001B0704781B00090A8
:1027700044F27D50C0F6000001B0704780B582B0D1
:10278000019001980090FFF787FF009844F26041A4
:10279000C0F60001083140F8041BFFF789FF0098DC
:1027A00002B080BD84B00390029103990020019093
:1027B000ADF800000298019A825CBDF80000104359
:1027C000ADF800000298019A10444278BDF800006C
:1027D00040EA0220ADF80000BDF8000088800198B2
:1027E00002300190019804B07047000081B0009061
:1027F00044F21A50C0F6000001B0704781B000905A
:1028000044F20B50C0F6000001B0704780B582B0B2
:10281000019001980090FFF73FFF009844F2784143
:10282000C0F60001083101600021818002B080BD46
:1028300080B58AB00990089109990091002007900D
:102840004A68089BDDF81CC003F80C204A68120A8D
:10285000089BDDF81CC063445A70CA88089BDDF8E9
:102860001CC063449A70C979089A079B1A44D170B6
:102870000799043107910690FFE700990698496887
:10288000884224D2FFE70098C068069950F82100DA
:10289000059005980899079A88540598000A0899A0
:1028A000079A11444870BDF816000899079A114418
:1028B00088709DF817000899079A1144C870079806
:1028C00004300790FFE7069801300690D5E700989E
:1028D0000169089A079BD1540169090A089A079B64
:1028E0001A445170418A089A079B1A449170C07C1F
:1028F0000899079A1144C87007980430079000207F
:102900000490FFE7009904980969884224D2FFE700
:1029100000988069049950F8210003900398089961
:10292000079A88540398000A0899079A1144487036
:10293000BDF80E000899079A114488709DF80F00A1
:102940000899079A1144C870079804300790FFE768
:10295000049801300490D5E70098C169089A079B54
:10296000D154C169090A089A079B1A445170C18B56
:10297000089A079B1A449170C07F0899079A1144DE
:10298000C87007980430079000200290FFE7009974
:102990000298C969884225D2FFE70098406A0299E7
:1029A00050F82100FDF730FD019008980799084480
:1029B0000199FFF759FE009907980430079008988D
:1029C000079A1044496A029A51F82210019AFDF7B9
:1029D0003AFD0199079808440790FFE702980130F3
:1029E0000290D4E707980AB080BD000080B586B099
:1029F0000590049105980190002103910179049AB2
:102A0000039BD1540399013103918068FDF7FCFCCD
:102A100002900498039908440299FFF725FE019952
:102A20000398043003900498039A10448968029A2A
:102A3000FDF709FD0299039808440390039806B036
:102A400080BD000080B588B007900691079800907F
:102A5000002105918188069A059BD1544179069AF7
:102A6000059B1A4451700599023105918068FDF764
:102A7000CBFC04900698059908440499FFF7F4FDEF
:102A800000990598043005900698059A10448968C5
:102A9000049AFDF7D8FC0098049A05991144059111
:102AA000C068FDF7B1FC03900698059908440399A6
:102AB000FFF7DAFD00990598043005900698059A0D
:102AC0001044C968039AFDF7BEFC0098039A059963
:102AD000114405910069FDF797FC0290069805994D
:102AE00008440299FFF7C0FD00990598043005904D
:102AF0000698059A10440969029AFDF7A4FC00980B
:102B0000029A05991144059140690190019806992E
:102B1000059A88540198000A0699059A114448704C
:102B2000BDF806000699059A114488709DF80700C3
:102B30000699059A1144C8700598043005900598C7
:102B400008B080BD83B002900191029800210091ED
:102B50004168019A009BD1544168090A019A009B7F
:102B60001A445170C188019A009B1A449170C1792E
:102B7000019A009B1A44D170009904310091816838
:102B8000019A009BD1548168090A019A009B1A445A
:102B900051704189019A009B1A449170C07A019941
:102BA000009A1144C870009804300090009803B057
:102BB0007047000084B003900291039800210191B6
:102BC0008088ADF80000BDF800000299019A885491
:102BD0009DF801000299019A114448700198023051
:102BE0000190019804B0704782B08DF80700009101
:102BF0009DF9070000280AD4FFE7009800019DF91D
:102C000007104EF20042CEF2000288540BE000980A
:102C100000019DF8071001F00F014EF61452CEF29C
:102C200000028854FFE702B07047000001A000F0E6
:102C30005CF800BF50757265207669727475616CBE
:102C40002066756E6374696F6E2063616C6C656479
:102C50002100000080B540F2B850C2F20000FFF73A
:102C600025FC80BD80B540F64470C2F20000FFF73D
:102C7000CDFD80BD80B540F2AC50C2F20000FFF740
:102C8000C5FD80BD80B540F28850C2F20000FFF75C
:102C9000BDFD80BD80B540F62070C2F20000FFF798
:102CA000B5FD80BD80B540F29050C2F2000044F204
:102CB000B751C0F6000141F2E922C0F6000201233B
:102CC000FEF7F2FF80BD000080B540F62870C2F22A
:102CD000000044F2C851C0F6000141F24132C0F692
:102CE00000020123FEF7E0FF80BDFDF7A8FC000015
:102CF00072B640F26C50C2F20000016840F27050AF
:102D0000C2F20000016062B6006870470000000077
:102D100080B592B0FFE740F2B850C2F20000FFF772
:102D200081F9FFF7E5FF014640F25C50C2F2000076
:102D30000160006840F60071C2F200010968401AA3
:102D40001F280FDBFFE740F25C50C2F20000006872
:102D500040F60071C2F200010860FEF705FAFEF7C6
:102D600043F9FFE740F27450C2F200000068012806
:102D700040F0B881FFE740F27850C2F200000068EE
:102D8000012840F0AF81FFE7FFF7B2FF11901198E3
:102D900040F6FC61C2F200010968401A00EE100A18
:102DA000B8EEC00A9FEDD41A80EE010A8DED100A2C
:102DB00040F68070C2F2000090ED000BFEF7ECFAD6
:102DC00051EC100B00F0FAFC0F900020C4F2A000B0
:102DD0000E9000200D909DED0F0A8DED050A40F23A
:102DE000B450C2F2000090ED000AFEF7E9FAB0EE2E
:102DF000401A9DED050A30EE410A8DED0C0A40F2B5
:102E00006450C2F2000090ED001A9DED0C0A9DED99
:102E1000102A20EE020A30EE010A80ED000A9DED34
:102E20000E0A9DED0C2A9DED0D1A90ED003A21EE53
:102E3000031A20EE020A30EE010A8DED0B0A9DED19
:102E40000B0AFEF7C7FA10EE100A01F0F1F941EC97
:102E5000100B40F60870C2F2000080ED000B90ED00
:102E6000000B9FEDA11B53EC112B51EC100B01F04B
:102E700026FA60B9FFE740F60871C2F200014EF28F
:102E80000000C4F26F00486000200860FFE740F6D1
:102E90008870C2F2000090ED000BFEF77DFA51EC55
:102EA000100B00F08BFC0A900020C4F2A0000990E7
:102EB000002008909DED0A0A8DED040A40F64C7042
:102EC000C2F2000090ED000AFEF77AFAB0EE401A66
:102ED0009DED040A30EE410A8DED070A40F268507C
:102EE000C2F2000090ED001A9DED070A9DED102A38
:102EF00020EE020A30EE010A80ED000A9DED090A7B
:102F00009DED072A9DED081A90ED003A21EE031A77
:102F100020EE020A30EE010A8DED060A9DED060A4A
:102F2000FEF758FA10EE100A01F082F941EC100B8E
:102F300040F61070C2F2000080ED000B90ED000B27
:102F40009FED691B53EC112B51EC100B01F0B7F9FD
:102F500060B9FFE740F61071C2F200014EF20000C6
:102F6000C4F26F00486000200860FFE740F6807000
:102F7000C2F2000090ED000B51EC100B00F09AFE35
:102F8000039040F68870C2F2000090ED000B51EC07
:102F9000100B00F08FFE01460398FEF725FA01465C
:102FA00040F65070C2F2000001600068D8B9FFE737
:102FB000002002900B9040F60871C2F200014860B8
:102FC000086040F26451C2F200010860069040F6C9
:102FD0001071C2F200014860086040F26851C2F20C
:102FE00000010860FFE740F6F860C2F200000068E8
:102FF00040F65071C2F200010968884225D0FFE70F
:1030000040F65070C2F20000006840F6F861C2F26B
:1030100000010860002001900B9040F60871C2F298
:1030200000014860086040F26451C2F2000108608B
:10303000069040F61071C2F200014860086040F24C
:103040006851C2F200010860FFE7FFF751FE44F645
:10305000D351C1F26201A0FB0110800900F070FEA3
:1030600041EC110B40F28050C2F2000090ED000BD9
:1030700051EC110B53EC102B00F0ECFF41EC100B5A
:1030800051EC100B9FED1A0B53EC102B01F017F9BC
:1030900070B9FFE740F60871C2F2000100204860F5
:1030A000086040F61071C2F2000148600860FFE756
:1030B00040F65070C2F20000006840F60871C2F29B
:1030C000000191ED000B40F61071C2F2000191ED8C
:1030D000001BFDF727FE119840F6FC61C2F20001CB
:1030E0000860FFE717E600BF0000000000E06F4047
:1030F000000000000000F03F00007A4480B582B07C
:103100000020019043F60001C4F20201086840F477
:1031100080300860FFE743F60000C4F20200006858
:103120008003002801D4FFE7F5E743F60401C4F269
:103130000201009100200860086840F480000860E7
:10314000086840F008000860086840F41050086003
:10315000086840F48030086043F60001C4F20201C0
:10316000086840F080700860FFE743F60000C4F292
:10317000020000688001002801D4FFE7F5E743F66C
:103180000801C4F20201086840F002000860FFE78D
:1031900043F60800C4F20200006800F00C000828A2
:1031A00001D0FFE7F4E743F60801C4F20201086822
:1031B0000860086840F4A0500860086840F40040C7
:1031C000086000F0A1FAFFE7FFF7A2FDFCE70000AE
:1031D00080B586B005900491039272B640F65470A3
:1031E000C2F20000019000F10801416000F11001FD
:1031F000C1604061002000F059F8059840F2840158
:10320000C2F200010091C1F888010120029000F093
:103210004DF800990498C1F81803022000F046F810
:10322000009B01990298039AC3F8A82440F26052C7
:10323000C2F20002116062B606B080BD40F28001A9
:10324000C2F2000141F64010C0F201000860704770
:1032500080B582B001904EF21001CEF200010091D3
:10326000002008604EF21801CEF2000108600198BB
:1032700040F28001C2F200010968484301384EF271
:103280001401CEF2000108604FF0FF300F21FFF76C
:10329000ABFC0099086840F005000860086840F041
:1032A00002000860FCF7CEFF02B080BD81B0009044
:1032B000DDF800C040F28403C2F200034FF4C8728C
:1032C0000CFB023000F5A87040F65471C2F2000108
:1032D00041F83C00009800FB0231D1F88C0140F02D
:1032E0008070C1F88C01009800FB02314FF0AA30C9
:1032F000C1F88401009901FB0231C1F880010099F5
:1033000001FB0231C1F87C01009901FB0231C1F8D7
:103310007801009901FB0231C1F87401009901FBA9
:103320000231C1F87001009901FB0231C1F86C0152
:10333000009901FB0231C1F86801009901FB0231DB
:10334000C1F86401009901FB0231C1F860010099E4
:1033500001FB0231C1F85C01009901FB0231C1F8A7
:103360005801009901FB0231C1F85401009901FB99
:103370000231C1F8500101B07047000081B040F641
:103380001000C4F202000068C0F300200090009812
:1033900001B0704781B040F61000C4F2020000682E
:1033A000C0F380100090009801B0704784B0039083
:1033B0000291039840F2E831C0F20101884206D33D
:1033C000FFE740F2E730C0F201000390FFE7029808
:1033D00040F2E831C0F20101884206D3FFE740F233
:1033E000E730C0F201000290FFE7039840F2E731B6
:1033F000C0F20101884209D8FFE7029840F2E731A4
:10340000C0F20101884201D8FFE70AE044F20160FE
:10341000C0F6000044F22461C0F600016922FCF706
:10342000B3FF0399002040F2E732C0F2010291425B
:1034300001900BD8FFE7029940F2E832C0F2010296
:103440000020914238BF01200190FFE7019834210C
:10345000C4F200010020086003993822C4F200027F
:1034600011603C21C4F20001086002984021C4F2BE
:103470000001086004B0704784B003900291039883
:1034800040F2E831C0F20101884206D3FFE740F282
:10349000E730C0F201000390FFE7029840F2E83104
:1034A000C0F20101884206D3FFE740F2E730C0F2E4
:1034B00001000290FFE7039840F2E731C0F20101FA
:1034C000884209D8FFE7029840F2E731C0F20101D3
:1034D000884201D8FFE70AE044F2DA50C0F6000063
:1034E00044F22461C0F600015A22FCF74DFF039913
:1034F000002040F2E732C0F20102914201900BD865
:10350000FFE7029940F2E832C0F201020020914246
:1035100038BF01200190FFE7019803983421C4F2DD
:10352000000108603821C4F20001002008600299FF
:103530003C22C4F2000211604021C4F20001086084
:1035400004B0704782B0019000913421C4F20001B0
:10355000002008603821C4F2000108603C21C4F258
:10356000000108604021C4F20001086002B0704709
:1035700084B003900291039840F2E831C0F2010157
:10358000884206D3FFE740F2E730C0F20100039023
:10359000FFE7029840F2E831C0F20101884206D309
:1035A000FFE740F2E730C0F201000290FFE7039826
:1035B00040F2E731C0F20101884209D8FFE70298E2
:1035C00040F2E731C0F20101884201D8FFE70AE08A
:1035D00044F2DA50C0F6000044F22461C0F6000163
:1035E0007822FCF7D1FE0399002040F2E732C0F2C6
:1035F0000102914201900BD8FFE7029940F2E832B4
:10360000C0F201020020914238BF01200190FFE783
:10361000019803983421C4F2000108603821C4F2F3
:103620000001002008603C21C4F2000108600298FB
:103630004021C4F20001086004B0704784B00390D8
:103640000291039840F2E831C0F20101884206D3AA
:10365000FFE740F2E730C0F201000390FFE7029875
:1036600040F2E831C0F20101884206D3FFE740F2A0
:10367000E730C0F201000290FFE7039840F2E73123
:10368000C0F20101884209D8FFE7029840F2E73111
:10369000C0F20101884201D8FFE70AE044F2DA50A3
:1036A000C0F6000044F22461C0F600018722FCF756
:1036B0006BFE0399002040F2E732C0F20102914212
:1036C00001900BD8FFE7029940F2E832C0F2010204
:1036D0000020914238BF01200190FFE7019834217A
:1036E000C4F200010020086003993822C4F20002ED
:1036F000116002993C22C4F2000211604021C4F220
:103700000001086004B0704780B582B0FDF73AFA56
:10371000FDF75AFAFFF792FD42F61150C0F600008D
:1037200040F67521C0F6000140F6A912C0F600026D
:10373000FFF74EFD0A20FFF78BFD40F2B850C2F2B2
:1037400000000190FEF74EFC002210461146FDF7E6
:10375000F7F9FDF70FF900F011F8019840F29051D8
:10376000C2F20001FEF772FE019840F62871C2F223
:103770000001FEF76BFE02B080BD000083B04EF684
:103780000850CEF20000029002994FF000500860FD
:103790005820C2F200000190019940F6A910C0F62D
:1037A000000008605C20C2F200000090009940F622
:1037B0007520C0F60000086003B0704721F0004299
:1037C00001F00043A2F16052B2F5801F28BFD2F190
:1037D0007F6C0BD95FEA001C43EAC20242EB5070D7
:1037E00018BF704728BF20F001007047B2F5801F56
:1037F000BCBF184670474FEA410C1CF5001F02D2AF
:10380000084600F0BDBD70B500F0D0FB0000008997
:10381000FFF7F6BF4FF00040A0F5800070470000B2
:1038200010B591EA030F48BF83F0004300F11A84FA
:10383000841A71EB030C05D2121943EB0C03001B25
:1038400061EB0C014FEA1154A4EB135CDFF81CE1AF
:103850001EEA430F18BF9EEA445F00F0748021EA1D
:10386000045123EA0E0343F48013DCF1200E32D31B
:1038700022FA0CFE10EB0E0023FA0CFE41EB0E01B7
:10388000CCF1200E03FA0EFE10EB0E00CCF1200E50
:1038900051F10001B1F5801F32D201EB045112FA4F
:1038A0000EF2BDE8104058BF7047401C38BF5FEAB9
:1038B000420218BF7047002814BF20F0010041F1F8
:1038C00000014FEA410313F5001F38BF7047A1F113
:1038D000C04100F0B9BB012A43EB0302ACF1200C5C
:1038E000DCF11F0E32BF4FF0000E23FA0CF310EB89
:1038F000030041EB0451B4EB115FD0D0A1EB0451B4
:1039000001F58011490801EB04515FEA30000ED344
:1039100050F1000038BF12FA0EFE08D1BDE8104089
:10392000C9E7401C38BF5FEA4202CAD1C3E7BDE81D
:1039300010404FEA410313F5001F38BF7047A1F153
:10394000C04100F081BB9EEA445F08D011EA5E0FDF
:10395000BDE8104004BF01F0004100207047BDE801
:10396000104070B500F022FB64FBBE3E0000E0FF9B
:10397000491058BFC1F140415B1058BFC3F14043EB
:103980008B42EFF3008070472DE9C04130B4DFF87F
:10399000A4C23CEA111418BF3CEA131400F0ED80F5
:1039A0001CEA111481EA030544EAD57418BF1CEA25
:1039B000131500F0C880A4EB050404F17F7404F52E
:1039C00000344FF0004545EAC12145EAC32341EAEE
:1039D000505143EA52534FEAC0204FEAC222994263
:1039E00008BF904200F09D804FEA13650FF2441625
:1039F000765D4FEA134506FB05F7C7F1807706FBB6
:103A000007F74FEAD737A7FB03687642A7FB06CE36
:103A1000C8F5803838BFA8F1010807FB08E6A6FB07
:103A2000028C4FF0000EE6FB03CEDCF1000CCEF171
:103A3000004E38BFAEF1010EA6FB0C584FF0000748
:103A4000E6FB0E87A1FB08C6A0FB07CE16EB0E0611
:103A50004FF0000545F10005E1FB076515F1E04E6B
:103A60007EBFA4F580345FEA46066D4116F18007FB
:103A700045F100054FEA172747EA05674FEA152584
:103A80004FEA0666A6F1DE46B6F1805F20D93846D9
:103A900005EBC47124F0010C01EB0C11BCF1FE6FBD
:103AA00002D8F0BCBDE8008124425CBF01F5801E55
:103AB0009EEAC47F02D4F0BCBDE80081244200F13C
:103AC0003980A1F1C041F0BCBDE8004100F0BCBAB2
:103AD0004FEAD02040EA41504FEAD1214FEAD222AA
:103AE00042EA43524FEAD323A7FB028607FB036651
:103AF00005FB02661EEA0E0F58BFA6EB0056B6EB9A
:103B000000564FEA520E4EEAC37E18EB0E0E56EBED
:103B1000530EBCD518EB02085E417F1C55F1000521
:103B2000B5E74FF480154FF000074FF000064FF057
:103B30000008ACE701F1C04101F000414FF0000086
:103B4000F0BCBDE800810CEA131511EA0C1F00D08F
:103B50000CE013EA0C1F00F026804FF0000081EA11
:103B6000030101F00041F0BCBDE80081F0BCBDE8FC
:103B7000004181EA030100F067BAF0BCBDE80041F2
:103B800070B500F013FA00BF097EFC3E00F007B8E4
:103B90004FF0000081EA030101F00041704781EA23
:103BA000030100F051BAF0BCBDE8004122494FF0DA
:103BB00000007047FFFDFBF9F7F5F4F2F0EEEDEBD6
:103BC000E9E8E6E4E3E1E0DEDDDBDAD8D7D5D4D31B
:103BD000D1D0CFCDCCCBCAC8C7C6C5C4C2C1C0BF67
:103BE000BEBDBCBBBAB9B8B7B6B5B4B3B2B1B0AF6D
:103BF000AEADACABAAA9A8A8A7A6A5A4A3A3A2A151
:103C0000A09F9F9E9D9C9C9B9A999998979796950B
:103C100095949393929191908F8F8E8E8D8C8C8BA7
:103C20008B8A89898888878786858584848383822F
:103C3000828181800000FF070000F87F51EA030CB9
:103C400017D41CF5801F58BFBCF5801F00F10680FB
:103C5000994218BF704708BF9042704707D711F5C7
:103C6000801F58BF13F5801F19D4994270478942AD
:103C700070471CF5801F08D5BCF5801FF7D58B4217
:103C800018BF704708BF824270474FF4001C1CEBFE
:103C9000410F38BF1CEB430F01D28B42704770B508
:103CA00000F084F9922449004FF000514FF0805306
:103CB000FFF75EBE4FEA41034FEA5353A3F580631B
:103CC000D3F11E03C8BFD3F1210C0CDD4FF000422D
:103CD00042EAC12242EA505232FA03FC8CEAE17C09
:103CE000ACEBE1707047102BC4BF0020704703F5A8
:103CF000787CBCF1FF3F04D06FF0004282EA2100E3
:103D0000704770B500F052F9499224800020704746
:103D1000F2E710F0004248BF4042B0FA80F310FAD8
:103D200003F10AD0C3F11D0303F5806302EB0352D4
:103D30004FEA415002EBD12170474FF0000070472D
:103D4000B0FA80F310FA03F10AD0C3F11D0303F5B2
:103D500080634FEA03524FEA415002EBD121704792
:103D60004FF000007047000051EA030C17D41CF517
:103D7000801F58BFBCF5801F00F10680994218BF14
:103D8000704708BF9042704707D711F5801F58BF92
:103D900013F5801F19D499427047894270471CF56A
:103DA000801F08D5BCF5801FF7D58B4218BF704720
:103DB00008BF824270474FF4001C1CEB410F38BF14
:103DC0001CEB430F01D28B42704770B500F0EEF848
:103DD000922449004FF080514FF00053FFF7C8BDC7
:103DE00051EA030C17D41CF5801F58BFBCF5801F87
:103DF00000F10680994218BF704708BF9042704793
:103E000007D711F5801F58BF13F5801F19D49942A9
:103E10007047894270471CF5801F08D5BCF5801F8C
:103E2000F7D58B4218BF704708BF824270474FF4E6
:103E3000001C1CEB410F38BF1CEB430F01D28B421F
:103E4000704770B500F0B2F8922449004FF000516D
:103E50004FF08053FFF78CBD70B5DFF848C11CEA06
:103E6000111E1EBF1CEA13159EEA0C0F95EA0C0FDB
:103E700000F06F8081EA03044EEAD47EAE4421EA6A
:103E80004C1123EA4C1341F4801143F48013AEF13A
:103E90007F7EA1FB024CA0FB0365361955EB0C0598
:103EA000A1FB034C4CF10003A0FB021C16EB0C061B
:103EB000654153F10003094218BF46F0010613F4AF
:103EC000007F0BD14FEA03314FEA053041EA15512B
:103ED00040EA165034036FF003020AE04FEAC321B0
:103EE0004FEAC52041EA555140EA5650F4026FF0BE
:103EF000020202EB2E4201EB025585EACE710AD096
:103F00005FEA440C18BF24F0004450F1000041F176
:103F1000000120EAD47040F2FE7C624500D270BD00
:103F2000A84214BF4FF080444FF04044002E08BF19
:103F30000024BEF1806FA8BFA1F1C041BDE8704070
:103F400080F2828001F1C04101F000414FF0000099
:103F500070470CEA13159EEA0C0F18BF95EA0C0F78
:103F600006D081EA030E4FF000000EF0004170BD54
:103F700000F01CF88900013E00F007B800F009B815
:103F80004FEA430C5FEA5C5C08D081EA030100F071
:103F90005BB84FEA410C5FEA5C5CF6D102494FF036
:103FA000000070470000FF070000F87F0EF1020ECE
:103FB0002EF0030E5EF8046B364205D4012A43EB63
:103FC000030515F5001F12D8012841EB010C1CF563
:103FD000001F0CD80ED14FEAD17C0CEB4C0C0CF12D
:103FE000020C15F5001F08BF4CEBD37C04E04FF02A
:103FF000080C01E04FEAD37C0CEB4C0526FA05F6E1
:1040000006F00706B6F1040C06D20EEB860CBDE8EE
:1040100070404CF0010C6047DFE80CF0090B020225
:104020004FF00041A1F500214FF0000070BD19468E
:104030001046012851EB010418BFD4F5001484BFC9
:10404000002001F0004170BD0808A0F500114FEA02
:104050003101704710B591EA030F48BF83F0004368
:104060003FF5E6AB841A71EB030C07D28CF0004CE1
:10407000121943EB0C03001B61EB0C014FEA1154C6
:10408000A4EB135CDFF8A4E11EEA430F18BF9EEA1D
:10409000445F00F0B48021EA045123EA6E035242E7
:1040A000C3EB6E0338BF5B1EDCF1200E25D322FA72
:1040B0000CFE10EB0E0043FA0CFE41EB0E01CCF1AE
:1040C000200E03FA0EFE10EB0E00CCF1200E51F183
:1040D000000129D401EB045112FA0EF2BDE81040A0
:1040E00058BF7047401C1CBFB2F1004F70470028FA
:1040F0000CBF491C20F00100704712EB020E43EB8D
:10410000030218BF4FF0010E4EEA4202ACF1200C40
:10411000DCF11E0E56D943FA0CFE10EB0E00CCF16A
:104120001E0E51F1FF31D5D50EF1010E12FA0EFE21
:10413000404141EB010101EB445C5FEA5C5C10D95A
:1041400001EB045110EBDE7038BFBEF1004FBDE84B
:10415000104018BF704700280CBF491C20F0010018
:10416000704734D24FEAD42C24F4006411F50011C6
:104170001BD0B1FA81F20B3AA41AA41ED2F120038B
:10418000914030FA03F31943904001EBCC7101EBFD
:104190000451002CBDE81040A8BF704701F1C04198
:1041A00001F000414FF000007047B0FA80F310FAC0
:1041B00003F102D1BDE810407047E41A173C4805EE
:1041C000C90AE2E701EB0451BDE81040704749100D
:1041D0004FEA300001EB0451BDE8104002E04FF01F
:1041E000000170474A0008BF0042F8D0B2F5001F36
:1041F00028BF704701F000414FF0000070479EEA71
:10420000445F07D011EA5E0FBDE8104004BF0021F3
:1042100000207047BDE8104070B5FFF7C7FE00BF33
:1042200040DFF63E104683F0004170470000E0FF9B
:1042300043004FEAD30C4FEA3C0C43401FBF4007FA
:104240000CF1605113F0FE4F70471CF0006F03D16A
:104250000CF00041002070470CF0004343EA50701E
:1042600040EACC0010B500F038F800BF0000009222
:104270004FEA0001FFF7E8BE4FF00041A1F5002131
:104280004FF00000704710B5FFF7D8FC0CBF0120BD
:10429000002010BD10B5FFF7D1FC14BF0120002095
:1042A00010BD10B5FFF760FD8CBF0120002010BDD0
:1042B00010B5FFF759FD2CBF0120002010BD10B52F
:1042C000FFF78EFD94BF0120002010BD10B5FFF751
:1042D00087FD34BF0120002010BD0EF1020E2EF02C
:1042E000030E5EF8044B244204D44FEA4102B2F1BB
:1042F0007F4F11D84FEA4003B3F17F4F0CD80ED156
:104300004FEAD07C0CEB4C0C0CF1020CB2F17F4F5D
:1043100008BF4CEBD17C04E04FF0080C01E04FEA01
:10432000D17C0CEB4C0324FA03F404F00704B4F141
:10433000040C06D20EEB840CBDE810404CF0010CCE
:104340006047DFE80CF0070802024FF00040A0F5DC
:10435000800010BD0846420018BFD2F1807288BFAD
:1043600000F0004010BDF1EE100A4FF6FF71C0F2F0
:10437000C03120EA010040F04070E1EE100A7047C1
:10438000FF2141EAD050C0057047726F73736572A8
:1043900069616C5F6D7367732F52657175657374B6
:1043A000506172616D00000000000000000000001C
:1043B0003128000895160008491900083919000825
:1043C0000000000000000000ED2900088D19000821
:1043D000211A0008111A0008000000000000000067
:1043E000452A0008611A00080D1C0008FD1B000882
:1043F0000000000000000000711C0008651C00089F
:10440000511C0008951C000800000000000000007E
:10441000F11E0008252000083924000800000000D3
:10442000000000002D2C00082D2C00082D2C000869
:104430002D2C000800000000000000002D2C0008BA
:104440002D2C00082D2C00080000000000000000AA
:104450002D2C00082D2C00082D2C00082D2C0008D8
:104460000000000000000000452B0008CD260008D9
:104470006D2700085D270008000000000000000014
:10448000B52B0008A5270008FD270008ED27000828
:104490004D6573736167652066726F6D2064657624
:1044A0006963652064726F707065643A206D65732E
:1044B00073616765206C6172676572207468616EF4
:1044C000206275666665722E00306164353166382B
:1044D00038666334343839326638633130363834CC
:1044E0003037373634363030350031316162643739
:1044F00033316332353933333236316364363138F0
:1045000033626431326436323935007374645F6DFE
:104510007367732F496E743136003835323435384D
:1045200036653334666264376362316330386335CD
:104530006635663163613065353700396630653917
:1045400038626461363539383139383664646635F5
:104550003361666137613430653439006364373103
:1045600036366337346335353263333131666263EF
:10457000633266653561376263323839007374645B
:104580005F6D7367732F54696D6500726F73736528
:104590007269616C5F6D7367732F4C6F6700726F28
:1045A0007373657269616C5F6D7367732F546F709D
:1045B0006963496E666F006C6566745F77686565F0
:1045C0006C5F71756572790072696768745F77688E
:1045D00065656C5F717565727900282070776D3143
:1045E000203C3D203636353335202920262620280C
:1045F0002070776D32203C3D20363635333520290A
:10460000002870776D31203C3D2036363533352912
:10461000202626202870776D32203C3D2036363506
:1046200033352900425453373936302E63000000A9
:10463000544600080000002020000000D4010008BB
:10464000744600082000002070150000F0010008EA
:10465000B5C6FFFF0100000001000000453500085D
:1046600079340008AD3300083D3600087135000884
:044670000100000045
:040000050800028568
:00000001FF
