:020000040800F2
:1000000000000220FD9D0008A10C0008A50C0008BE
:10001000A90C0008AD0C0008B10C0008000000009D
:10002000000000000000000000000000B50C000807
:10003000B90C000800000000BD0C0008DD0C000831
:100040004D9E00084D9E00084D9E00084D9E0008E4
:100050004D9E00084D9E00084D9E00084D9E0008D4
:100060004D9E00084D9E00084D9E00084D9E0008C4
:100070004D9E00084D9E00084D9E00084D9E0008B4
:10008000ED0C0008F90C00084D9E0008000000006F
:10009000000000000000000000000000050D000846
:1000A0004D9E00084D9E00084D9E00084D9E000884
:1000B0004D9E00084D9E00084D9E00084D9E000874
:1000C0004D9E00084D9E00084D9E00084D9E000864
:1000D0004D9E00084D9E00080D0D00080000000018
:1000E000190D00084D9E00084D9E000800000000FC
:1000F0000000000000000000000000004D9E00080D
:10010000000000004D9E00084D9E00084D9E000816
:1001100000000000000000000000000000000000DF
:100120004D9E00084D9E00084D9E00084D9E000803
:100130004D9E0008000000000000000000000000CC
:100140000000000000000000000000004D9E0008BC
:100150004D9E00084D9E00084D9E00084D9E0008D3
:100160004D9E00084D9E00080000000000000000A9
:10017000000000000000000000000000000000007F
:10018000000000004D9E000800000000000000007C
:080190004D9E00084D9E000881
:1001C0000348044B834202D0034B03B118477047E6
:1001D000D4090020D4090020000000000548064989
:1001E0000B1AD90F01EBA301491002D0034B03B145
:1001F00018477047D4090020D409002000000000EF
:1002000010B5064C237843B9FFF7DAFF044B13B15E
:100210000448AFF300800123237010BDD8090020EB
:1002200000000000649E000808B5044B1BB104499F
:100230000448AFF30080BDE80840CFE700000000AD
:10024000DC090020649E00084FF0804300225A63BE
:100250009A63DA631A64704708B5034A034B04488B
:10026000DF2105F0BBF800BF7C9E000830A000082D
:1002700050A0000808B50C4B984212D84FF6FF7CEE
:10028000604528BF604699420BD84FF080436145D6
:100290004FF0000228BF614658639A63DA6319641D
:1002A00008BDFFF7D9FF00BFE703010008B50C4BFD
:1002B000984212D84FF6FF7C604528BF60469942AD
:1002C0000BD84FF0804361454FF0000228BF6146D4
:1002D0005A639863D9631A6408BDFFF7BDFF00BF76
:1002E000E703010008B50C4B984212D84FF6FF7C8B
:1002F000604528BF604699420BD84FF08043614566
:100300004FF0000228BF61465A639863DA631964AC
:1003100008BDFFF7A1FF00BFE703010008B50C4BC4
:10032000984212D84FF6FF7C604528BF604699423C
:100330000BD84FF0804361454FF0000228BF614663
:1003400058639A63D9631A6408BDFFF785FF00BF3D
:10035000E70301002DE9F041002800F03D8200296B
:1003600000F0408203680A68B84C934200F0CE80E7
:10037000A34200F0B180B3F1804F00F0CE81B34CC6
:10038000A24200F0B280B2F1804F00F0C081476815
:10039000AF4C4D68A74200F0B380A54200F0B0809A
:1003A000AC4CA74200F04C81A54200F04981846822
:1003B000D7F800E04FEA440C032606FA0CF82EEAC0
:1003C000080EC7F800E0D7F800804FF0020E0EFAD2
:1003D0000CFC4CEA080CC7F800C024FA06FC07EB3A
:1003E0008C0704F00704D7F820804FF0010C04FAC2
:1003F0000EF40CFA04F444EA08043C628C682F689A
:1004000004FA0CF806FA08F627EA06062E602E68AB
:100410000EFA08FE4EEA06062E60E60805EB860593
:1004200004F007042E6AA4000CFA04F434432C628E
:10043000066900245C62DE62457B9D625C639C63AE
:100440001C6844F080041C601C6824F010041C60CC
:10045000007B022800F01B81032800F032816045F8
:10046000986900F03B8120F440709861986940F4ED
:10047000C0409861186A40F48050186200205062B1
:10048000D662956250639063106840F080001060FF
:10049000106820F010001060097B022900F0EA804B
:1004A000032900F02781012900F0FE80D16921F4A1
:1004B0004071D161D16941F4C041D161116A41F407
:1004C00080511162196841F001011960136843F00D
:1004D00001031360BDE8F0815F4D6C6C44F00104D2
:1004E0006C645A4CA2427FF44EAF5B4D47686C6C13
:1004F00044F001046C64564C4D68A7427FF44DAF44
:10050000554E346B44F00104346350E7A34200F0CD
:100510000A81B3F1804F00F0A78046684C4C4D68CB
:10052000A64200F09B80A54200F09880494CA6426C
:1005300000F04C81A54200F04981846837684FEA99
:10054000440E4FF0030C0CFA0EF827EA0807376048
:10055000D6F80080022707FA0EFE4EEA080EC6F80B
:1005600000E024FA0CFE06EB8E0E04F00704DEF821
:1005700020800126BC4006FA04F444EA0804CEF8C0
:1005800020408C68D5F800E004FA06F80CFA08FC64
:100590002EEA0C0CC5F800C0D5F800C007FA08F721
:1005A00047EA0C072F60E70805EB870504F007040E
:1005B000A40006FA04F42E6A34432C620569002470
:1005C0005C62DD62457B9D625C639C631C6844F0F9
:1005D00080041C601C6824F010041C60007B02284E
:1005E00000F0E780032800F0D7800128986900F028
:1005F000C78020F440709861986940F4C0409861C9
:10060000186A40F480501862097B022900F0AB8020
:10061000032900F09B80012900F08B80D16921F42F
:100620004071D161D16941F4C041D161116A41F495
:10063000805111621A6842F001021A60BDE8F0812F
:10064000054E346B44F002043463B0E60000014010
:10065000000002400004024000380240644F3C6B3E
:1006600044F001043C6368E7614D2C6C44F00104E4
:100670002C6452E7916921F440719161916941F4D0
:10068000C0419161116A41F0100111621AE7986945
:1006900020F440709861986940F4C0409861186AED
:1006A00040F010001862E9E6916921F003019161C0
:1006B000916941F060019161116A41F0010111629B
:1006C00000E7D86920F00300D861D86940F06000E5
:1006D000D861186A40F480701862CFE620F00300F9
:1006E0009861986940F060009861186A40EA0C00CF
:1006F0001862C3E6D16921F00301D161D16941F0EB
:100700006001D161116A41F480711162DAE6384DFD
:100710002C6C44F001042C6439E6354D2C6C44F00B
:1007200001042C642BE6324D6C6C44F001046C64C3
:10073000F3E6916921F003019161916941F0600153
:100740009161116A41F00101116273E7D16921F0F1
:100750000301D161D16941F06001D161116A41F4B5
:100760008071116266E7916921F44071916191692C
:1007700041F4C0419161116A41F01001116259E7E1
:1007800020F003009861986940F060009861186A51
:1007900040F00100186237E7D86920F00300D86103
:1007A000D86940F06000D861186A40F4807018621F
:1007B0002AE7986920F440709861986940F4C04035
:1007C0009861186A40F0100018621DE7084F3C6BF2
:1007D00044F002043C63B0E6064B074A07481E217A
:1007E00004F0FCFD064B044A04481F2104F0F6FD0A
:1007F0000038024064A00008909E000850A0000845
:1008000078A00008042809D810B4084C0B461146FB
:1008100054F820205DF8044B184610474FF08043F1
:1008200000225A639A63DA631A647047000000205A
:100830001849C2028B1802F5F86210B40A44164C2B
:10084000D3F8FC1744F8302041F080714FF0AA3201
:100850005DF8044BC3F8FC17C3F8F427C3F8F0277E
:10086000C3F8EC27C3F8E827C3F8E427C3F8E02768
:10087000C3F8DC27C3F8D827C3F8D427C3F8D02798
:10088000C3F8CC27C3F8C827C3F8C427C3F8C027C8
:10089000704700BF140A0020F409002030B472B67B
:1008A000424C04F10803636004F11003E360404B21
:1008B0002360986303F50060A060D3F83C0864618E
:1008C00040F08070C3F83C08A3F5F86003F5046CB1
:1008D00003F58055D0F8FC3743F08073C0F8FC373F
:1008E0004FF0AA33C0F8F437C0F8F037C0F8EC374F
:1008F000C0F8E837C0F8E437C0F8E037C0F8DC37B4
:10090000C0F8D837C0F8D437C0F8D037C0F8CC37E3
:10091000C0F8C837C0F8C437C0F8C037C0F8F43FD3
:10092000C0F8F03FC0F8EC3FC0F8E83FC0F8E43F43
:10093000C0F8E03FC0F8DC3FC0F8D83FC0F8D43F73
:10094000CCF8F827DCF8FC27256142F08072C0F86B
:10095000D03FC0F8CC3FC0F8C83FC0F8C43FC0F893
:10096000C03FC0F8F81FCCF8F437CCF8FC27CCF81F
:10097000F037CCF8EC37CCF8E837CCF8E437CCF8E3
:10098000E037CCF8DC37CCF8D837CCF8D437CCF813
:10099000D037CCF8CC37CCF8C837CCF8C437CCF843
:1009A000C037A46162B6012030BC7047F409002052
:1009B000D4110020014B024ADA617047F40900208B
:1009C000401901000F4AD1694FF0E02301FB00F00C
:1009D0000D4910B4013800244FF0F00C92611C61F5
:1009E0009C61586181F823C01A695DF8044B42F09C
:1009F00005021A611A694FF0805042F002021A6132
:100A000048607047F409002000ED00E0034B044A01
:100A10009B614FF080515160704700BFF409002086
:100A200000ED00E0024B4FF080525A60704700BF6B
:100A300000ED00E0024B4FF080525A60704700BF5B
:100A400000ED00E030BFFDE782B00C4B00210091CB
:100A50005A6C42F480425A645A6C02F4804200920A
:100A6000009A01911A6C42F080521A641B6C03F0D8
:100A700080530193019B02B0704700BF00380240D1
:100A8000134A0368934282B013D0B3F1804F01D070
:100A900002B0704703F50E33002201921A6C42F047
:100AA00001021A641B6C03F001030193019B02B065
:100AB0007047084B002200925A6C42F001025A64BF
:100AC0005B6C03F001030093009B02B0704700BF12
:100AD000000001400038024030B5026887B00023B2
:100AE000B2F1804FCDE90133CDE90333059301D055
:100AF00007B030BD02F50E320093136B094843F086
:100B000001031363136B03F001030093022201231B
:100B10000F2401A9CDE90142009D059301F026F8BB
:100B200007B030BD000002400A4A0368934209D072
:100B3000B3F1804F00D07047074A136C23F00103D4
:100B40001364704702F59C32536C23F00103536425
:100B5000704700BF000001400038024070B5394BBB
:100B6000026888B000249A42CDE90344CDE90544E7
:100B7000079401D008B070BD03F5FA3301941A6CE4
:100B8000314E42F400321A641A6C02F400320192BF
:100B9000019A02941A6B42F008021A631B6B03F06D
:100BA0000803029360230393029B022304934FF0F4
:100BB000030C0723054603A92448CDE906C300F02A
:100BC000D5FF234A74624FF00063C6E90023304624
:100BD0004FF480624FF40033C6E90244C6E90424AE
:100BE000C6E90644336200F025FC28BB194C1A49BB
:100BF000EE634FF00062C4E900124FF480620023FC
:100C00004021226120464FF40032C4E90213C4E9B6
:100C10000533C4E90732B563636200F00BFC70B9B9
:100C20000022AC6311462620A56300F07BFA262043
:100C300000F0B6FA08B070BD03F03AF9D6E703F059
:100C400037F9EDE700440040C4220020000C0240C8
:100C50008860024064220020A06002400D4B0268C0
:100C60009A4200D070470C4A136C10B523F400333D
:100C7000044660211364094801F06AF8E06B00F053
:100C800071FCA06B00F06EFCBDE81040262000F067
:100C900095BA00BF0044004000380240000C0240FA
:100CA000FEE700BFFEE700BFFEE700BFFEE700BFB4
:100CB000FEE700BF704700BF704700BFEFF3098039
:100CC00020E9F00F16490A68106052681068B0E811
:100CD000F00F80F309880A607047704708B500F08C
:100CE00059F9BDE80840FFF79DBE00BF014800F07C
:100CF000DFBD00BFC4220020014800F0D9BD00BF05
:100D0000642200204FF4007001F0DAB8014802F0CC
:100D10000DBD00BF1C2200204FF4004001F0D0B8F0
:100D20000C0A0020704700BF0120704708B504F08E
:100D300081FB162303604FF0FF3008BD08B504F0B7
:100D400079FB16230360FEE770B5161E07DD0C461F
:100D50008D19AFF3008004F8010BA542F9D130469C
:100D600070BD00BF70B5161E07DD0C468D1914F856
:100D7000010BAFF30080A542F9D1304670BD00BF32
:100D80004FF0FF30704700BF4FF400534B6000201E
:100D9000704700BF01207047002070470EB44FF02D
:100DA000FF3003B0704700BF08B504F043FB0A23CF
:100DB00003604FF0FF3008BD08B504F03BFB022391
:100DC00003604FF0FF3008BD4FF0FF30704700BFA9
:100DD0004FF400534B600020704700BF08B504F08B
:100DE00029FB1F2303604FF0FF3008BD08B504F056
:100DF00021FB0B2303604FF0FF3008BD08B504F062
:100E000019FB0C2303604FF0FF3008BD10B50C4CEC
:100E10000C4B0D492268591A2AB11044884207D850
:100E20002060104610BD094A226010448842F7D95C
:100E300004F000FB0C234FF0FF320360104610BD9E
:100E4000142200200000022000040000F82D0020E1
:100E5000034AD2F8883043F47003C2F888307047F0
:100E600000ED00E0164A936803F00C03042B0CD04D
:100E7000082B0CD0134B124A134892681349C2F343
:100E80000312825CD3400B607047114BF3E7536849
:100E9000516813F4800F01F03F01536814BF0C4AEE
:100EA000084AB2FBF1F1064A5268C2F30142C3F3A9
:100EB0008813013201FB03F35200B3FBF2F3DAE7CC
:100EC000003802400024F400A49E00081400002012
:100ED00040787D01704700BF704700BF10B50B4BD5
:100EE0000B490C4A196200241C620B485A6280218B
:100EF0004FF0FF325C6218611C6159615C619A615C
:100F00009C61FFF7E9FF204610BD00BF003802409A
:100F10000FC8E210317917009F10600070B50E4BBA
:100F20000E4E1B68327805464FF47A70B0FBF2F033
:100F3000B3FBF0F000F068F908B90F2D01D90120DA
:100F400070BD0446024629464FF0FF3000F0EAF833
:100F50007560204670BD00BF1400002018000020FE
:100F600008B50B4B1A6842F400721A601A6842F412
:100F700080621A601A6842F480721A60032000F0DE
:100F8000BFF80020FFF7CAFFFFF75EFD002008BD95
:100F9000003C0240034A044B11681B780B44136069
:100FA000704700BF1822002018000020014B18686D
:100FB000704700BF18220020014B5868704700BFDF
:100FC0001800002038B5074C2578854201D1002053
:100FD00038BD034660682370FFF7A0FF0028F7D0F4
:100FE000257038BD18000020014B1878704700BFED
:100FF0001800002038B50446FFF7D8FF631C0546EB
:1010000002D0044B1B781C44FFF7D0FF431BA342C4
:10101000FAD338BD180000204FF0E022136923F006
:1010200002031361704700BF4FF0E022136943F0E1
:1010300002031361704700BF0048704700030801B6
:10104000014B1868000C7047002004E0024B186840
:10105000C0F30B00704700BF002004E0024A536851
:1010600043F0010353607047002004E0024A5368D4
:1010700023F0010353607047002004E0024A5368E4
:1010800043F0020353607047002004E0024A5368B3
:1010900023F0020353607047002004E0024A5368C3
:1010A00043F0040353607047002004E0024A536891
:1010B00023F0040353607047002004E0024B012238
:1010C000C3F80024704700BF00002742024B0022F3
:1010D000C3F80024704700BF00002742014BD3F83B
:1010E000100A70470070FF1F014BD3F8140A7047B5
:1010F0000070FF1F014BD3F8180A70470070FF1FE4
:101100000749CA6803024FF6FF0003F4E063024098
:10111000134343F0BF6343F40033CB60704700BF19
:1011200000ED00E01C4BDB68C3F3022300B5C3F104
:10113000070EBEF1040F03F1040C28BF4FF0040E9C
:10114000BCF1060F1BD9033B4FF0FF3C0CFA03FC2C
:1011500022EA0C024FF0FF3C0CFA0EFC21EA0C01D3
:101160009940002841EA02010CDB00F160400901CE
:1011700000F56140C9B280F800135DF804FB00225D
:101180001346E7E7054B00F00F0009010344C9B21D
:1011900019765DF804FB00BF00ED00E0FCEC00E018
:1011A000002808DB044A4109012300F01F0003FA6C
:1011B00000F042F82100704700E100E000280DDB5C
:1011C000430907490122203300F01F0002FA00F012
:1011D00041F82300BFF34F8FBFF36F8F704700BFFD
:1011E00000E100E0BFF34F8F0549064BCA6802F4E7
:1011F000E0621343CB60BFF34F8F00BFFDE700BF3A
:1012000000ED00E00400FA050138B0F1807F10D253
:1012100010B44FF0E023084C58614FF0F00C84F804
:1012200023C00022072110469A615DF8044B196122
:1012300070470120704700BF00ED00E0BFF35F8FF3
:10124000044B5A6A002122F480325A62C3F8941087
:10125000704700BF00ED00E0064B40F00100C3F80E
:1012600094005A6A42F480325A62BFF34F8FBFF340
:101270006F8F704700ED00E0044BC3F89800D3F87F
:10128000A02042F00102C3F8A020704700ED00E06A
:10129000044BC3F89800D3F8A02022F00102C3F851
:1012A000A020704700ED00E0164A4378C2F898305D
:1012B000D2F8A03023F00103C2F8A0304368C2F88E
:1012C0009C30C37A90F80CC001781B0643EA0C737B
:1012D00090F80AC00B43417B43EACC4390F80EC020
:1012E00043EA8143C17B43EA4C4390F809C043EA97
:1012F0000143017A43EA0C2343EA4103C2F8A030D8
:10130000704700BF00ED00E040BF20BF704700BF46
:10131000024BD868C0F30220704700BF00ED00E028
:10132000002810B427DB00F1604000F5614090F820
:101330000003000901F00701C1F1070CBCF1040F23
:1013400001F1040428BF4FF0040C062C11D9033915
:101350004FF0FF348C4020EA0404C8404FF0FF31C6
:1013600001FA0CF120EA010010601C605DF8044BEA
:1013700070470024F2E7034C00F00F000444207E85
:101380000009D7E7FCEC00E0002809DB4309054928
:1013900000F01F000122403302FA00F041F8230060
:1013A000704700BF00E100E000280BDB4309064A5C
:1013B000403300F01F0052F8233023FA00F000F011
:1013C000010070470020704700E100E0002809DBC1
:1013D0004309054900F01F000122603302FA00F0C2
:1013E00041F82300704700BF00E100E000280BDB5C
:1013F0004309064A803300F01F0052F8233023FAD5
:1014000000F000F0010070470020704700E100E0AC
:101410004FF0E022042813690CBF43F0040323F0CB
:1014200004031361704700BF704700BF08B5FFF7A2
:10143000FBFF08BD38B50446FFF7B8FD002C67D0A8
:1014400023680022022184F8351084F834201A68B9
:1014500022F0010205461A6005E0FFF7A7FD431BD5
:10146000052B39D823681A68D107F6D4D4E90120AE
:10147000E16802430A43D4E90451A0692A430A43BC
:10148000E1691D6802430A4333492940256A2A431A
:101490000A43616A042926D01A605A6922F00702B9
:1014A0001143D8B22D4A59611038A2FB00521209DB
:1014B0002B4923F47F73895CE16523F003035F28E4
:1014C00088BF04333F228A40A36500209A6001232D
:1014D000606584F8353038BD03232022626584F8C6
:1014E0003530184638BDD4E90B5129430A431A60F8
:1014F0005969A26A21F00701114341F00401002D4E
:10150000CFD038B9012A23D032F00202C9D108E085
:10151000012038BDB0F5005F0CD0022A03D9032AA0
:10152000BFD1EA01BDD501234022626584F8353080
:10153000184638BD032AB4D801A050F822F000BFE5
:101540002715000823150008271500085115000865
:10155000B5F1C07FA5D1E6E73F8010F0ABAAAAAAFB
:10156000BC9E0008002835D090F83530022BD9B247
:1015700031D00368194AD9B2103970B4A2FB0152B4
:10158000174C1D68120925F00105A65C1D6000229C
:101590001A605A609A60DA601A6121225A6123F453
:1015A0007F7323F003035F2988BF04333F240022A5
:1015B000B440C665C0E90F22C0E91122C0E9132278
:1015C00083659C60426580F8342080F8352070BCCB
:1015D0001046704701210846704700BFABAAAAAA6F
:1015E000BC9E000830B490F83440012C25D0012472
:1015F00080F8344090F83540012C05D0002380F865
:10160000343030BC02207047022480F8354000247A
:101610004465046885682068402D20F4802020609F
:1016200063600BBFA260A160E160E260236843F0E9
:1016300001030020236030BC7047022030BC70479B
:1016400070B490F83440856D012C35D090F8354059
:101650004FF0010C644580F834C005D0002380F8B9
:10166000343070BC02207047022680F83560046870
:1016700000264665266826F4802626606360836817
:10168000402B0EBFA260A160E260C26D08BFE160A6
:101690003F239340AB602368026C43F01603236042
:1016A0001AB1236843F008032360236843F0010361
:1016B0000020236070BC7047022070BC704700BFE0
:1016C00070B50446866DFFF771FC94F83530022B37
:1016D00006D00023802284F834306265012070BD7A
:1016E00023681A6822F016021A605A6922F08002F2
:1016F0005A61226C054632B31A6822F008021A6059
:101700001A6822F001021A6005E0FFF74FFC431B44
:10171000052B0FD823681B6813F00103F5D1E16D89
:101720003F228A400121B26084F8351084F83430B9
:10173000184670BD032020220023626584F83430EF
:1017400084F8350070BDA26C002AD5D1D8E700BF5F
:1017500090F83530022B03D0802343650120704779
:101760000268052380F83530136823F00103002058
:10177000136070472DE9F04F044683B09346019102
:10178000FFF714FC94F83530022B08D08022002398
:10179000626584F83430012003B0BDE8F08F23681F
:1017A0001B68D90556D4019B0546002B59D0E16D25
:1017B00010268E40D4F858A0DAF800301E4236D1F8
:1017C0004FF008094FF0010804272DE0BBF1FF3F5F
:1017D00008D0BBF1000F48D0FFF7E8FB401B58458D
:1017E00043D8E16DDAF8003009FA01F0184205D06B
:1017F000626D42F001026265CAF8080008FA01F061
:10180000184205D0626D42F002026265CAF8080013
:1018100007FA01F0184205D0626D42F004026265D9
:10182000CAF808001E4202D1636DDA07CED5636D97
:1018300013B1636DDB072BD4019A12BB302303FA7B
:1018400001F10123CAF80810104684F8353084F8F5
:101850003420A1E74FF480730120636503B0BDE835
:10186000F08FE16D20268E40A4E720210123002285
:101870000320616584F8342084F8353003B0BDE876
:10188000F08F102303FA01F1CAF80810002083E753
:101890002046FFF715FFE16D30238B40CAF8083072
:1018A0000120002384F8350084F8343074E700BF49
:1018B0002DE9F04182B0744A866D156800230193CA
:1018C000C36D346808229A402242804604D00168E1
:1018D0000F68780700F18A8001229A40224204D0E2
:1018E000D8F800104969090678D404229A402242A7
:1018F00004D0D8F8001009688F0767D410229A40E6
:10190000224204D0D8F800100F68380749D42022AA
:101910009A40224217D0D8F800100C68E00612D581
:10192000B26098F83520052A73D00B6813F4802F25
:101930000B6800F09080190340F19B80D8F83C3090
:101940000BB140469847D8F854303BB3D8F85430E0
:10195000DA071BD5D8F800204C49052388F8353024
:101960001368A1FB051523F00103AD0A136002E023
:101970001368DB0704D5019B0133AB420193F7D910
:101980000122002388F8352088F83430D8F84C300C
:1019900023B1404602B0BDE8F041184702B0BDE8AF
:1019A000F081B2600A6812F4802F0A682AD1D70544
:1019B00003D40A6822F008020A60D8F84020002AFE
:1019C000A5D040469047D8F85C30A0E7B260D8F880
:1019D000542042F00402C8F854208FE7B260D8F8CF
:1019E000542042F00202C8F854207EE70F6827F026
:1019F00004070F60B260D8F8542042F00102C8F822
:101A0000542069E71203D8D5D8F84820002AD8D145
:101A10007DE70A6822F016020A604A6922F0800215
:101A20004A61D8F8402052B30A6822F008020A60DE
:101A30003F2202FA03F3D8F85010B36001220023CA
:101A400088F8352088F834300029A7D0404602B005
:101A5000BDE8F041084713F480737FF46FAF0A6864
:101A600022F010020A60012288F8352088F834300C
:101A700064E7D8F84430002B7FF463AF63E7D8F80D
:101A80004820002AD0D1D3E714000020B5814E1B96
:101A900090F83430012B13D090F835C0BCF1010F11
:101AA0005FFA8CF305D00123002280F83420184619
:101AB00070470529F8D8DFE801F0090C0F12150668
:101AC00002231846704702650023EDE7C2630B4608
:101AD000EAE702640023E7E742640023E4E7826464
:101AE0000023E1E7C2640023DEE700BF90F8343052
:101AF000012B16D090F835204FF0010C624580F88C
:101B000034C0D3B205D06346002280F83420184692
:101B100070470629F8D8DFE801F00F1316191C1FCB
:101B200007000223184670470023C0E90F33C0E9BD
:101B30001133C0E91333E7E70023C3630B46E3E740
:101B400000230364E0E700234364DDE700238364AC
:101B5000DAE70023C364D7E700230365D4E700BFB7
:101B600090F83500704700BF406D70472DE9F04F89
:101B700000220C68704E85B013464FF0010A89466A
:101B800004E00133102B02F1020278D00AFA03F1CB
:101B900001EA040BA143F4D1D9F804C00CF003010D
:101BA0004D1E012D6ED9032940F0AE809140CD43EA
:101BB00007683D4029431CF4403F0160E1D05F4D80
:101BC00000210391696C41F480416964696C01F4FE
:101BD00080410391039923F0030101F1804101F554
:101BE0009C3103F00307D1F808E0BF000F25BD408A
:101BF0002EEA0508524DA84217D005F58065A84287
:101C000000F086804F4DA84200F087804E4DA842DC
:101C100000F08A804D4DA8420CBF4FF0040E4FF0EB
:101C2000070E0EFA07F748EA0708C1F80880B168FE
:101C30006FEA0B071CF4801F0CBF39404BEA01010F
:101C4000B160F5681CF4001F0CBF3D404BEA050570
:101C5000F56075681CF4003F0CBF3D404BEA05057C
:101C6000756031681CF4803F03F101030CBF3940FB
:101C70004BEA0101102B316002F1020286D105B05E
:101C8000BDE8F08FD9F80C50876805FA02F80325F3
:101C900005FA02FE27EA0E0748EA07078760476849
:101CA0006FEA0E0527EA0B0ECCF300179F4047EAB8
:101CB0000E074760C76807EA050ED9F80870974015
:101CC00047EA0E070229C76001FA02F17FF470AFFC
:101CD0004FEAD30E00EB8E0E03F00708DEF82070FB
:101CE0000097D9F810704FEA880807FA08F70197AB
:101CF0000F2707FA08F8009F27EA0808019F47EA1C
:101D00000807CEF8207053E703259540ED43D1E74F
:101D10000AFA07F748EA070887E74FF0020E0EFABB
:101D200007F748EA070880E74FF0030E0EFA07F7B7
:101D300048EA070879E700BF003C0140003802404C
:101D40000000024000080240000C02400010024067
:101D50002DE9F04F0023DFF80CB101264FF00F09F9
:101D60004FF0030A02E00133102B64D006FA03F2AD
:101D700032EA010402EA010CF5D123F0030505F172
:101D8000804505F59C3503F00304A400D5F808E070
:101D900009FA04F85845274608EA0E0E4DD02C4C97
:101DA000A0424CD02B4CA0424CD02B4CA0424CD04B
:101DB0002A4CA04214BF07240424BC40A64515D1D8
:101DC000274C274F246824EA0C043C607C6824EAF2
:101DD0000C047C60FC6824EA0C04FC60BC6824EA07
:101DE0000C04BC60AC6824EA0804AC6005685C00C4
:101DF0000AFA04F44FEAD30C25EA040500EB8C0C34
:101E0000056003F00705DCF820E0AD0009FA05F5F0
:101E10002EEA0505CCF82050C56825EA0405C56002
:101E2000456825EA020242608268013322EA04041E
:101E3000102B84609AD1BDE8F08F0024BEE706FA2B
:101E400007F4BBE70224BC40B8E70AFA07F4B5E799
:101E50000004024000080240000C02400010024052
:101E6000003C0140000002400369194214BF0120F8
:101E70000020704702B9090481617047436901EA93
:101E8000030221EA030141EA02418161704700BF78
:101E900082B04FF480330193019B0B430193019B6C
:101EA000C361C161019BC361C3690193C06980F4CF
:101EB0008030C0F3004002B0704700BF704700BFE1
:101EC000044A5169014200D1704708B5506102F0DF
:101ED00061F808BD003C014000207047002800F078
:101EE000A2812DE9F0410368DD0782B004462FD5B9
:101EF0009E498A6802F00C02042A00F0ED808A688C
:101F000002F00C02082A00F0E3806368B3F5803F1A
:101F100000F0EC80B3F5A02F00F07581934D2A6896
:101F200022F480322A602A6822F480222A60002B60
:101F300040F0E180FFF73AF8064605E0FFF736F893
:101F4000801B642800F201812B689B03F6D4236870
:101F50009F0728D5854A916811F00C0F00F09080FA
:101F6000916801F00C01082900F08680E368002BDD
:101F700000F00E817E4B7D4E01221A60FFF716F8AD
:101F8000054605E0FFF712F8401B022800F2DD804D
:101F900033689807F6D53368226923F0F80343EADB
:101FA000C203336023681A0751D458072FD56F4AEC
:101FB000136C13F080537FD000256E4E3368D90523
:101FC00040F1B380A368012B00F0C380052B00F023
:101FD0002C81664E326F22F001023267326F22F09E
:101FE00004023267002B40F0B980FEF7DFFF41F2B8
:101FF0008838074605E0FEF7D9FFC01B404500F2D0
:10200000A480336F9807F6D4002D40F00681A069B4
:10201000C8B1564DAB6803F00C03082B00F0C98023
:10202000534B002202281A6600F00981FEF7BEFF1A
:10203000044605E0FEF7BAFF001B022800F2858087
:102040002B689B01F6D4002002B0BDE8F0816369E3
:102050000BB3474B454E0122C3F8802EFEF7A6FF77
:10206000054604E0FEF7A2FF401B02286DD8736FFF
:102070009B07F7D5236898E7526856023FF576AF7D
:102080003A4A1268950744D5E268012A41D00120F6
:1020900002B0BDE8F081364A344EC2F8803EFEF709
:1020A00085FF054604E0FEF781FF401B02284CD85F
:1020B000736F9F07F7D4DDE70193136C43F08053F0
:1020C0001364136C03F080530193019B012574E7A3
:1020D0004A6850027FF519AF244A126891037FF5D0
:1020E00037AF6268002A7FF433AFD0E71F4A136826
:1020F00043F480331360FEF759FF1C4E054604E09D
:10210000FEF754FF401B64281FD833689A03F7D5A5
:102110001DE7164920690A6822F0F80242EAC00267
:102120000A601A077FF541AF91E7336843F4807383
:102130003360FEF73BFF07463368DA053FF542AFF1
:10214000FEF734FFC01B0228F6D9032002B0BDE819
:10215000F081064A136F43F001031367FEF726FF71
:10216000024F064641F288380BE000BF00380240BB
:102170000000474200700040FEF718FF801B4045FA
:10218000E3D83B6F9B07F7D5002D3FF440AF44E009
:10219000424A434E1360FEF709FF054604E0FEF78E
:1021A00005FF401B0228D0D833689907F7D423686D
:1021B000F9E601283FF448AF6B68E26903F4800157
:1021C00091427FF464AF226A03F03F0191427FF4B1
:1021D0005EAF616A47F6C0721A40B2EB811F7FF4AE
:1021E00056AFA26A520803F44031013AB1EB024FF4
:1021F0007FF44DAFE26A03F07063B3EB026F14BF7C
:102200000120002020E7264B1A6842F480221A6041
:102210001A6842F480321A606DE7214A136C23F089
:1022200080531364F3E6012070471D4B1A6F42F090
:1022300004021A671A6F42F001021A678EE7FEF76E
:10224000B5FE064605E0FEF7B1FE801B02283FF60C
:102250007CAF2B689901F6D4D4E90731626A0B434D
:1022600043EA8213D4E90A21520843EA0163013A9E
:102270000A4943EA024301226B600A66FEF796FEB2
:10228000074D044605E0FEF791FE001B02283FF6CD
:102290005CAF2B689A01F6D5D5E600BF0000474237
:1022A0000038024070B50D4688B0144600BB224E7F
:1022B0000190326B42F001023263326B059002F002
:1022C000010201924FF480720392022203460199A7
:1022D00004921A480793032203A90692FFF746FCCB
:1022E000B26822F0EC622A432243B26008B070BDAB
:1022F000114E134800230293326B42F00402326302
:10230000326B059302F0040202924FF400720392C2
:1023100002220299049203A9032207930692FFF76F
:1023200025FCB36823F0784343EA050141EAC40180
:10233000B16008B070BD00BF00380240000002402C
:1023400000080240014B0122DA6470470000474256
:10235000014B0022DA64704700004742164908B575
:102360008B6803F00C03042B1BD0082B17D14A6891
:102370004B68496813F4800302F03F0213D10F4801
:10238000C1F38811A1FB000102F0A6FE0A4B5B68B5
:10239000C3F3014301335B00B0FBF3F008BD074812
:1023A00008BD074808BD0648C1F388110023A1FBFA
:1023B000000102F091FEE9E7003802400024F40039
:1023C00040787D01002800F08780484A136803F0B8
:1023D00007038B422DE9F0410D46044609D2CBB2EA
:1023E0001370136803F007038B4202D00120BDE88D
:1023F000F0812368980714D5590704D53C498A68A9
:1024000042F4E0528A601A0704D539498A6842F4D6
:1024100060428A603649A0688A6822F0F00202436E
:102420008A60DF0721D56268012A57D0931E012BED
:102430002F4B1B684DD99907D8D52D4EB36823F083
:1024400003031343B360FEF7B1FD41F2883807463A
:1024500004E0FEF7ABFDC01B404544D8B36862689A
:1024600003F00C03B3EB820FF3D1204A136803F09F
:102470000703AB4206D9EBB21370136803F00703EE
:10248000AB42B3D123685A0706D51949E0688A6878
:1024900022F4E05202438A601B0707D5144A2169DF
:1024A000936823F4604343EAC1039360FFF756FF48
:1024B0000F4A104C92681049C2F303120346A25C03
:1024C0000E48D34000680B60FEF728FD0020BDE8F1
:1024D000F0819801B1D489E701207047044B1B6853
:1024E0009E03AAD482E7032081E700BF003C02409C
:1024F00000380240A49E0008140000201C000020A8
:10250000014B1868704700BF14000020044B0549B8
:102510009B68054A0868C3F38223D35CD8407047A0
:102520000038024014000020B49E0008044B054906
:102530009B68054A0868C3F34233D35CD8407047B0
:102540000038024014000020B49E00080F22244BE3
:1025500002601A68510334D54FF4A0234360204B26
:102560001A6802F00102C2601A68C2F3C402026172
:102570001A6F52072DD505238360194B5A6F02F04D
:10258000010242611A6812F0807F14BF0222012208
:1025900082615A6802F48002C2615A6802F03F0206
:1025A00002625A68C2F3881242625A6802F44032E8
:1025B00002F58032D20B82625B68C3F30363C362AD
:1025C00070471B6813F4803318BF4FF480334360A7
:1025D000C5E71B6F13F0010318BF01238360CCE72D
:1025E000003802400E4B0F2202609A6802F003028C
:1025F00042609A6802F0F00282609A6802F4E05247
:10260000C2609B68DB0810B403F4E053054C03611F
:1026100023685DF8044B03F007030B60704700BFAD
:1026200000380240003C0240704700BF10B5054C26
:10263000E3681B0600D410BDFFF7F6FF8023A373E9
:1026400010BD00BF00380240026802F10C0353E8DD
:10265000003F23F4907302F10C0C4CE80031002988
:10266000F3D102F1140353E8003F23F0010302F118
:10267000140C4CE800310029F3D1036B012B05D079
:102680002022002380F842200363704702F10C03EC
:1026900053E8003F23F0100302F10C0C4CE800312A
:1026A0000029F3D1ECE700BF0268116938B5044690
:1026B000C068A36821F440510143206911610343BC
:1026C0006069D1680343E06921F4164121F00C01EF
:1026D00003430B43D3605369A069284923F4407333
:1026E00003438A42536129D0254B9A4226D0FFF7F3
:1026F0000DFFE369B3F5004F26D16268214D9218B2
:102700004FF019014FF000035B41A0FB010102F003
:10271000E3FCA5FB00325109642303FB1103DB003A
:102720003233A5FB0323C3F342121B09246802EBD7
:10273000011203F4F8731344A36038BDFFF7F6FEEB
:10274000E369B3F5004FD8D0636819219A00A0FB64
:1027500001019B0F02F0C0FC0A4AA2FB00135B09B7
:102760002168642404FB130000013230A2FB002026
:102770001B0103EB5010886038BD00BF0010014002
:10278000001401401F85EB51704700BF70B310B5B6
:1027900090F84130044603F0FF0213B3226824236B
:1027A00084F84130D36823F400532046D360FFF708
:1027B0007BFF2368196921F490411961596921F05F
:1027C0002A015961D96800224FF0200C41F40051D0
:1027D000D960626484F841C084F842C010466263E4
:1027E00010BD80F84020FEF7B9F9D7E70120704707
:1027F000002832D010B590F84130044603F0FF02B3
:1028000033B32268242384F84130D36823F400537F
:102810002046D360FFF748FF2368196921F49041EF
:102820001961596921F022015961596941F0080182
:102830005961D96800224FF0200C41F40051D96051
:10284000626484F841C084F842C01046626310BDDF
:1028500080F84020FEF782F9D3E70120704700BFDF
:10286000002839D038B590F841300D46044603F0C1
:10287000FF0263B32268242384F84130D36823F431
:1028800000532046D360FFF70FFF2368196921F436
:1028900000611961596921F02A015961196941F4EE
:1028A00080411961196921F02001196119690D43ED
:1028B0001D61D9680022202541F40051D96062646D
:1028C00084F8415084F842501046626338BD80F865
:1028D0004020FEF743F9CDE70120704700283ED0A5
:1028E00070B590F8413016460D46044603F0FF02DD
:1028F000002B2FD02268242384F84130D36823F49E
:102900000053D3602046FFF7CFFE23681A6922F4F4
:1029100090421A615A6922F02A025A611A6922F019
:102920000F021A6119690D431D61DA6822F4006211
:10293000DA60DA681643DE60DA680021202542F4A6
:102940000052DA60616484F8415084F842500846CD
:10295000616370BD80F84020FEF700F9CAE70120EE
:10296000704700BF704700BFB8B10268242310B59C
:1029700080F84130D36823F400530446D360FEF757
:102980006DF90023636484F8403084F8413084F8A2
:10299000423018462363636310BD0120704700BFB7
:1029A0002DE9F843064690F8410020284BD189468E
:1029B00009B1144612B90120BDE8F8831D464FF055
:1029C00000082123C6F8448086F84130FEF7EEFA6D
:1029D000B368B484B3F5805FF484074636D0F38CD3
:1029E00034689BB213B917E0681C1DD12268110628
:1029F000FAD5B9F1000F20D019F8013B6360F38CD0
:102A0000013B9BB2F384F38C9BB2002BEED1236885
:102A10005B0604D46A1C25D123685B06FAD5202303
:102A200086F841300020C7E7FEF7C0FAC01B854298
:102A300012D38DB13468E368D8E738F8023BC3F3AA
:102A400008036360DBE70220BDE8F8833369002BED
:102A5000C5D1C8469946C2E7202386F841300320F5
:102A6000BDE8F883FEF7A2FAC01B8542F4D3002D1F
:102A7000F2D03468E368CFE72DE9F047074690F8D5
:102A80004200202882B06ED18A4609B114461AB994
:102A9000012002B0BDE8F08700251E4622237D6498
:102AA00087F842303D63FEF781FABB68BC85B3F519
:102AB000805FFC8580465AD0A946FB8D9BB2FBB156
:102AC0003D6801E0711C22D12C6814F02004F9D07B
:102AD000BAF1000F41D0BB68B3F5805F04D0002B82
:102AE00037D13B69002B34D16B68DBB20AF8013B6C
:102AF000FB8D013B9BB2FB85FB8D9BB2002BDFD195
:102B00002023002087F8423002B0BDE8F087FEF7AE
:102B10004DFAA0EB0800864214D39EB13D68EB68E5
:102B20005A07D1D52B681B07CED501942B6801938A
:102B30006B6801933846019BFFF786FD08237B6491
:102B400087F840402023032087F8423002B0BDE8D8
:102B5000F0876B6803F07F03C8E76B68C3F3080373
:102B600029F8023BC4E7022002B0BDE8F0873B69C8
:102B7000002BA1D1D1469A469FE700BF90F8413083
:102B8000202B15D101B10AB90120704710B40023E0
:102B9000046801622121C284436480F84110E16825
:102BA000828441F08001E16018465DF8044B704773
:102BB0000220704790F84230202B03D101B11AB99E
:102BC000012070470220704700230363C2854364DD
:102BD000036981622221828580F8421053B903681B
:102BE0005A6942F001025A61DA6842F0200200207C
:102BF000DA6070470368DA6842F48072DA60EFE7FF
:102C0000F8B5044690F84100202803D101B11AB963
:102C10000120F8BD0220F8BDE284A284A06BDFF899
:102C200050C0114F114E21621346226800254FF00B
:102C3000210E6564043284F841E0C0E90FC7C0E9A1
:102C40001365FEF7FDFC22686FF04003136002F18C
:102C5000140353E8003F43F0800302F1140141E8FC
:102C600000300028F3D1F8BD2932000841320008B5
:102C7000D93100080368596990F84120212A06D00B
:102C8000596990F84220222A10D000207047090686
:102C9000F6D503F1140252E8002F22F0800203F16E
:102CA000140C4CE800210029F3D1E9E74A06ECD5E1
:102CB00003F10C0252E8002F22F4807203F10C00A1
:102CC00040E800210029F3D103F1140252E8002F5B
:102CD00022F0010203F1140040E800210029F3D1A1
:102CE00003F1140252E8002F22F0400203F1140015
:102CF00040E800210029F3D1C7E700BF90F8413038
:102D0000212B05D090F84230222B12D000207047A2
:102D1000036803F1140252E8002F42F0800203F12D
:102D2000140C4CE800210029F3D190F84230222BFA
:102D3000ECD182B00368002201921A6801925968AE
:102D40000269019101995AB103F10C0252E8002F76
:102D500042F4807203F10C0040E800210029F3D115
:102D600003F1140252E8002F42F0010203F11400B3
:102D700040E800210029F3D103F1140252E8002FAA
:102D800042F0400203F1140040E800210029F3D191
:102D9000002002B0704700BF10B50368596990F871
:102DA0004120212A044606D0596994F84220222A5B
:102DB00028D0002010BD0906F6D503F1140252E810
:102DC000002F22F0800203F1140040E800210029C6
:102DD000F3D1A06B10B1FEF773FC236803F10C0272
:102DE00052E8002F22F0C00203F10C0040E800215D
:102DF0000029F3D1202284F84120596994F8422017
:102E0000222AD6D14A06D4D503F1140252E8002F63
:102E100022F0400203F1140040E800210029F3D120
:102E2000E06B08B1FEF74CFC2046FFF70DFC0020DC
:102E300010BD00BF2DE9F0471D4690F8423082B02A
:102E4000202BDDF8289060D18A4609B117461AB9BF
:102E5000012002B0BDE8F0874FF0000822230446AD
:102E6000C0F8448080F8423001230363C0F8348006
:102E7000FEF79CF8A368A785B3F5805FE785064653
:102E800047D000272F80E38D9BB213BB47E0A36898
:102E9000B3F5805F04D0002B33D12369002B30D1F0
:102EA0005368DBB20AF8013B2B8801332B80E38D9A
:102EB000013B9BB2E385B9F1FF3F07D0FEF776F8FF
:102EC000801B484536D8B9F1000F33D0E28D92B25D
:102ED0002AB322681368D90607D5019713680193AE
:102EE000536801932B8801994BBB13689B06E2D56D
:102EF000BAF1000FCBD15368C3F3080328F8023BA3
:102F0000D2E7536803F07F03CCE7022002B0BDE8AC
:102F1000F0872369002BB4D1D0469A46B1E7E18D02
:102F2000A38D20225B1A00202B8084F8422002B05F
:102F3000BDE8F087202384F84230032089E702228D
:102F400020236263002084F8423082E790F8423008
:102F5000202B03D101B11AB901207047022070471C
:102F600010B40023012404634363C28543640369EE
:102F70008162222183B0828580F8421083B9036880
:102F80005A6942F001025A61DA6842F02002DA60BE
:102F9000026B012A0AD0012003B05DF8044B704790
:102FA0000368DA6842F48072DA60E9E7002201928D
:102FB0001A6801925A680192019A03F10C0252E8D0
:102FC000002F42F0100203F10C0141E8002000281C
:102FD000F3D1E1E7406B7047036810B5044603F195
:102FE0000C0252E8002F22F4F07203F10C0040E8CA
:102FF00000210029F3D103F1140252E8002F22F03E
:10300000010203F1140040E800210029F3D1226BF2
:10301000012A39D05A69110621D45A69520612D5AB
:1030200003F1140252E8002F22F0400203F11400D1
:1030300040E800210029F3D1E06B20B10165FEF7E3
:103040003FFB002836D100232022E384E38563641C
:1030500084F8422084F841201846236310BD03F110
:10306000140252E8002F22F0800203F1140040E81D
:1030700000210029F3D1A06B0028CED00165FEF716
:103080001FFB70B92368C8E703F10C0252E8002F58
:1030900022F0100203F10C0040E800210029F3D1D6
:1030A000B8E7A06BFEF760FD2028EBD11023636426
:1030B000032010BDE06BFEF757FD2028C3D1F5E7D4
:1030C000026810B5044602F10C0353E8003F23F0F8
:1030D000C00302F10C0040E800310029F3D153692C
:1030E0001B0605D400202023E08484F8413010BD65
:1030F00002F1140353E8003F23F0800302F11400AF
:1031000040E800310029F3D1A06B0028EAD0016526
:10311000FEF7D6FA0028E5D0A06BFEF725FD2028A3
:10312000E0D110236364032010BD00BF036810B515
:10313000044603F10C0252E8002F22F4907203F1CE
:103140000C0040E800210029F3D103F1140252E8F9
:10315000002F22F0010203F1140040E800210029B1
:10316000F3D1226B012A27D05A69520607D40023D3
:103170002022E38584F842201846236310BD03F122
:10318000140252E8002F22F0400203F1140040E83C
:1031900000210029F3D1E06B0028E8D00165FEF79B
:1031A0008FFA0028E3D0E06BFEF7DEFC2028DED1AA
:1031B00010236364032010BD03F10C0252E8002FBA
:1031C00022F0100203F10C0040E800210029F3D1A5
:1031D000CAE700BF704700BF08B50368806B1B6873
:1031E00013F480731AD10268C38402F1140353E804
:1031F000003F23F0800302F1140040E80031002971
:10320000F3D102F10C0353E8003F43F0400302F115
:103210000C0040E800310029F3D108BD00F080FE29
:1032200008BD00BF704700BF08B5806BFFF7FAFF0D
:1032300008BD00BF704700BF704700BF704700BFA8
:1032400008B5806B0268516990F84130212B0BD092
:10325000526990F84230222B1ED0436C43F0100389
:103260004364FFF7EBFF08BD0906F1D50023C384D3
:1032700002F10C0353E8003F23F0C00302F10C0CF1
:103280004CE800310029F3D1202380F84130526905
:1032900090F84230222BE0D15306DED50023C385BF
:1032A000FFF7D2F9D9E700BF08B5806B0023C385CB
:1032B000C384FFF7C3FF08BD704700BF036870B544
:1032C000054603F10C0252E8002F22F4F07203F1DC
:1032D0000C0040E800210029F3D103F1140252E868
:1032E000002F22F0010203F1140040E80021002920
:1032F000F3D12A6B012A52D0A86B28B15A6912F077
:10330000800218BF314A0265E96B29B15A6912F08F
:10331000400218BF2E4A0A655A69140626D45A6913
:10332000520614D5012403F1140252E8002F22F0B2
:10333000400203F1140040E80026002EF3D10029DA
:103340003AD00846FEF704FA70B1EB6B1E65002315
:103350002022EB842846EB856B6485F8412085F8B4
:1033600042202B63FFF7A8FF002070BD03F1140279
:1033700052E8002F22F0800203F1140646E80024F0
:10338000002CF3D10028CAD0FEF7E2F92B68B8B1BF
:10339000A96B5A690C655106D9D5E96BC2E703F1EF
:1033A0000C0252E8002F22F0100203F10C0040E85A
:1033B00000210029F3D19FE7012CC8D0002070BD67
:1033C0005A695006D0D5E96BADE700BF0534000857
:1033D000D5330008806B08B5D0E90E3200211165A5
:1033E00013B11B6D03B108BD00232022C384C38524
:1033F000436480F8412080F842200363FFF75CFFBC
:1034000008BD00BF806B08B5D0E90E23002111650F
:1034100013B11B6D03B108BD00232022C384C385F3
:10342000436480F8412080F842200363FFF744FFA3
:1034300008BD00BF704700BF026810B5044602F126
:103440000C0353E8003F23F0C00302F10C0040E8F6
:1034500000310029F3D1536913F0800320D002F129
:10346000140353E8003F23F0800302F1140040E806
:1034700000310029F3D1A06B48B10E4B0365FEF774
:1034800067F910B1A06B036D9847002010BD202391
:10349000E084204684F84130FFF7CCFF002010BDC7
:1034A0002022E384204684F84120FFF7C3FF002058
:1034B00010BD00BFB934000808B5806B002220237E
:1034C000C28480F84130FFF7B5FF08BD704700BFE8
:1034D000036810B5044603F10C0252E8002F22F4F1
:1034E000907203F10C0040E800210029F3D103F1B0
:1034F000140252E8002F22F0010203F1140040E808
:1035000000210029F3D1226B012A1CD05A6912F044
:1035100040022FD003F1140252E8002F22F04002A3
:1035200003F1140040E800210029F3D1E36BBBB1A3
:10353000154A1A651846FEF70BF910B1E06B036DDA
:103540009847002010BD03F10C0252E8002F22F032
:10355000100203F10C0040E800210029F3D1D5E767
:103560002022E385204684F842202363FFF7AEFF44
:10357000002010BD2023E285204684F842302263DB
:10358000FFF7A4FF002010BD8D35000808B5806B43
:1035900000232022C38580F842200363FFF796FFB3
:1035A00008BD00BF704700BF806B08B501234363AF
:1035B000036B012B02D0FFF73FFE08BD818D490848
:1035C000FFF7F0FF08BD00BF08B50368806B1A68FD
:1035D00012F480722BD10368C28503F10C0252E809
:1035E000002F22F4807203F10C0C4CE8002100291A
:1035F000F3D103F1140252E8002F22F0010203F18B
:10360000140C4CE800210029F3D103F1140252E814
:10361000002F22F0400203F1140C4CE80021002995
:10362000F3D1202280F84220026B012A07D0002328
:103630004363036B012B0FD000F0A2FC08BD03F124
:103640000C0252E8002F22F0100203F10C0C4CE89F
:1036500000210029F3D1EAE7818DFFF7A3FF08BD20
:103660008368B3F5805F45D0826A002B3AD0036847
:103670005B6803F07F031370836A01338362C38D39
:10368000013B9BB2C385002B33D10268D16821F086
:10369000200100B5D160D16821F48071D1605169F9
:1036A0004FF0200C21F00101516180F842C04363CA
:1036B000016B012983B028D1036302F10C0353E8A5
:1036C000003F23F0100302F10C0C4CE800310029FC
:1036D000F3D11368DB0622D4818DFFF763FF03B0BB
:1036E0005DF804FB0369002BC1D103685B681370AC
:1036F000C2E7704703696BB90268836A5268C2F314
:10370000080223F8022B8362B9E700F039FC03B00A
:103710005DF804FB0368826A5B681370ACE7019193
:103720001368019353680193019BD5E770B5036853
:103730001A68D9685E6912F00F0F82B004461D4600
:1037400070D1930602D58E0600F1D680236B012B33
:103750000BD0160602D5080600F1A480520602D549
:103760004B0600F1BE8002B070BDD606F1D5C8068A
:10377000EFD5002301932B6801936B680193019BA4
:103780006B695B0640F1E680E06B03685B689BB2A7
:10379000002BE8D0A28D9A42E5D9E385C369B3F541
:1037A000807F36D005F10C0353E8003F23F480738B
:1037B00005F10C0141E80032002AF3D105F11403B0
:1037C00053E8003F23F0010305F1140141E8003202
:1037D000002AF3D105F1140353E8003F23F040031E
:1037E00005F1140141E80032002AF3D1202384F8C6
:1037F0004230226305F10C0353E8003F23F010032D
:1038000005F10C0141E80032002AF3D1FDF758FF21
:10381000A28D02236363E38DD21A204691B2FFF793
:10382000C1FEA0E706F0010601F4907030438DD090
:10383000D00705D5CD0503D5606C40F0010060646C
:10384000500726D52EB1606C950740F002006064E9
:1038500023D4150707D501F02000304303D0606C56
:1038600040F008006064606C00283FF47CAF900674
:1038700002D58A0600F1A9805B69656C03F04003FC
:1038800005F008051D4320463FD1FFF7D7FC6564CE
:1038900069E79007DDD5002EDBD0606C40F00400B6
:1038A0006064D6E794F84130212B7FF45CAFA368C5
:1038B000B3F5805F00F09380236A5A1C22621B7864
:1038C0006B60E38C013B9BB2E384002B7FF44BAF36
:1038D000EB6823F08003EB60EB6843F04003EB60A0
:1038E00041E7EB68202223F04003EB60204684F898
:1038F000412000F015FB36E790F84230222B7FF490
:1039000032AF02B0BDE87040AAE6FEF79DFE256822
:103910006B695B061AD505F1140353E8003F23F0E9
:10392000400305F1140141E80032002AF3D1E06BB5
:1039300060B1314B0365FDF70BFF00283FF413AF77
:10394000E06B036D02B0BDE8704018472046FFF7FA
:1039500075FC08E7E28DE38D9BB292B2002B3FF439
:1039600002AFA18D8A1A91B200293FF4FCAE05F195
:103970000C0353E8003F23F4907305F10C0040E87A
:103980000032002AF3D105F1140353E8003F23F07D
:10399000010305F1140040E80032002AF3D120238E
:1039A00084F84230226305F10C0353E8003F23F012
:1039B000100305F10C0040E80032002AF3D1022385
:1039C00063632046FFF7EEFDCDE694F84220222AFD
:1039D0007FF452AF2046FFF743FE23684CE723698C
:1039E000002B7FF469AF236A33F8022BC2F308027D
:1039F0006A60236265E700BFA932000890F8403092
:103A0000012B19D001222423016880F8402080F87E
:103A1000413001F10C0353E8003F43F0010301F191
:103A20000C0C4CE80032002AF3D1202380F84130FE
:103A300080F84020104670470220704790F84030D0
:103A4000012B1AD001222423016880F8402080F83D
:103A5000413001F10C0353E8003F43F0020301F150
:103A60000C0C4CE80032002AF3D1202380F84130BE
:103A700080F840204263104670470220704700BF24
:103A800090F84030012B1AD001222423016880F8DD
:103A9000402080F8413001F10C0353E8003F23F04F
:103AA000020301F10C0C4CE80032002AF3D1202370
:103AB00080F8413080F84020426310467047022071
:103AC000704700BF90F84030012B12D001682423CA
:103AD00080F84130CB6823F00C03002243F0080348
:103AE0004FF0200CCB6080F841C080F84020104699
:103AF00070470220704700BF90F84030012B12D071
:103B00000168242380F84130CB6823F00C030022A5
:103B100043F004034FF0200CCB6080F841C080F8E4
:103B20004020104670470220704700BF90F84120A7
:103B300090F8420010437047406C7047036910B41E
:103B4000002481622221C2858285446480F842106B
:103B500063B903685A695DF8044B42F001025A6187
:103B6000DA6842F020020020DA6070470368DA6801
:103B700042F48072DA60EDE770B522230025044636
:103B80004564816280F842308285C06B1E4E0565B7
:103B900013460A462168C6631C4E06641C4EC66462
:103BA00082B00431FDF74CFD236801951A6801923B
:103BB00059682269019101995AB103F10C0252E846
:103BC000002F42F4807203F10C0040E8002100292C
:103BD000F3D103F1140252E8002F42F0010203F185
:103BE000140040E800210029F3D103F1140252E847
:103BF000002F42F0400203F1140141E800200028A8
:103C0000F3D102B070BD00BFC9350008A935000866
:103C10004132000890F842C0BCF1200F05D130B409
:103C200001B122B9012030BC704702207047002446
:103C3000046330BCFFF7A0BF90F842C0BCF1200F76
:103C400006D139B330B583B022B9012003B030BDFD
:103C50000220704701230363002343630446FFF7F8
:103C60008BFF0028F2D1236B012BEED1226801904B
:103C70001368019353680193019B02F10C0353E80D
:103C8000003F43F0100302F10C0444E80031002926
:103C9000F3D1DBE70120704710B50B68104C0268C8
:103CA000A3420FDDA3EB040CA44502F1010E12DDCB
:103CB00003F1084303F54A0303F5D84302320260D7
:103CC0000B6010BD002BFADA1B1902F1FF32FBD496
:103CD00002600B6010BD7246634602600B6010BD4F
:103CE00000CA9A3B30B443684D680C6812490268B8
:103CF0002B448B4222440FDD5C1A8C4202F10105F9
:103D000014DD03F1084303F54A0303F5D8430232F7
:103D100030BCC0E900237047002BF9DA5B1802F1D0
:103D2000FF32FBD430BCC0E9002370472A4623464B
:103D3000C0E9002330BC704700CA9A3B30B44368E6
:103D40004D680C68134902685B1B8B42A2EB0402AE
:103D50000FDD5C1A8C4202F1010514DD03F108430A
:103D600003F54A0303F5D843023230BCC0E900230F
:103D70007047002BF9DA5B1802F1FF32FBD430BC3C
:103D8000C0E9002370472A462346C0E9002330BC1F
:103D9000704700BF00CA9A3BF8B557EC106B054658
:103DA000006800F01DFE32463B4600F083FE01F045
:103DB0001BF90446686800F013FE32463B4600F0EB
:103DC00079FE01F011F9124A904203460FDD811A83
:103DD000914204F1010014DD03F1084303F54A03A5
:103DE00003F5D8430234C5E900432846F8BD00284E
:103DF000F9DA9B1804F1FF34FBD4C5E900432846E7
:103E0000F8BD04460B46C5E900432846F8BD00BF8F
:103E100000CA9A3B10B5002394B0CDE90B33CDE92D
:103E20000933CDE90333CDE905331F4901930D93E0
:103E30000793086C1D4A40F080500864096C01F03B
:103E40008051019101990293116841F44041116040
:103E500012680F9302F440420292102301220224BE
:103E6000CDE90B230298089408214822042308A8CE
:103E7000CDE91012CDE912430E94FEF72FF808B1E8
:103E800072B6FEE70F210346CDE903144FF48052CA
:103E900003A82146CDE905320793FEF793FA08B14E
:103EA00072B6FEE714B010BD00380240007000404A
:103EB00072B6FEE70000000010B50A4CB0F904002D
:103EC0000123236000F08CFDC4E90201FDF76EF8C8
:103ED000054BA3FB0030800900F072FDC4E904012A
:103EE00010BD00BF70230020D34D621010B5B0F993
:103EF0000400094C00F074FD0123C4E906012362AB
:103F0000FDF754F8054BA3FB0030800900F058FD85
:103F1000C4E9040110BD00BF70230020D34D62101E
:103F200070B5144CA06A90F84130202B00D070BDC1
:103F3000114E3378002BFAD1D4F83034D4F834242D
:103F400001219342317012D094BFC2F500759B1AC3
:103F50000A498CBF9DB2ADB211442A46FEF750FE0D
:103F6000D4F834241544C5F30805C4F834540023A8
:103F7000337070BD70230020F02D0020A02500209C
:103F800003494FF40072886A2C31FFF743BE00BF2B
:103F900070230020B0F5007F08B503D0B0F5004FC6
:103FA0001FD008BD2C484FF48071FDF75DFF2B4BEF
:103FB00000280CBF012200221A60294B32D0D3F80E
:103FC000602912F5004F16BFD3F8602947F6FF723B
:103FD00002F1FF32C3F86029D3F86029A3F86829F9
:103FE00008BD00F1804000F5C4304021FDF73CFFE2
:103FF0001A4B002814BF012200225A60184B1ED110
:10400000D3F86C2912F5004F16BFD3F86C2947F688
:10401000FF7202F1FF32C3F86C29D3F86C29A3F8C0
:10402000742908BDD3F8601947F6FF72914216BF94
:10403000D3F860290B4A0132C3F86029CCE7D3F8E2
:104040006C1947F6FF72914216BFD3F86C29054AE6
:104050000132C3F86C29E0E700080240200000208C
:10406000702300200080FFFF2DE9F041384D394CCE
:10407000B5F96839D5F87829DFF8E08003F57F4392
:10408000FF339B1A84FB0324E218DC17C4EBE234F1
:10409000C4EB04441C1B42F210739C42C4BFA4F541
:1040A0007F44FF3CC5F87C49FCF780FF034620466F
:1040B0001C4600F095FC20A3D3E9002300F024FE69
:1040C0000646204644460F4600F07AFCF4E80423F6
:1040D00000F038FB02460B463046394600F014FE2D
:1040E00002460B4644E9022315A3D3E9002300F05E
:1040F000E1FC194B002200F007FE13A3D3E90023D3
:1041000000F002FE00F098FF07EE900ABDEEE77A9D
:10411000B5F96839C5F8783917EE103A2060A5F876
:104120009839FCF743FF00F04BFCC8E90001BDE8FB
:10413000F08100BFAFF300800000000080A9C34001
:1041400000000000004CDD40C3F5285C8FC2A53F95
:10415000702300200180008000000840F02C002027
:104160002DE97043364D374CB5F97439D5F89C2993
:1041700003F57F43FF339B1A84FB0324E218DC170B
:10418000C4EBE234C4EB04441C1B42F210739C42A7
:10419000C4BFA4F57F44FF3CC5F8A049FCF706FF67
:1041A000034620461C4600F01BFC1FA3D3E9002356
:1041B00000F0AAFD80462046234C894600F000FC12
:1041C00054E9022300F0BEFA02460B464046494637
:1041D00000F09AFD264602460B46E6E8022314A3A9
:1041E000D3E9002300F066FC184B002200F08CFDA0
:1041F00011A3D3E9002300F087FD00F01DFF07EEB7
:10420000900ABDEEE77AB5F97439C5F89C3917EE16
:10421000103A3060A5F8C039FCF7C8FE00F0D0FBBA
:1042200044E90201BDE870830000000080A9C3409A
:1042300000000000004CDD40C3F5285C8FC2A53FA4
:104240007023002001800080202D00200000084005
:104250000A4601460120FCF7D5BA00BF0A460146CE
:104260000220FCF7CFBA00BF0A4601460320FCF744
:10427000C9BA00BF0A4601460420FCF7C3BA00BF12
:10428000002211461046FCF7BDBA00BF002804DD2D
:104290000029D4BF02200120704701D1002909DB89
:1042A000002905DC28B100290CBF03200420704739
:1042B00003207047022070472DE9F84F374CD4F89F
:1042C000D059D4F8CC39D4F8C8698246284623F0AE
:1042D000004700F085FB32463B468046894600F0A9
:1042E0005BFEB0B301352E4BD4F8E0B953E902635D
:1042F000584623F0004700F073FB32463B468046A9
:10430000894600F049FE70B30BF1010B85F30805F7
:104310008BF3080205EB0521C4F8E029BAF1010F7F
:1043200002EB0222C4F8D059C4F8E419C4F8E82911
:1043300024D0BAF1020F2BD0BAF1030F1ED0BAF17C
:10434000040F20D00022BDE8F84F11461046FCF7BC
:1043500059BA32463B464046494600F03BFE0028EB
:10436000C1D0013DBFE732463B464046494600F0DA
:1043700031FE0028CAD00BF1FF3BC7E75046BDE82D
:10438000F84FFCF73FBABDE8F84F0220FCF73ABA05
:10439000BDE8F84F0420FCF735BA00BF70230020B9
:1043A000502D002070B52A4D00248AB04FF40072C1
:1043B00005F12C01A86AFFF72DFC22462146204674
:1043C000C5F81049C5F81449C5F81C49C5F818497D
:1043D000FCF718FADFF884C0BCE80F006E460FC681
:1043E0005CF8043B3360BCE80F000DF1140EAEE83E
:1043F0000F00DCF80030CEF8003005A96846FBF766
:10440000A9FF05F6A8010B46224602E00132192A4F
:104410000BD053F8040F0028F8D105EB82030D48A8
:10442000C3F8AC086432C5F8F029002302E0013378
:10443000192B0BD051F8042F002AF8D105EB830279
:104440000549C2F8AC186433C5F80C3A0AB070BD1F
:10445000702300205C2D0020782D0020E09E0008B5
:104460002DE9F04F2DED048B6F4C83B004F1240047
:1044700005F0A2F9FCF79AFDD4F8283AC4F8240A0A
:10448000C31A1E2B00F3BF802368012B04D003B096
:10449000BDEC048BBDE8F08F236A012BF7D1FCF74C
:1044A00085FDD4F82C3A9FED617A9FED618AC31A9D
:1044B00007EE903AF8EEE77A94ED026B87EE879A72
:1044C000824653EC162B16EE100A23F000418DEDB8
:1044D000006B00F0B1FD574BD3ED007A1F4607EE9D
:1044E000100AA037F0EEE77A77EE677A97ED007A58
:1044F000A9EE277A1E461D46F1EE048A67EE086A89
:1045000087ED007AB0EE667AA7EEA87A03F1500B39
:104510004035A436F0EEC77A17EE900A00F072FA32
:10452000D4E9068945E90201404629F0004100F03E
:1045300083FD56ED1F7A06EE900AF0EEE77A76EEEE
:10454000E77A96ED007AA9EE277A67EE086A86ED9B
:10455000007AB0EE667AA7EEA87AF0EEC77A17EE88
:10456000900A00F04FFA4BE902014046494600F03C
:104570003BFD8046DDE9000100F036FD4146FFF7D6
:1045800085FEC4F8380A48B90022002345E9022311
:104590004BE9022387ED008A86ED008AD4F83C3A85
:1045A00098420AD0002300223B603360002345E993
:1045B00002234BE90223C4F83C0AFCF7F7FC1E4B2C
:1045C000A3FB0030800900F0FBF9D4E9042300F0DC
:1045D000B9F81A4B002200F0FDFCD8B19FED107B1A
:1045E00005ED027BB0EE471AF0EE671AB0EE470A0F
:1045F000F0EE670A0BED027BD4F8380AFFF75CFE99
:10460000C4F82CAA43E7C4F8280AFFF7A9FDFFF76E
:104610002BFD39E715ED020B1BED021BECE700BF8C
:1046200000000000000000007023002000007A4419
:1046300000000000002D0020D34D62100000F03F6C
:104640000B6810B4084C5A0AA4FB024204684FEAF3
:10465000D21C04EBD2120260044A5DF8044B02FB48
:104660001C330B60704700BF834B040000CA9A3BA9
:104670000B4A10B582FB013C0A4CCA17C2EB2C73E3
:104680009C4604FB131308495A0AA1FB02120CEBC7
:10469000D211D20904FB123386460160436010BD7B
:1046A000A12FB84400CA9A3B834B0400D1E9001201
:1046B000436830B4094C0A4D1344026823440A4449
:1046C000590AA5FB0151013A02EBD112C90904FBB9
:1046D0001133026030BC4360704700BF00CA9A3B90
:1046E000834B040030B40B4C43684A6809680A4D98
:1046F00023449B1A0268013A521A590AA5FB015138
:1047000002EBD112C90904FB1133026030BC4360D3
:10471000704700BF00CA9A3B834B040038B5D1E90B
:104720000053516812685B1A01460446AA1A41F800
:10473000043F0260FFF7B0FA204638BD81F0004127
:1047400002E000BF83F0004330B54FEA41044FEA76
:10475000430594EA050F08BF90EA020F1FBF54EA11
:10476000000C55EA020C7FEA645C7FEA655C00F0AD
:10477000E2804FEA5454D4EB5555B8BF6D420CDD7E
:104780002C4480EA020281EA030382EA000083EA01
:10479000010180EA020281EA0303362D88BF30BDA1
:1047A00011F0004F4FEA01314FF4801C4CEA1131F7
:1047B00002D0404261EB410113F0004F4FEA033356
:1047C0004CEA133302D0524263EB430394EA050FE1
:1047D00000F0A780A4F10104D5F1200E0DDB02FA50
:1047E0000EFC22FA05F2801841F1000103FA0EF2E4
:1047F000801843FA05F359410EE0A5F120050EF1AA
:10480000200E012A03FA0EFC28BF4CF0020C43FADA
:1048100005F3C01851EBE37101F0004507D54FF0E7
:10482000000EDCF1000C7EEB00006EEB0101B1F537
:10483000801F1BD3B1F5001F0CD349085FEA30007D
:104840004FEA3C0C04F101044FEA445212F5800F88
:1048500080F09A80BCF1004F08BF5FEA500C50F125
:10486000000041EB045141EA050130BD5FEA4C0C08
:10487000404141EB0101013C28BFB1F5801FE9D265
:1048800091F0000F04BF01460020B1FA81F308BF88
:104890002033A3F10B03B3F120020CDA0C3208DD54
:1048A00002F1140CC2F10C0201FA0CF021FA02F12F
:1048B0000CE002F11402D8BFC2F1200C01FA02F19F
:1048C00020FA0CFCDCBF41EA0C019040E41AA2BFC4
:1048D00001EB0451294330BD6FEA04041F3C1CDA8C
:1048E0000C340EDC04F11404C4F1200220FA04F0AC
:1048F00001FA02F340EA030021FA04F345EA030156
:1049000030BDC4F10C04C4F1200220FA02F001FA17
:1049100004F340EA0300294630BD21FA04F0294699
:1049200030BD94F0000F83F4801306BF81F4801132
:104930000134013D4EE77FEA645C18BF7FEA655CA5
:1049400029D094EA050F08BF90EA020F05D054EA77
:10495000000C04BF1946104630BD91EA030F1EBF7C
:104960000021002030BD5FEA545C05D14000494180
:1049700028BF41F0004130BD14F580043CBF01F573
:10498000801130BD01F0004545F0FE4141F4700159
:104990004FF0000030BD7FEA645C1ABF1946104634
:1049A0007FEA655C1CBF0B46024650EA013406BF35
:1049B00052EA033591EA030F41F4002130BD00BFF4
:1049C00090F0000F04BF0021704730B54FF48064B1
:1049D00004F132044FF000054FF0000150E700BF32
:1049E00090F0000F04BF0021704730B54FF4806491
:1049F00004F1320410F0004548BF40424FF000017E
:104A00003EE700BF42004FEAE2014FEA31014FEAC0
:104A100002701FBF12F07F4393F07F4F81F060510F
:104A2000704732F07F4208BF704793F07F4F04BF5A
:104A300041F40021704730B54FF4607401F0004537
:104A400021F000411CE700BF50EA010208BF704797
:104A500030B54FF000050AE050EA010208BF704788
:104A600030B511F0004502D5404261EB41014FF4F1
:104A7000806404F132045FEA915C3FF4D8AE4FF0F9
:104A800003025FEADC0C18BF03325FEADC0C18BFDC
:104A9000033202EBDC02C2F1200300FA03FC20FA2D
:104AA00002F001FA03FE40EA0E0021FA02F114447A
:104AB000BDE600BF70B54FF0FF0C4CF4E06C1CEA93
:104AC00011541DBF1CEA135594EA0C0F95EA0C0F04
:104AD00000F0DEF82C4481EA030621EA4C5123EA77
:104AE0004C5350EA013518BF52EA033541F48011A6
:104AF00043F4801338D0A0FB02CE4FF00005E1FB59
:104B000002E506F00042E0FB03E54FF00006E1FBA2
:104B100003569CF0000F18BF4EF0010EA4F1FF04E5
:104B2000B6F5007F64F5407404D25FEA4E0E6D4125
:104B300046EB060642EAC62141EA55514FEAC52036
:104B400040EA5E504FEACE2EB4F1FD0C88BFBCF5B2
:104B5000E06F1ED8BEF1004F08BF5FEA500E50F163
:104B6000000041EB045170BD06F0004646EA010129
:104B700040EA020081EA0301B4EB5C04C2BFD4EB5B
:104B80000C0541EA045170BD41F480114FF0000E54
:104B9000013C00F3AB8014F1360FDEBF002001F0C2
:104BA000004170BDC4F10004203C35DA0C341BDC3C
:104BB00004F11404C4F1200500FA05F320FA04F00E
:104BC00001FA05F240EA020001F0004221F0004142
:104BD00010EBD37021FA04F642EB06015EEA430EB5
:104BE00008BF20EAD37070BDC4F10C04C4F12005E5
:104BF00000FA04F320FA05F001FA04F240EA020098
:104C000001F0004110EBD37041F100015EEA430E68
:104C100008BF20EAD37070BDC4F1200500FA05F288
:104C20004EEA020E20FA04F301FA05F243EA020307
:104C300021FA04F001F0004121FA04F220EA020016
:104C400000EBD3705EEA430E08BF20EAD37070BD5C
:104C500094F0000F0FD101F00046400041EB01013C
:104C600011F4801F08BF013CF7D041EA060195F01E
:104C7000000F18BF704703F00046520043EB0303D8
:104C800013F4801F08BF013DF7D043EA06037047C5
:104C900094EA0C0F0CEA135518BF95EA0C0F0CD0D0
:104CA00050EA410618BF52EA4306D1D181EA030116
:104CB00001F000414FF0000070BD50EA410606BF10
:104CC0001046194652EA430619D094EA0C0F02D155
:104CD00050EA013613D195EA0C0F05D152EA03369A
:104CE0001CBF104619460AD181EA030101F00041B8
:104CF00041F0FE4141F470014FF0000070BD41F001
:104D0000FE4141F4780170BD70B54FF0FF0C4CF4DA
:104D1000E06C1CEA11541DBF1CEA135594EA0C0FF9
:104D200095EA0C0F00F0A7F8A4EB050481EA030E46
:104D300052EA03354FEA013100F088804FEA03332D
:104D40004FF0805545EA131343EA12634FEA0222FB
:104D500045EA111545EA10654FEA00260EF00041BC
:104D60009D4208BF964244F1FD0404F5407402D20E
:104D70005B084FEA3202B61A65EB03055B084FEA9F
:104D800032024FF480104FF4002CB6EB020E75EB9C
:104D9000030E22BFB61A754640EA0C005B084FEAC4
:104DA0003202B6EB020E75EB030E22BFB61A754641
:104DB00040EA5C005B084FEA3202B6EB020E75EB8C
:104DC000030E22BFB61A754640EA9C005B084FEA04
:104DD0003202B6EB020E75EB030E22BFB61A754611
:104DE00040EADC0055EA060E18D04FEA051545EA00
:104DF00016754FEA06164FEAC30343EA52734FEAA9
:104E0000C2025FEA1C1CC0D111F4801F0BD141EA21
:104E100000014FF000004FF0004CB6E711F4801F86
:104E200004BF01430020B4F1FD0C88BFBCF5E06F66
:104E30003FF6AFAEB5EB030C04BFB6EB020C5FEA76
:104E4000500C50F1000041EB045170BD0EF0004ECB
:104E50004EEA113114EB5C04C2BFD4EB0C0541EAFD
:104E6000045170BD41F480114FF0000E013C90E6FA
:104E700045EA060E8DE60CEA135594EA0C0F08BFBE
:104E800095EA0C0F3FF43BAF94EA0C0F0AD150EABD
:104E900001347FF434AF95EA0C0F7FF425AF104650
:104EA00019462CE795EA0C0F06D152EA03353FF478
:104EB000FDAE1046194622E750EA410618BF52EAF5
:104EC00043067FF4C5AE50EA41047FF40DAF52EAC9
:104ED00043057FF4EBAE12E74FF0FF3C06E000BF66
:104EE0004FF0010C02E000BF4FF0010C4DF804CD73
:104EF0004FEA410C7FEA6C5C4FEA430C18BF7FEA33
:104F00006C5C1BD001B050EA410C0CBF52EA430C60
:104F100091EA030F02BF90EA020F0020704710F1E0
:104F2000000F91EA030F58BF994208BF90422CBF6F
:104F3000D8176FEAE37040F0010070474FEA410C68
:104F40007FEA6C5C02D150EA013C07D14FEA430C86
:104F50007FEA6C5CD6D152EA033CD3D05DF8040BF7
:104F6000704700BF8446104662468C461946634629
:104F700000E000BF01B5FFF7B7FF002848BF10F100
:104F8000000F01BD4DF808EDFFF7F4FF0CBF012045
:104F900000205DF808FB00BF4DF808EDFFF7EAFFC1
:104FA00034BF012000205DF808FB00BF4DF808ED7C
:104FB000FFF7E0FF94BF012000205DF808FB00BF71
:104FC0004DF808EDFFF7CEFF94BF012000205DF8FB
:104FD00008FB00BF4DF808EDFFF7C4FF34BF012008
:104FE00000205DF808FB00BF4FEA410212F50012F5
:104FF00015D211D56FF47873B3EB625212D94FEA20
:10500000C12343F0004343EA505311F0004F23FA09
:1050100002F018BF404270474FF00000704750EA5E
:10502000013005D111F0004008BF6FF0004070471B
:105030004FF00000704700BF4FEA4102B2F1E04379
:1050400024BFB3F5001CDCF1FE5C0DD901F0004C6F
:105050004FEAC0024CEA5070B2F1004F40EB8300BF
:1050600008BF20F00100704711F0804F21D113F1EB
:105070003872BCBF01F00040704741F480114FEA24
:105080005252C2F11802C2F1200C10FA0CF320FAAD
:1050900002F018BF40F001004FEAC1234FEAD323CA
:1050A00003FA0CFC40EA0C0023FA02F34FEA430334
:1050B000CCE77FEA625307D150EA01331EBF4FF0BD
:1050C000FE4040F44000704701F0004040F0FE40D8
:1050D00040F40000704700BF53B94AB9002908BF27
:1050E00000281CBF4FF0FF314FF0FF3000F074B9C3
:1050F000ADF1080C6DE904CE00F006F8DDF804E02F
:10510000DDE9022304B070472DE9F047089D04460D
:105110008E46002B4DD18A42944669D9B2FA82F26A
:1051200052B101FA02F3C2F1200120FA01F10CFAA6
:1051300002FC41EA030E94404FEA1C48210CBEFBDE
:10514000F8F61FFA8CF708FB16E341EA034306FB67
:1051500007F199420AD91CEB030306F1FF3080F0F6
:105160001F81994240F21C81023E63445B1AA4B243
:10517000B3FBF8F008FB103344EA034400FB07F7E5
:10518000A7420AD91CEB040400F1FF3380F00A8126
:10519000A74240F207816444023840EA0640E41B1B
:1051A00000261DB1D4400023C5E900433146BDE8C7
:1051B000F0878B4209D9002D00F0EF800026C5E969
:1051C000000130463146BDE8F087B3FA83F6002E81
:1051D0004AD18B4202D3824200F2F980841A61EBF9
:1051E000030301209E46002DE0D0C5E9004EDDE717
:1051F00002B9FFDEB2FA82F2002A40F09280A1EBFF
:105200000C014FEA1C471FFA8CFE0126200CB1FB53
:10521000F7F307FB131140EA01410EFB03F088424C
:1052200008D91CEB010103F1FF3802D2884200F2D9
:10523000CB804346091AA4B2B1FBF7F007FB10116B
:1052400044EA01440EFB00FEA64508D91CEB040409
:1052500000F1FF3102D2A64500F2BB800846A4EB64
:105260000E0440EA03409CE7C6F12007B34022FA4F
:1052700007FC4CEA030C20FA07F401FA06F31C437E
:10528000F9404FEA1C4900FA06F3B1FBF9F8200C8B
:105290001FFA8CFE09FB181140EA014108FB0EF0D1
:1052A000884202FA06F20BD91CEB010108F1FF3A21
:1052B00080F08880884240F28580A8F1020861442D
:1052C000091AA4B2B1FBF9F009FB101144EA01413B
:1052D00000FB0EFE8E4508D91CEB010100F1FF34E6
:1052E0006CD28E456AD90238614440EA0840A0FB7E
:1052F0000294A1EB0E01A142C846A64656D353D054
:105300005DB1B3EB080261EB0E0101FA07F722FA77
:1053100006F3F1401F43C5E9007100263146BDE8A0
:10532000F087C2F12003D8400CFA02FC21FA03F303
:10533000914001434FEA1C471FFA8CFEB3FBF7F084
:1053400007FB10360B0C43EA064300FB0EF69E42A9
:1053500004FA02F408D91CEB030300F1FF382FD242
:105360009E422DD9023863449B1B89B2B3FBF7F6EA
:1053700007FB163341EA034106FB0EF38B4208D9C3
:105380001CEB010106F1FF3816D28B4214D9023E04
:105390006144C91A46EA004638E72E46284605E722
:1053A0000646E3E61846F8E64B45A9D2B9EB0208F3
:1053B00064EB0C0E0138A3E74646EAE7204694E783
:1053C0004046D1E7D0467BE7023B614432E73046B6
:1053D00009E76444023842E7704700BF00B50B4C50
:1053E00025681446EE681A4685B003460D464CB152
:1053F00007490095CDE901143046064900F044F80C
:1054000001F08CFB04490C46F3E700BF28000020A4
:1054100098A20008A8A20008A4A2000808B5134694
:105420000022FFF7DBFF00BF002301461A461846A3
:1054300001F040BB014B1868704700BF28000020F6
:1054400038B5084B084D5B1B9C1007D0043B1D442E
:10545000013C55F804399847002CF9D1BDE8384093
:1054600004F006BD30A300082CA300080CB400B55E
:1054700083B004AB53F8042B019300F057FC03B046
:105480005DF804EB02B070470EB410B583B005AB05
:10549000064C53F8042B01930146206800F046FCAB
:1054A00003B0BDE8104003B0704700BF28000020E3
:1054B00070B50D4E0D4D761BB61006D0002455F874
:1054C000043B01349847A642F9D1094E094D761B99
:1054D00004F0C8FCB61006D0002455F8043B013493
:1054E0009847A642F9D170BD20A3000820A3000868
:1054F0002CA3000820A30008844641EA000313F00F
:1055000003036DD1403A41D351F8043B40F8043BCA
:1055100051F8043B40F8043B51F8043B40F8043B8D
:1055200051F8043B40F8043B51F8043B40F8043B7D
:1055300051F8043B40F8043B51F8043B40F8043B6D
:1055400051F8043B40F8043B51F8043B40F8043B5D
:1055500051F8043B40F8043B51F8043B40F8043B4D
:1055600051F8043B40F8043B51F8043B40F8043B3D
:1055700051F8043B40F8043B51F8043B40F8043B2D
:1055800051F8043B40F8043B403ABDD2303211D3CD
:1055900051F8043B40F8043B51F8043B40F8043B0D
:1055A00051F8043B40F8043B51F8043B40F8043BFD
:1055B000103AEDD20C3205D351F8043B40F8043BCD
:1055C000043AF9D2043208D0D2071CBF11F8013BCB
:1055D00000F8013B01D30B8803806046704700BF91
:1055E000082A13D38B078DD010F003038AD0C3F1A0
:1055F0000403D21ADB071CBF11F8013B00F8013B82
:1056000080D331F8023B20F8023B7BE7043AD9D340
:10561000013A11F8013B00F8013BF9D20B78037015
:105620004B7843708B7883706046704788420DD901
:105630008B1883420AD900EB020CBAB1624613F808
:1056400001CD02F801CD9942F9D170470F2A0ED849
:10565000034602F1FF3C4AB10CF1010C013B8C44C2
:1056600011F8012B03F8012F6145F9D1704740EA89
:1056700001039B0750D1A2F1100370B501F1200C7A
:1056800023F00F0501F1100E00F11004AC441B09CA
:105690005EF8105C44F8105C5EF80C5C44F80C5C3E
:1056A0005EF8085C44F8085C5EF8045C44F8045C4E
:1056B0000EF1100EE64504F11004E9D1013312F0A9
:1056C0000C0F01EB031102F00F0400EB031327D0C2
:1056D000043C24F003064FEA940C1E441C1F8E4623
:1056E0005EF8045B44F8045FB442F9D10CF10104A4
:1056F00002F0030203EB840301EB840102F1FF3C9F
:105700004AB10CF1010C013B8C4411F8012B03F858
:10571000012F6145F9D170BD02F1FF3C03469BE7C3
:105720002246EBE7830730B548D0541E002A3FD00D
:10573000CAB2034601E0013C3AD303F8012B9D07AE
:10574000F9D1032C2DD9CDB245EA05250F2C45EA18
:10575000054536D9A4F1100222F00F0C03F1200EFA
:10576000E6444FEA121C03F1100242E9045542E9F3
:10577000025510327245F8D10CF1010214F00C0FF1
:1057800003EB021204F00F0C13D0ACF1040323F06E
:1057900003030433134442F8045B9342FBD10CF03F
:1057A00003042CB1CAB21C4403F8012B9C42FBD168
:1057B00030BD64461346002CF4D1F9E70346144685
:1057C000BFE71A46A446E0E710B4044C03460A4675
:1057D00020685DF8044B194600F002B8280000204C
:1057E0002DE9F84F1746002900F0988007F10B05C6
:1057F00080460C4602F01CFB162D5DD810252A466B
:10580000AF425ED854F8041C21F003069642A4F17E
:10581000080962DABC4BD3F808C009EB06008445DE
:1058200000F09780D0F804C02CF0010303445B68BB
:10583000DB0768D42CF0030C06EB0C03934247DA29
:10584000CB0710D454F8083CA9EB030ADAF804306B
:1058500023F003018C44B444944580F21181731801
:10586000934280F2E8803946404601F0C5FF074682
:10587000E0B154F8043C23F001034B44A0F10802CA
:10588000934200F0D280321F242A00F2F580132ABE
:1058900000F2AC80034622461168196051685960D5
:1058A00092689A602146404601F0FEFB404602F0B5
:1058B000C1FA3846BDE8F88F25F00705002D2A46C5
:1058C0009EDA0C23C8F8003000273846BDE8F88F70
:1058D0001E46D0E90223D3609A60731B0F2B22D897
:1058E000D9F8043003F0010333434E44C9F80430BF
:1058F000736843F0010373604046274602F09AFA4A
:105900003846BDE8F88FC907ADD454F8083CA9EB78
:10591000030ADAF8041021F00301A0E7BDE8F84F0C
:10592000114601F069BFD9F8041001F001012943C3
:10593000C9F8041009EB05014E4443F001034B6024
:10594000736843F0010308317360404601F0ACFB1B
:10595000D2E7DCF8040020F0030B06EB0B0C05F19A
:10596000100084454DDAC9073FF57DAF54F8081C97
:10597000A9EB010ADAF8041021F003018B44B344C7
:1059800058453FF76CAF5746DAF80C1057F8080F38
:10599000321F242AC160886000F2DB80132A40F2A3
:1059A000D6802168CAF808106168CAF80C101B2A52
:1059B00000F2DF8008340AF110022168116061688A
:1059C0005160A16891600AEB0501ABEB050242F062
:1059D000010299604A60DAF8043003F001031D43C4
:1059E0004046CAF8045002F025FA6EE723680360C7
:1059F000636843601B2A68D804F1080200F10803B9
:105A00004AE709EB05029A60ACEB050343F001039A
:105A1000536054F8043C03F001031D43404644F82E
:105A2000045C02F007FA27464FE750F8043C23F0E5
:105A300003031E4451E75746DAF80C1057F8080FD5
:105A4000321F242AC16088604CD8132A48D92168A3
:105A5000CAF808106168CAF80C101B2A56D8083416
:105A60000AF110021E462368136063685360A3683E
:105A70009360D1463C4630E72146FFF7D7FD11E75A
:105A8000D0E902135746CB60996057F8081FDAF83F
:105A90000C30CB60321F242A99602DD8132A29D9C3
:105AA0002368CAF808306368CAF80C301B2A42D849
:105AB00008340AF1100322681A6062685A60A2680A
:105AC0009A606646D1463C4607E7A3688360E36870
:105AD000C360242A26D004F1100200F11003DBE693
:105AE0003A46BFE7214638461E46D146FFF79EFD9F
:105AF0003C46F2E63B46DEE7214638466646D1465E
